{
	"contracts/TesouroDiretoMarket.sol": {
		"TesouroDiretoMarket": {
			"abi": [
				{
					"inputs": [],
					"stateMutability": "nonpayable",
					"type": "constructor"
				},
				{
					"inputs": [],
					"name": "AccessControlBadConfirmation",
					"type": "error"
				},
				{
					"inputs": [
						{
							"internalType": "address",
							"name": "account",
							"type": "address"
						},
						{
							"internalType": "bytes32",
							"name": "neededRole",
							"type": "bytes32"
						}
					],
					"name": "AccessControlUnauthorizedAccount",
					"type": "error"
				},
				{
					"anonymous": false,
					"inputs": [
						{
							"indexed": true,
							"internalType": "bytes32",
							"name": "id",
							"type": "bytes32"
						}
					],
					"name": "ChainlinkCancelled",
					"type": "event"
				},
				{
					"anonymous": false,
					"inputs": [
						{
							"indexed": true,
							"internalType": "bytes32",
							"name": "id",
							"type": "bytes32"
						}
					],
					"name": "ChainlinkFulfilled",
					"type": "event"
				},
				{
					"anonymous": false,
					"inputs": [
						{
							"indexed": true,
							"internalType": "bytes32",
							"name": "id",
							"type": "bytes32"
						}
					],
					"name": "ChainlinkRequested",
					"type": "event"
				},
				{
					"anonymous": false,
					"inputs": [
						{
							"indexed": false,
							"internalType": "uint256",
							"name": "transactionId",
							"type": "uint256"
						},
						{
							"indexed": true,
							"internalType": "bytes32",
							"name": "buyer",
							"type": "bytes32"
						},
						{
							"indexed": true,
							"internalType": "bytes32",
							"name": "seller",
							"type": "bytes32"
						},
						{
							"indexed": false,
							"internalType": "uint256",
							"name": "amount",
							"type": "uint256"
						},
						{
							"indexed": false,
							"internalType": "uint256",
							"name": "timestamp",
							"type": "uint256"
						},
						{
							"indexed": false,
							"internalType": "bool",
							"name": "verified",
							"type": "bool"
						}
					],
					"name": "NewTransaction",
					"type": "event"
				},
				{
					"anonymous": false,
					"inputs": [
						{
							"indexed": true,
							"internalType": "bytes32",
							"name": "role",
							"type": "bytes32"
						},
						{
							"indexed": true,
							"internalType": "bytes32",
							"name": "previousAdminRole",
							"type": "bytes32"
						},
						{
							"indexed": true,
							"internalType": "bytes32",
							"name": "newAdminRole",
							"type": "bytes32"
						}
					],
					"name": "RoleAdminChanged",
					"type": "event"
				},
				{
					"anonymous": false,
					"inputs": [
						{
							"indexed": true,
							"internalType": "bytes32",
							"name": "role",
							"type": "bytes32"
						},
						{
							"indexed": true,
							"internalType": "address",
							"name": "account",
							"type": "address"
						},
						{
							"indexed": true,
							"internalType": "address",
							"name": "sender",
							"type": "address"
						}
					],
					"name": "RoleGranted",
					"type": "event"
				},
				{
					"anonymous": false,
					"inputs": [
						{
							"indexed": true,
							"internalType": "bytes32",
							"name": "role",
							"type": "bytes32"
						},
						{
							"indexed": true,
							"internalType": "address",
							"name": "account",
							"type": "address"
						},
						{
							"indexed": true,
							"internalType": "address",
							"name": "sender",
							"type": "address"
						}
					],
					"name": "RoleRevoked",
					"type": "event"
				},
				{
					"anonymous": false,
					"inputs": [
						{
							"indexed": true,
							"internalType": "uint256",
							"name": "transactionId",
							"type": "uint256"
						},
						{
							"indexed": false,
							"internalType": "uint256",
							"name": "timestamp",
							"type": "uint256"
						},
						{
							"indexed": false,
							"internalType": "uint256",
							"name": "amount",
							"type": "uint256"
						}
					],
					"name": "TransactionReportedToCentralBank",
					"type": "event"
				},
				{
					"inputs": [],
					"name": "ADMIN_ROLE",
					"outputs": [
						{
							"internalType": "bytes32",
							"name": "",
							"type": "bytes32"
						}
					],
					"stateMutability": "view",
					"type": "function"
				},
				{
					"inputs": [],
					"name": "DEFAULT_ADMIN_ROLE",
					"outputs": [
						{
							"internalType": "bytes32",
							"name": "",
							"type": "bytes32"
						}
					],
					"stateMutability": "view",
					"type": "function"
				},
				{
					"inputs": [],
					"name": "REGULATOR_ROLE",
					"outputs": [
						{
							"internalType": "bytes32",
							"name": "",
							"type": "bytes32"
						}
					],
					"stateMutability": "view",
					"type": "function"
				},
				{
					"inputs": [
						{
							"internalType": "address",
							"name": "_admin",
							"type": "address"
						}
					],
					"name": "addAdmin",
					"outputs": [],
					"stateMutability": "nonpayable",
					"type": "function"
				},
				{
					"inputs": [
						{
							"internalType": "address",
							"name": "_regulator",
							"type": "address"
						}
					],
					"name": "addRegulator",
					"outputs": [],
					"stateMutability": "nonpayable",
					"type": "function"
				},
				{
					"inputs": [
						{
							"internalType": "uint256",
							"name": "_amount",
							"type": "uint256"
						},
						{
							"internalType": "string",
							"name": "_buyerInformation",
							"type": "string"
						},
						{
							"internalType": "string",
							"name": "_sellerInformation",
							"type": "string"
						},
						{
							"internalType": "string",
							"name": "_description",
							"type": "string"
						}
					],
					"name": "createTransaction",
					"outputs": [],
					"stateMutability": "nonpayable",
					"type": "function"
				},
				{
					"inputs": [
						{
							"internalType": "bytes32",
							"name": "role",
							"type": "bytes32"
						}
					],
					"name": "getRoleAdmin",
					"outputs": [
						{
							"internalType": "bytes32",
							"name": "",
							"type": "bytes32"
						}
					],
					"stateMutability": "view",
					"type": "function"
				},
				{
					"inputs": [
						{
							"internalType": "uint256",
							"name": "_transactionId",
							"type": "uint256"
						}
					],
					"name": "getTransaction",
					"outputs": [
						{
							"components": [
								{
									"internalType": "bytes32",
									"name": "buyer",
									"type": "bytes32"
								},
								{
									"internalType": "bytes32",
									"name": "seller",
									"type": "bytes32"
								},
								{
									"internalType": "uint256",
									"name": "amount",
									"type": "uint256"
								},
								{
									"internalType": "uint256",
									"name": "timestamp",
									"type": "uint256"
								},
								{
									"internalType": "bool",
									"name": "verified",
									"type": "bool"
								},
								{
									"internalType": "string",
									"name": "buyerInformation",
									"type": "string"
								},
								{
									"internalType": "string",
									"name": "sellerInformation",
									"type": "string"
								},
								{
									"internalType": "string",
									"name": "description",
									"type": "string"
								}
							],
							"internalType": "struct TesouroDiretoMarket.Transaction",
							"name": "",
							"type": "tuple"
						}
					],
					"stateMutability": "view",
					"type": "function"
				},
				{
					"inputs": [],
					"name": "getUserTransactions",
					"outputs": [
						{
							"internalType": "uint256[]",
							"name": "",
							"type": "uint256[]"
						}
					],
					"stateMutability": "view",
					"type": "function"
				},
				{
					"inputs": [
						{
							"internalType": "bytes32",
							"name": "role",
							"type": "bytes32"
						},
						{
							"internalType": "address",
							"name": "account",
							"type": "address"
						}
					],
					"name": "grantRole",
					"outputs": [],
					"stateMutability": "nonpayable",
					"type": "function"
				},
				{
					"inputs": [
						{
							"internalType": "bytes32",
							"name": "role",
							"type": "bytes32"
						},
						{
							"internalType": "address",
							"name": "account",
							"type": "address"
						}
					],
					"name": "hasRole",
					"outputs": [
						{
							"internalType": "bool",
							"name": "",
							"type": "bool"
						}
					],
					"stateMutability": "view",
					"type": "function"
				},
				{
					"inputs": [],
					"name": "owner",
					"outputs": [
						{
							"internalType": "address",
							"name": "",
							"type": "address"
						}
					],
					"stateMutability": "view",
					"type": "function"
				},
				{
					"inputs": [
						{
							"internalType": "address",
							"name": "_admin",
							"type": "address"
						}
					],
					"name": "removeAdmin",
					"outputs": [],
					"stateMutability": "nonpayable",
					"type": "function"
				},
				{
					"inputs": [
						{
							"internalType": "address",
							"name": "_regulator",
							"type": "address"
						}
					],
					"name": "removeRegulator",
					"outputs": [],
					"stateMutability": "nonpayable",
					"type": "function"
				},
				{
					"inputs": [
						{
							"internalType": "bytes32",
							"name": "role",
							"type": "bytes32"
						},
						{
							"internalType": "address",
							"name": "callerConfirmation",
							"type": "address"
						}
					],
					"name": "renounceRole",
					"outputs": [],
					"stateMutability": "nonpayable",
					"type": "function"
				},
				{
					"inputs": [
						{
							"internalType": "uint256",
							"name": "_amount",
							"type": "uint256"
						},
						{
							"internalType": "string",
							"name": "_description",
							"type": "string"
						}
					],
					"name": "requestTransactionVerification",
					"outputs": [],
					"stateMutability": "nonpayable",
					"type": "function"
				},
				{
					"inputs": [
						{
							"internalType": "bytes32",
							"name": "role",
							"type": "bytes32"
						},
						{
							"internalType": "address",
							"name": "account",
							"type": "address"
						}
					],
					"name": "revokeRole",
					"outputs": [],
					"stateMutability": "nonpayable",
					"type": "function"
				},
				{
					"inputs": [
						{
							"internalType": "bytes4",
							"name": "interfaceId",
							"type": "bytes4"
						}
					],
					"name": "supportsInterface",
					"outputs": [
						{
							"internalType": "bool",
							"name": "",
							"type": "bool"
						}
					],
					"stateMutability": "view",
					"type": "function"
				},
				{
					"inputs": [],
					"name": "transactionCount",
					"outputs": [
						{
							"internalType": "uint256",
							"name": "",
							"type": "uint256"
						}
					],
					"stateMutability": "view",
					"type": "function"
				},
				{
					"inputs": [
						{
							"internalType": "uint256",
							"name": "",
							"type": "uint256"
						}
					],
					"name": "transactions",
					"outputs": [
						{
							"internalType": "bytes32",
							"name": "buyer",
							"type": "bytes32"
						},
						{
							"internalType": "bytes32",
							"name": "seller",
							"type": "bytes32"
						},
						{
							"internalType": "uint256",
							"name": "amount",
							"type": "uint256"
						},
						{
							"internalType": "uint256",
							"name": "timestamp",
							"type": "uint256"
						},
						{
							"internalType": "bool",
							"name": "verified",
							"type": "bool"
						},
						{
							"internalType": "string",
							"name": "buyerInformation",
							"type": "string"
						},
						{
							"internalType": "string",
							"name": "sellerInformation",
							"type": "string"
						},
						{
							"internalType": "string",
							"name": "description",
							"type": "string"
						}
					],
					"stateMutability": "view",
					"type": "function"
				},
				{
					"inputs": [
						{
							"internalType": "address",
							"name": "",
							"type": "address"
						},
						{
							"internalType": "uint256",
							"name": "",
							"type": "uint256"
						}
					],
					"name": "userTransactions",
					"outputs": [
						{
							"internalType": "uint256",
							"name": "",
							"type": "uint256"
						}
					],
					"stateMutability": "view",
					"type": "function"
				}
			],
			"devdoc": {
				"errors": {
					"AccessControlBadConfirmation()": [
						{
							"details": "The caller of a function is not the expected one. NOTE: Don't confuse with {AccessControlUnauthorizedAccount}."
						}
					],
					"AccessControlUnauthorizedAccount(address,bytes32)": [
						{
							"details": "The `account` is missing a role."
						}
					]
				},
				"events": {
					"RoleAdminChanged(bytes32,bytes32,bytes32)": {
						"details": "Emitted when `newAdminRole` is set as ``role``'s admin role, replacing `previousAdminRole` `DEFAULT_ADMIN_ROLE` is the starting admin for all roles, despite {RoleAdminChanged} not being emitted signaling this."
					},
					"RoleGranted(bytes32,address,address)": {
						"details": "Emitted when `account` is granted `role`. `sender` is the account that originated the contract call, an admin role bearer except when using {AccessControl-_setupRole}."
					},
					"RoleRevoked(bytes32,address,address)": {
						"details": "Emitted when `account` is revoked `role`. `sender` is the account that originated the contract call:   - if using `revokeRole`, it is the admin role bearer   - if using `renounceRole`, it is the role bearer (i.e. `account`)"
					}
				},
				"kind": "dev",
				"methods": {
					"getRoleAdmin(bytes32)": {
						"details": "Returns the admin role that controls `role`. See {grantRole} and {revokeRole}. To change a role's admin, use {_setRoleAdmin}."
					},
					"grantRole(bytes32,address)": {
						"details": "Grants `role` to `account`. If `account` had not been already granted `role`, emits a {RoleGranted} event. Requirements: - the caller must have ``role``'s admin role. May emit a {RoleGranted} event."
					},
					"hasRole(bytes32,address)": {
						"details": "Returns `true` if `account` has been granted `role`."
					},
					"renounceRole(bytes32,address)": {
						"details": "Revokes `role` from the calling account. Roles are often managed via {grantRole} and {revokeRole}: this function's purpose is to provide a mechanism for accounts to lose their privileges if they are compromised (such as when a trusted device is misplaced). If the calling account had been revoked `role`, emits a {RoleRevoked} event. Requirements: - the caller must be `callerConfirmation`. May emit a {RoleRevoked} event."
					},
					"revokeRole(bytes32,address)": {
						"details": "Revokes `role` from `account`. If `account` had been granted `role`, emits a {RoleRevoked} event. Requirements: - the caller must have ``role``'s admin role. May emit a {RoleRevoked} event."
					},
					"supportsInterface(bytes4)": {
						"details": "See {IERC165-supportsInterface}."
					}
				},
				"version": 1
			},
			"evm": {
				"assembly": "    /* \"contracts/TesouroDiretoMarket.sol\":145:5115  contract TesouroDiretoMarket is AccessControlBase, ChainlinkBase, PrivacyBase {... */\n  mstore(0x40, 0x80)\n    /* \"@chainlink/contracts/src/v0.8/ChainlinkClient.sol\":1300:1301  1 */\n  0x01\n    /* \"@chainlink/contracts/src/v0.8/ChainlinkClient.sol\":1267:1301  uint256 private s_requestCount = 1 */\n  0x05\n  sstore\n    /* \"contracts/TesouroDiretoMarket.sol\":1164:1215  constructor() {... */\n  callvalue\n  dup1\n  iszero\n  tag_1\n  jumpi\n  0x00\n  dup1\n  revert\ntag_1:\n  pop\n    /* \"contracts/AccessControl.sol\":602:644  _grantRole(DEFAULT_ADMIN_ROLE, msg.sender) */\n  tag_5\n    /* \"@openzeppelin/contracts/access/AccessControl.sol\":2232:2236  0x00 */\n  0x00\n    /* \"contracts/AccessControl.sol\":633:643  msg.sender */\n  caller\n    /* \"contracts/AccessControl.sol\":602:612  _grantRole */\n  tag_6\n    /* \"contracts/AccessControl.sol\":602:644  _grantRole(DEFAULT_ADMIN_ROLE, msg.sender) */\n  jump\t// in\ntag_5:\n  pop\n    /* \"contracts/AccessControl.sol\":655:689  _grantRole(ADMIN_ROLE, msg.sender) */\n  tag_7\n    /* \"contracts/AccessControl.sol\":210:233  keccak256(\"ADMIN_ROLE\") */\n  0xa49807205ce4d355092ef5a8a18f56e8913cf4a201fbe287825b095693c21775\n    /* \"contracts/AccessControl.sol\":678:688  msg.sender */\n  caller\n    /* \"contracts/AccessControl.sol\":655:665  _grantRole */\n  tag_6\n    /* \"contracts/AccessControl.sol\":655:689  _grantRole(ADMIN_ROLE, msg.sender) */\n  jump\t// in\ntag_7:\n  pop\n    /* \"contracts/AccessControl.sol\":700:738  _grantRole(REGULATOR_ROLE, msg.sender) */\n  tag_8\n    /* \"contracts/AccessControl.sol\":281:308  keccak256(\"REGULATOR_ROLE\") */\n  0x20b5f7ac978e5d6199de06401411960dfa81d2f762655f6206bdc61d46fc19e6\n    /* \"contracts/AccessControl.sol\":727:737  msg.sender */\n  caller\n    /* \"contracts/AccessControl.sol\":700:710  _grantRole */\n  tag_6\n    /* \"contracts/AccessControl.sol\":700:738  _grantRole(REGULATOR_ROLE, msg.sender) */\n  jump\t// in\ntag_8:\n  pop\n    /* \"contracts/TesouroDiretoMarket.sol\":1189:1194  owner */\n  0x07\n    /* \"contracts/TesouroDiretoMarket.sol\":1189:1207  owner = msg.sender */\n  dup1\n  sload\n  not(sub(shl(0xa0, 0x01), 0x01))\n  and\n    /* \"contracts/TesouroDiretoMarket.sol\":1197:1207  msg.sender */\n  caller\n    /* \"contracts/TesouroDiretoMarket.sol\":1189:1207  owner = msg.sender */\n  or\n  swap1\n  sstore\n    /* \"contracts/TesouroDiretoMarket.sol\":145:5115  contract TesouroDiretoMarket is AccessControlBase, ChainlinkBase, PrivacyBase {... */\n  jump(tag_10)\n    /* \"@openzeppelin/contracts/access/AccessControl.sol\":6179:6495  function _grantRole(bytes32 role, address account) internal virtual returns (bool) {... */\ntag_6:\n    /* \"@openzeppelin/contracts/access/AccessControl.sol\":6256:6260  bool */\n  0x00\n    /* \"@openzeppelin/contracts/access/AccessControl.sol\":2954:2966  _roles[role] */\n  dup3\n  dup2\n  mstore\n  0x20\n  dup2\n  dup2\n  mstore\n  0x40\n  dup1\n  dup4\n  keccak256\n  sub(shl(0xa0, 0x01), 0x01)\n    /* \"@openzeppelin/contracts/access/AccessControl.sol\":2954:2983  _roles[role].hasRole[account] */\n  dup6\n  and\n  dup5\n  mstore\n  swap1\n  swap2\n  mstore\n  dup2\n  keccak256\n  sload\n  0xff\n  and\n    /* \"@openzeppelin/contracts/access/AccessControl.sol\":6272:6489  if (!hasRole(role, account)) {... */\n  tag_14\n  jumpi\n    /* \"@openzeppelin/contracts/access/AccessControl.sol\":6315:6321  _roles */\n  0x00\n    /* \"@openzeppelin/contracts/access/AccessControl.sol\":6315:6327  _roles[role] */\n  dup4\n  dup2\n  mstore\n  0x20\n  dup2\n  dup2\n  mstore\n  0x40\n  dup1\n  dup4\n  keccak256\n  sub(shl(0xa0, 0x01), 0x01)\n    /* \"@openzeppelin/contracts/access/AccessControl.sol\":6315:6344  _roles[role].hasRole[account] */\n  dup7\n  and\n  dup5\n  mstore\n  swap1\n  swap2\n  mstore\n  swap1\n  keccak256\n    /* \"@openzeppelin/contracts/access/AccessControl.sol\":6315:6351  _roles[role].hasRole[account] = true */\n  dup1\n  sload\n  not(0xff)\n  and\n    /* \"@openzeppelin/contracts/access/AccessControl.sol\":6347:6351  true */\n  0x01\n    /* \"@openzeppelin/contracts/access/AccessControl.sol\":6315:6351  _roles[role].hasRole[account] = true */\n  or\n  swap1\n  sstore\n    /* \"@openzeppelin/contracts/access/AccessControl.sol\":6397:6409  _msgSender() */\n  tag_15\n    /* \"@openzeppelin/contracts/utils/Context.sol\":735:745  msg.sender */\n  caller\n  swap1\n    /* \"@openzeppelin/contracts/utils/Context.sol\":656:752  function _msgSender() internal view virtual returns (address) {... */\n  jump\n    /* \"@openzeppelin/contracts/access/AccessControl.sol\":6397:6409  _msgSender() */\ntag_15:\n  sub(shl(0xa0, 0x01), 0x01)\n    /* \"@openzeppelin/contracts/access/AccessControl.sol\":6370:6410  RoleGranted(role, account, _msgSender()) */\n  and\n    /* \"@openzeppelin/contracts/access/AccessControl.sol\":6388:6395  account */\n  dup3\n  sub(shl(0xa0, 0x01), 0x01)\n    /* \"@openzeppelin/contracts/access/AccessControl.sol\":6370:6410  RoleGranted(role, account, _msgSender()) */\n  and\n    /* \"@openzeppelin/contracts/access/AccessControl.sol\":6382:6386  role */\n  dup5\n    /* \"@openzeppelin/contracts/access/AccessControl.sol\":6370:6410  RoleGranted(role, account, _msgSender()) */\n  0x2f8788117e7eff1d82e926ec794901d17c78024a50270940304540a733656f0d\n  mload(0x40)\n  mload(0x40)\n  dup1\n  swap2\n  sub\n  swap1\n  log4\n  pop\n    /* \"@openzeppelin/contracts/access/AccessControl.sol\":6431:6435  true */\n  0x01\n    /* \"@openzeppelin/contracts/access/AccessControl.sol\":6424:6435  return true */\n  jump(tag_17)\n    /* \"@openzeppelin/contracts/access/AccessControl.sol\":6272:6489  if (!hasRole(role, account)) {... */\ntag_14:\n  pop\n    /* \"@openzeppelin/contracts/access/AccessControl.sol\":6473:6478  false */\n  0x00\n    /* \"@openzeppelin/contracts/access/AccessControl.sol\":6272:6489  if (!hasRole(role, account)) {... */\ntag_17:\n    /* \"@openzeppelin/contracts/access/AccessControl.sol\":6179:6495  function _grantRole(bytes32 role, address account) internal virtual returns (bool) {... */\n  swap3\n  swap2\n  pop\n  pop\n  jump\t// out\n    /* \"contracts/TesouroDiretoMarket.sol\":145:5115  contract TesouroDiretoMarket is AccessControlBase, ChainlinkBase, PrivacyBase {... */\ntag_10:\n  dataSize(sub_0)\n  dup1\n  dataOffset(sub_0)\n  0x00\n  codecopy\n  0x00\n  return\nstop\n\nsub_0: assembly {\n        /* \"contracts/TesouroDiretoMarket.sol\":145:5115  contract TesouroDiretoMarket is AccessControlBase, ChainlinkBase, PrivacyBase {... */\n      mstore(0x40, 0x80)\n      callvalue\n      dup1\n      iszero\n      tag_1\n      jumpi\n      0x00\n      dup1\n      revert\n    tag_1:\n      pop\n      jumpi(tag_2, lt(calldatasize, 0x04))\n      shr(0xe0, calldataload(0x00))\n      dup1\n      0x01ffc9a7\n      eq\n      tag_3\n      jumpi\n      dup1\n      0x144bf589\n      eq\n      tag_4\n      jumpi\n      dup1\n      0x1785f53c\n      eq\n      tag_5\n      jumpi\n      dup1\n      0x248a9ca3\n      eq\n      tag_6\n      jumpi\n      dup1\n      0x2f2ff15d\n      eq\n      tag_7\n      jumpi\n      dup1\n      0x33ea3dc8\n      eq\n      tag_8\n      jumpi\n      dup1\n      0x36568abe\n      eq\n      tag_9\n      jumpi\n      dup1\n      0x379f5fed\n      eq\n      tag_10\n      jumpi\n      dup1\n      0x6fe691dc\n      eq\n      tag_11\n      jumpi\n      dup1\n      0x70480275\n      eq\n      tag_12\n      jumpi\n      dup1\n      0x75b238fc\n      eq\n      tag_13\n      jumpi\n      dup1\n      0x8cb59708\n      eq\n      tag_14\n      jumpi\n      dup1\n      0x8da5cb5b\n      eq\n      tag_15\n      jumpi\n      dup1\n      0x91d14854\n      eq\n      tag_16\n      jumpi\n      dup1\n      0x93e080e0\n      eq\n      tag_17\n      jumpi\n      dup1\n      0x9ace38c2\n      eq\n      tag_18\n      jumpi\n      dup1\n      0xa217fddf\n      eq\n      tag_19\n      jumpi\n      dup1\n      0xac63f3c7\n      eq\n      tag_20\n      jumpi\n      dup1\n      0xb77bf600\n      eq\n      tag_21\n      jumpi\n      dup1\n      0xb842ec44\n      eq\n      tag_22\n      jumpi\n      dup1\n      0xd547741f\n      eq\n      tag_23\n      jumpi\n    tag_2:\n      0x00\n      dup1\n      revert\n        /* \"@openzeppelin/contracts/access/AccessControl.sol\":2565:2767  function supportsInterface(bytes4 interfaceId) public view virtual override returns (bool) {... */\n    tag_3:\n      tag_24\n      tag_25\n      calldatasize\n      0x04\n      tag_26\n      jump\t// in\n    tag_25:\n      tag_27\n      jump\t// in\n    tag_24:\n      mload(0x40)\n        /* \"#utility.yul\":566:580   */\n      swap1\n      iszero\n        /* \"#utility.yul\":559:581   */\n      iszero\n        /* \"#utility.yul\":541:582   */\n      dup2\n      mstore\n        /* \"#utility.yul\":529:531   */\n      0x20\n        /* \"#utility.yul\":514:532   */\n      add\n        /* \"@openzeppelin/contracts/access/AccessControl.sol\":2565:2767  function supportsInterface(bytes4 interfaceId) public view virtual override returns (bool) {... */\n    tag_28:\n      mload(0x40)\n      dup1\n      swap2\n      sub\n      swap1\n      return\n        /* \"contracts/AccessControl.sol\":240:308  bytes32 public constant REGULATOR_ROLE = keccak256(\"REGULATOR_ROLE\") */\n    tag_4:\n      tag_30\n      0x00\n      dup1\n      mload\n      0x20\n      data_9c197ab64675a520bf3233aead5e60d73572922e84bf54bfd7e89534eb4c0ba4\n      dup4\n      codecopy\n      dup2\n      mload\n      swap2\n      mstore\n      dup2\n      jump\n    tag_30:\n      mload(0x40)\n        /* \"#utility.yul\":739:764   */\n      swap1\n      dup2\n      mstore\n        /* \"#utility.yul\":727:729   */\n      0x20\n        /* \"#utility.yul\":712:730   */\n      add\n        /* \"contracts/AccessControl.sol\":240:308  bytes32 public constant REGULATOR_ROLE = keccak256(\"REGULATOR_ROLE\") */\n      tag_28\n        /* \"#utility.yul\":593:770   */\n      jump\n        /* \"contracts/AccessControl.sol\":864:969  function removeAdmin(address _admin) external onlyAdmin {... */\n    tag_5:\n      tag_34\n      tag_35\n      calldatasize\n      0x04\n      tag_36\n      jump\t// in\n    tag_35:\n      tag_37\n      jump\t// in\n    tag_34:\n      stop\n        /* \"@openzeppelin/contracts/access/AccessControl.sol\":3810:3930  function getRoleAdmin(bytes32 role) public view virtual returns (bytes32) {... */\n    tag_6:\n      tag_30\n      tag_39\n      calldatasize\n      0x04\n      tag_40\n      jump\t// in\n    tag_39:\n      tag_41\n      jump\t// in\n        /* \"@openzeppelin/contracts/access/AccessControl.sol\":4226:4362  function grantRole(bytes32 role, address account) public virtual onlyRole(getRoleAdmin(role)) {... */\n    tag_7:\n      tag_34\n      tag_44\n      calldatasize\n      0x04\n      tag_45\n      jump\t// in\n    tag_44:\n      tag_46\n      jump\t// in\n        /* \"contracts/TesouroDiretoMarket.sol\":4833:4978  function getTransaction(uint256 _transactionId) external view returns (Transaction memory) {... */\n    tag_8:\n      tag_47\n      tag_48\n      calldatasize\n      0x04\n      tag_40\n      jump\t// in\n    tag_48:\n      tag_50\n      jump\t// in\n    tag_47:\n      mload(0x40)\n      tag_28\n      swap2\n      swap1\n      tag_52\n      jump\t// in\n        /* \"@openzeppelin/contracts/access/AccessControl.sol\":5328:5573  function renounceRole(bytes32 role, address callerConfirmation) public virtual {... */\n    tag_9:\n      tag_34\n      tag_54\n      calldatasize\n      0x04\n      tag_45\n      jump\t// in\n    tag_54:\n      tag_55\n      jump\t// in\n        /* \"contracts/AccessControl.sol\":1103:1224  function removeRegulator(address _regulator) external onlyAdmin {... */\n    tag_10:\n      tag_34\n      tag_57\n      calldatasize\n      0x04\n      tag_36\n      jump\t// in\n    tag_57:\n      tag_58\n      jump\t// in\n        /* \"contracts/TesouroDiretoMarket.sol\":4986:5112  function getUserTransactions() external view returns (uint256[] memory) {... */\n    tag_11:\n      tag_59\n      tag_60\n      jump\t// in\n    tag_59:\n      mload(0x40)\n      tag_28\n      swap2\n      swap1\n      tag_62\n      jump\t// in\n        /* \"contracts/AccessControl.sol\":754:856  function addAdmin(address _admin) external onlyAdmin {... */\n    tag_12:\n      tag_34\n      tag_64\n      calldatasize\n      0x04\n      tag_36\n      jump\t// in\n    tag_64:\n      tag_65\n      jump\t// in\n        /* \"contracts/AccessControl.sol\":173:233  bytes32 public constant ADMIN_ROLE = keccak256(\"ADMIN_ROLE\") */\n    tag_13:\n      tag_30\n      0x00\n      dup1\n      mload\n      0x20\n      data_cb864c43dd5d441bb6271f424f11befa622c032dfd374d226e26fbbdb782b8f8\n      dup4\n      codecopy\n      dup2\n      mload\n      swap2\n      mstore\n      dup2\n      jump\n        /* \"contracts/TesouroDiretoMarket.sol\":2931:4825  function createTransaction(... */\n    tag_14:\n      tag_34\n      tag_70\n      calldatasize\n      0x04\n      tag_71\n      jump\t// in\n    tag_70:\n      tag_72\n      jump\t// in\n        /* \"contracts/TesouroDiretoMarket.sol\":230:250  address public owner */\n    tag_15:\n      sload(0x07)\n      tag_73\n      swap1\n      sub(shl(0xa0, 0x01), 0x01)\n      and\n      dup2\n      jump\n    tag_73:\n      mload(0x40)\n      sub(shl(0xa0, 0x01), 0x01)\n        /* \"#utility.yul\":5804:5836   */\n      swap1\n      swap2\n      and\n        /* \"#utility.yul\":5786:5837   */\n      dup2\n      mstore\n        /* \"#utility.yul\":5774:5776   */\n      0x20\n        /* \"#utility.yul\":5759:5777   */\n      add\n        /* \"contracts/TesouroDiretoMarket.sol\":230:250  address public owner */\n      tag_28\n        /* \"#utility.yul\":5640:5843   */\n      jump\n        /* \"@openzeppelin/contracts/access/AccessControl.sol\":2854:2990  function hasRole(bytes32 role, address account) public view virtual returns (bool) {... */\n    tag_16:\n      tag_24\n      tag_78\n      calldatasize\n      0x04\n      tag_45\n      jump\t// in\n    tag_78:\n      tag_79\n      jump\t// in\n        /* \"contracts/TesouroDiretoMarket.sol\":1223:2923  function requestTransactionVerification(uint256 _amount, string memory _description) external onlyRegulator {... */\n    tag_17:\n      tag_34\n      tag_82\n      calldatasize\n      0x04\n      tag_83\n      jump\t// in\n    tag_82:\n      tag_84\n      jump\t// in\n        /* \"contracts/TesouroDiretoMarket.sol\":297:348  mapping(uint256 => Transaction) public transactions */\n    tag_18:\n      tag_85\n      tag_86\n      calldatasize\n      0x04\n      tag_40\n      jump\t// in\n    tag_86:\n      tag_87\n      jump\t// in\n    tag_85:\n      mload(0x40)\n      tag_28\n      swap9\n      swap8\n      swap7\n      swap6\n      swap5\n      swap4\n      swap3\n      swap2\n      swap1\n      tag_89\n      jump\t// in\n        /* \"@openzeppelin/contracts/access/AccessControl.sol\":2187:2236  bytes32 public constant DEFAULT_ADMIN_ROLE = 0x00 */\n    tag_19:\n      tag_30\n        /* \"@openzeppelin/contracts/access/AccessControl.sol\":2232:2236  0x00 */\n      0x00\n        /* \"@openzeppelin/contracts/access/AccessControl.sol\":2187:2236  bytes32 public constant DEFAULT_ADMIN_ROLE = 0x00 */\n      dup2\n      jump\n        /* \"contracts/AccessControl.sol\":977:1095  function addRegulator(address _regulator) external onlyAdmin {... */\n    tag_20:\n      tag_34\n      tag_94\n      calldatasize\n      0x04\n      tag_36\n      jump\t// in\n    tag_94:\n      tag_95\n      jump\t// in\n        /* \"contracts/TesouroDiretoMarket.sol\":257:288  uint256 public transactionCount */\n    tag_21:\n      tag_30\n      sload(0x08)\n      dup2\n      jump\n        /* \"contracts/TesouroDiretoMarket.sol\":355:408  mapping(address => uint256[]) public userTransactions */\n    tag_22:\n      tag_30\n      tag_101\n      calldatasize\n      0x04\n      tag_102\n      jump\t// in\n    tag_101:\n      tag_103\n      jump\t// in\n        /* \"@openzeppelin/contracts/access/AccessControl.sol\":4642:4780  function revokeRole(bytes32 role, address account) public virtual onlyRole(getRoleAdmin(role)) {... */\n    tag_23:\n      tag_34\n      tag_106\n      calldatasize\n      0x04\n      tag_45\n      jump\t// in\n    tag_106:\n      tag_107\n      jump\t// in\n        /* \"@openzeppelin/contracts/access/AccessControl.sol\":2565:2767  function supportsInterface(bytes4 interfaceId) public view virtual override returns (bool) {... */\n    tag_27:\n        /* \"@openzeppelin/contracts/access/AccessControl.sol\":2650:2654  bool */\n      0x00\n      not(sub(shl(0xe0, 0x01), 0x01))\n        /* \"@openzeppelin/contracts/access/AccessControl.sol\":2673:2720  interfaceId == type(IAccessControl).interfaceId */\n      dup3\n      and\n      shl(0xe0, 0x7965db0b)\n      eq\n      dup1\n        /* \"@openzeppelin/contracts/access/AccessControl.sol\":2673:2760  interfaceId == type(IAccessControl).interfaceId || super.supportsInterface(interfaceId) */\n      tag_110\n      jumpi\n      pop\n      shl(0xe0, 0x01ffc9a7)\n      not(sub(shl(0xe0, 0x01), 0x01))\n        /* \"@openzeppelin/contracts/utils/introspection/ERC165.sol\":861:901  interfaceId == type(IERC165).interfaceId */\n      dup4\n      and\n      eq\n        /* \"@openzeppelin/contracts/access/AccessControl.sol\":2724:2760  super.supportsInterface(interfaceId) */\n    tag_110:\n        /* \"@openzeppelin/contracts/access/AccessControl.sol\":2666:2760  return interfaceId == type(IAccessControl).interfaceId || super.supportsInterface(interfaceId) */\n      swap3\n        /* \"@openzeppelin/contracts/access/AccessControl.sol\":2565:2767  function supportsInterface(bytes4 interfaceId) public view virtual override returns (bool) {... */\n      swap2\n      pop\n      pop\n      jump\t// out\n        /* \"contracts/AccessControl.sol\":864:969  function removeAdmin(address _admin) external onlyAdmin {... */\n    tag_37:\n        /* \"contracts/AccessControl.sol\":357:388  hasRole(ADMIN_ROLE, msg.sender) */\n      tag_113\n      0x00\n      dup1\n      mload\n      0x20\n      data_cb864c43dd5d441bb6271f424f11befa622c032dfd374d226e26fbbdb782b8f8\n      dup4\n      codecopy\n      dup2\n      mload\n      swap2\n      mstore\n        /* \"contracts/AccessControl.sol\":377:387  msg.sender */\n      caller\n        /* \"contracts/AccessControl.sol\":357:364  hasRole */\n      tag_79\n        /* \"contracts/AccessControl.sol\":357:388  hasRole(ADMIN_ROLE, msg.sender) */\n      jump\t// in\n    tag_113:\n        /* \"contracts/AccessControl.sol\":349:413  require(hasRole(ADMIN_ROLE, msg.sender), \"Must have admin role\") */\n      tag_114\n      jumpi\n      mload(0x40)\n      shl(0xe5, 0x461bcd)\n      dup2\n      mstore\n      0x04\n      add\n      tag_115\n      swap1\n      tag_116\n      jump\t// in\n    tag_115:\n      mload(0x40)\n      dup1\n      swap2\n      sub\n      swap1\n      revert\n    tag_114:\n        /* \"contracts/AccessControl.sol\":931:961  revokeRole(ADMIN_ROLE, _admin) */\n      tag_118\n      0x00\n      dup1\n      mload\n      0x20\n      data_cb864c43dd5d441bb6271f424f11befa622c032dfd374d226e26fbbdb782b8f8\n      dup4\n      codecopy\n      dup2\n      mload\n      swap2\n      mstore\n        /* \"contracts/AccessControl.sol\":954:960  _admin */\n      dup3\n        /* \"contracts/AccessControl.sol\":931:941  revokeRole */\n      tag_107\n        /* \"contracts/AccessControl.sol\":931:961  revokeRole(ADMIN_ROLE, _admin) */\n      jump\t// in\n    tag_118:\n        /* \"contracts/AccessControl.sol\":864:969  function removeAdmin(address _admin) external onlyAdmin {... */\n      pop\n      jump\t// out\n        /* \"@openzeppelin/contracts/access/AccessControl.sol\":3810:3930  function getRoleAdmin(bytes32 role) public view virtual returns (bytes32) {... */\n    tag_41:\n        /* \"@openzeppelin/contracts/access/AccessControl.sol\":3875:3882  bytes32 */\n      0x00\n        /* \"@openzeppelin/contracts/access/AccessControl.sol\":3901:3913  _roles[role] */\n      swap1\n      dup2\n      mstore\n      0x20\n      dup2\n      swap1\n      mstore\n      0x40\n      swap1\n      keccak256\n        /* \"@openzeppelin/contracts/access/AccessControl.sol\":3901:3923  _roles[role].adminRole */\n      0x01\n      add\n      sload\n      swap1\n        /* \"@openzeppelin/contracts/access/AccessControl.sol\":3810:3930  function getRoleAdmin(bytes32 role) public view virtual returns (bytes32) {... */\n      jump\t// out\n        /* \"@openzeppelin/contracts/access/AccessControl.sol\":4226:4362  function grantRole(bytes32 role, address account) public virtual onlyRole(getRoleAdmin(role)) {... */\n    tag_46:\n        /* \"@openzeppelin/contracts/access/AccessControl.sol\":4300:4318  getRoleAdmin(role) */\n      tag_120\n        /* \"@openzeppelin/contracts/access/AccessControl.sol\":4313:4317  role */\n      dup3\n        /* \"@openzeppelin/contracts/access/AccessControl.sol\":4300:4312  getRoleAdmin */\n      tag_41\n        /* \"@openzeppelin/contracts/access/AccessControl.sol\":4300:4318  getRoleAdmin(role) */\n      jump\t// in\n    tag_120:\n        /* \"@openzeppelin/contracts/access/AccessControl.sol\":2464:2480  _checkRole(role) */\n      tag_122\n        /* \"@openzeppelin/contracts/access/AccessControl.sol\":2475:2479  role */\n      dup2\n        /* \"@openzeppelin/contracts/access/AccessControl.sol\":2464:2474  _checkRole */\n      tag_123\n        /* \"@openzeppelin/contracts/access/AccessControl.sol\":2464:2480  _checkRole(role) */\n      jump\t// in\n    tag_122:\n        /* \"@openzeppelin/contracts/access/AccessControl.sol\":4330:4355  _grantRole(role, account) */\n      tag_125\n        /* \"@openzeppelin/contracts/access/AccessControl.sol\":4341:4345  role */\n      dup4\n        /* \"@openzeppelin/contracts/access/AccessControl.sol\":4347:4354  account */\n      dup4\n        /* \"@openzeppelin/contracts/access/AccessControl.sol\":4330:4340  _grantRole */\n      tag_126\n        /* \"@openzeppelin/contracts/access/AccessControl.sol\":4330:4355  _grantRole(role, account) */\n      jump\t// in\n    tag_125:\n      pop\n        /* \"@openzeppelin/contracts/access/AccessControl.sol\":4226:4362  function grantRole(bytes32 role, address account) public virtual onlyRole(getRoleAdmin(role)) {... */\n      pop\n      pop\n      pop\n      jump\t// out\n        /* \"contracts/TesouroDiretoMarket.sol\":4833:4978  function getTransaction(uint256 _transactionId) external view returns (Transaction memory) {... */\n    tag_50:\n        /* \"contracts/TesouroDiretoMarket.sol\":4904:4922  Transaction memory */\n      tag_127\n      mload(0x40)\n      dup1\n      0x0100\n      add\n      0x40\n      mstore\n      dup1\n      0x00\n      dup1\n      not\n      and\n      dup2\n      mstore\n      0x20\n      add\n      0x00\n      dup1\n      not\n      and\n      dup2\n      mstore\n      0x20\n      add\n      0x00\n      dup2\n      mstore\n      0x20\n      add\n      0x00\n      dup2\n      mstore\n      0x20\n      add\n      iszero(iszero(0x00))\n      dup2\n      mstore\n      0x20\n      add\n      0x60\n      dup2\n      mstore\n      0x20\n      add\n      0x60\n      dup2\n      mstore\n      0x20\n      add\n      0x60\n      dup2\n      mstore\n      pop\n      swap1\n      jump\n    tag_127:\n        /* \"contracts/TesouroDiretoMarket.sol\":4942:4970  transactions[_transactionId] */\n      0x00\n      dup3\n      dup2\n      mstore\n        /* \"contracts/TesouroDiretoMarket.sol\":4942:4954  transactions */\n      0x09\n        /* \"contracts/TesouroDiretoMarket.sol\":4942:4970  transactions[_transactionId] */\n      0x20\n      swap1\n      dup2\n      mstore\n      0x40\n      swap2\n      dup3\n      swap1\n      keccak256\n        /* \"contracts/TesouroDiretoMarket.sol\":4935:4970  return transactions[_transactionId] */\n      dup3\n      mload\n      0x0100\n      dup2\n      add\n      dup5\n      mstore\n      dup2\n      sload\n      dup2\n      mstore\n      0x01\n      dup3\n      add\n      sload\n      swap3\n      dup2\n      add\n      swap3\n      swap1\n      swap3\n      mstore\n      0x02\n      dup2\n      add\n      sload\n      swap3\n      dup3\n      add\n      swap3\n      swap1\n      swap3\n      mstore\n      0x03\n      dup3\n      add\n      sload\n      0x60\n      dup3\n      add\n      mstore\n      0x04\n      dup3\n      add\n      sload\n      0xff\n      and\n      iszero\n      iszero\n      0x80\n      dup3\n      add\n      mstore\n      0x05\n      dup3\n      add\n      dup1\n      sload\n      swap2\n      swap3\n        /* \"contracts/TesouroDiretoMarket.sol\":4942:4970  transactions[_transactionId] */\n      swap2\n        /* \"contracts/TesouroDiretoMarket.sol\":4935:4970  return transactions[_transactionId] */\n      0xa0\n      dup5\n      add\n      swap2\n      swap1\n      tag_130\n      swap1\n      tag_131\n      jump\t// in\n    tag_130:\n      dup1\n      0x1f\n      add\n      0x20\n      dup1\n      swap2\n      div\n      mul\n      0x20\n      add\n      mload(0x40)\n      swap1\n      dup2\n      add\n      0x40\n      mstore\n      dup1\n      swap3\n      swap2\n      swap1\n      dup2\n      dup2\n      mstore\n      0x20\n      add\n      dup3\n      dup1\n      sload\n      tag_132\n      swap1\n      tag_131\n      jump\t// in\n    tag_132:\n      dup1\n      iszero\n      tag_133\n      jumpi\n      dup1\n      0x1f\n      lt\n      tag_134\n      jumpi\n      0x0100\n      dup1\n      dup4\n      sload\n      div\n      mul\n      dup4\n      mstore\n      swap2\n      0x20\n      add\n      swap2\n      jump(tag_133)\n    tag_134:\n      dup3\n      add\n      swap2\n      swap1\n      0x00\n      mstore\n      keccak256(0x00, 0x20)\n      swap1\n    tag_135:\n      dup2\n      sload\n      dup2\n      mstore\n      swap1\n      0x01\n      add\n      swap1\n      0x20\n      add\n      dup1\n      dup4\n      gt\n      tag_135\n      jumpi\n      dup3\n      swap1\n      sub\n      0x1f\n      and\n      dup3\n      add\n      swap2\n    tag_133:\n      pop\n      pop\n      pop\n      pop\n      pop\n      dup2\n      mstore\n      0x20\n      add\n      0x06\n      dup3\n      add\n      dup1\n      sload\n      tag_136\n      swap1\n      tag_131\n      jump\t// in\n    tag_136:\n      dup1\n      0x1f\n      add\n      0x20\n      dup1\n      swap2\n      div\n      mul\n      0x20\n      add\n      mload(0x40)\n      swap1\n      dup2\n      add\n      0x40\n      mstore\n      dup1\n      swap3\n      swap2\n      swap1\n      dup2\n      dup2\n      mstore\n      0x20\n      add\n      dup3\n      dup1\n      sload\n      tag_137\n      swap1\n      tag_131\n      jump\t// in\n    tag_137:\n      dup1\n      iszero\n      tag_138\n      jumpi\n      dup1\n      0x1f\n      lt\n      tag_139\n      jumpi\n      0x0100\n      dup1\n      dup4\n      sload\n      div\n      mul\n      dup4\n      mstore\n      swap2\n      0x20\n      add\n      swap2\n      jump(tag_138)\n    tag_139:\n      dup3\n      add\n      swap2\n      swap1\n      0x00\n      mstore\n      keccak256(0x00, 0x20)\n      swap1\n    tag_140:\n      dup2\n      sload\n      dup2\n      mstore\n      swap1\n      0x01\n      add\n      swap1\n      0x20\n      add\n      dup1\n      dup4\n      gt\n      tag_140\n      jumpi\n      dup3\n      swap1\n      sub\n      0x1f\n      and\n      dup3\n      add\n      swap2\n    tag_138:\n      pop\n      pop\n      pop\n      pop\n      pop\n      dup2\n      mstore\n      0x20\n      add\n      0x07\n      dup3\n      add\n      dup1\n      sload\n      tag_141\n      swap1\n      tag_131\n      jump\t// in\n    tag_141:\n      dup1\n      0x1f\n      add\n      0x20\n      dup1\n      swap2\n      div\n      mul\n      0x20\n      add\n      mload(0x40)\n      swap1\n      dup2\n      add\n      0x40\n      mstore\n      dup1\n      swap3\n      swap2\n      swap1\n      dup2\n      dup2\n      mstore\n      0x20\n      add\n      dup3\n      dup1\n      sload\n      tag_142\n      swap1\n      tag_131\n      jump\t// in\n    tag_142:\n      dup1\n      iszero\n      tag_143\n      jumpi\n      dup1\n      0x1f\n      lt\n      tag_144\n      jumpi\n      0x0100\n      dup1\n      dup4\n      sload\n      div\n      mul\n      dup4\n      mstore\n      swap2\n      0x20\n      add\n      swap2\n      jump(tag_143)\n    tag_144:\n      dup3\n      add\n      swap2\n      swap1\n      0x00\n      mstore\n      keccak256(0x00, 0x20)\n      swap1\n    tag_145:\n      dup2\n      sload\n      dup2\n      mstore\n      swap1\n      0x01\n      add\n      swap1\n      0x20\n      add\n      dup1\n      dup4\n      gt\n      tag_145\n      jumpi\n      dup3\n      swap1\n      sub\n      0x1f\n      and\n      dup3\n      add\n      swap2\n    tag_143:\n      pop\n      pop\n      pop\n      pop\n      pop\n      dup2\n      mstore\n      pop\n      pop\n      swap1\n      pop\n        /* \"contracts/TesouroDiretoMarket.sol\":4833:4978  function getTransaction(uint256 _transactionId) external view returns (Transaction memory) {... */\n      swap2\n      swap1\n      pop\n      jump\t// out\n        /* \"@openzeppelin/contracts/access/AccessControl.sol\":5328:5573  function renounceRole(bytes32 role, address callerConfirmation) public virtual {... */\n    tag_55:\n      sub(shl(0xa0, 0x01), 0x01)\n        /* \"@openzeppelin/contracts/access/AccessControl.sol\":5421:5455  callerConfirmation != _msgSender() */\n      dup2\n      and\n        /* \"@openzeppelin/contracts/utils/Context.sol\":735:745  msg.sender */\n      caller\n        /* \"@openzeppelin/contracts/access/AccessControl.sol\":5421:5455  callerConfirmation != _msgSender() */\n      eq\n        /* \"@openzeppelin/contracts/access/AccessControl.sol\":5417:5519  if (callerConfirmation != _msgSender()) {... */\n      tag_149\n      jumpi\n        /* \"@openzeppelin/contracts/access/AccessControl.sol\":5478:5508  AccessControlBadConfirmation() */\n      mload(0x40)\n      shl(0xe1, 0x334bd919)\n      dup2\n      mstore\n      0x04\n      add\n      mload(0x40)\n      dup1\n      swap2\n      sub\n      swap1\n      revert\n        /* \"@openzeppelin/contracts/access/AccessControl.sol\":5417:5519  if (callerConfirmation != _msgSender()) {... */\n    tag_149:\n        /* \"@openzeppelin/contracts/access/AccessControl.sol\":5529:5566  _revokeRole(role, callerConfirmation) */\n      tag_150\n        /* \"@openzeppelin/contracts/access/AccessControl.sol\":5541:5545  role */\n      dup3\n        /* \"@openzeppelin/contracts/access/AccessControl.sol\":5547:5565  callerConfirmation */\n      dup3\n        /* \"@openzeppelin/contracts/access/AccessControl.sol\":5529:5540  _revokeRole */\n      tag_151\n        /* \"@openzeppelin/contracts/access/AccessControl.sol\":5529:5566  _revokeRole(role, callerConfirmation) */\n      jump\t// in\n    tag_150:\n      pop\n        /* \"@openzeppelin/contracts/access/AccessControl.sol\":5328:5573  function renounceRole(bytes32 role, address callerConfirmation) public virtual {... */\n      pop\n      pop\n      jump\t// out\n        /* \"contracts/AccessControl.sol\":1103:1224  function removeRegulator(address _regulator) external onlyAdmin {... */\n    tag_58:\n        /* \"contracts/AccessControl.sol\":357:388  hasRole(ADMIN_ROLE, msg.sender) */\n      tag_153\n      0x00\n      dup1\n      mload\n      0x20\n      data_cb864c43dd5d441bb6271f424f11befa622c032dfd374d226e26fbbdb782b8f8\n      dup4\n      codecopy\n      dup2\n      mload\n      swap2\n      mstore\n        /* \"contracts/AccessControl.sol\":377:387  msg.sender */\n      caller\n        /* \"contracts/AccessControl.sol\":357:364  hasRole */\n      tag_79\n        /* \"contracts/AccessControl.sol\":357:388  hasRole(ADMIN_ROLE, msg.sender) */\n      jump\t// in\n    tag_153:\n        /* \"contracts/AccessControl.sol\":349:413  require(hasRole(ADMIN_ROLE, msg.sender), \"Must have admin role\") */\n      tag_154\n      jumpi\n      mload(0x40)\n      shl(0xe5, 0x461bcd)\n      dup2\n      mstore\n      0x04\n      add\n      tag_115\n      swap1\n      tag_116\n      jump\t// in\n    tag_154:\n        /* \"contracts/AccessControl.sol\":1178:1216  revokeRole(REGULATOR_ROLE, _regulator) */\n      tag_118\n      0x00\n      dup1\n      mload\n      0x20\n      data_9c197ab64675a520bf3233aead5e60d73572922e84bf54bfd7e89534eb4c0ba4\n      dup4\n      codecopy\n      dup2\n      mload\n      swap2\n      mstore\n        /* \"contracts/AccessControl.sol\":1205:1215  _regulator */\n      dup3\n        /* \"contracts/AccessControl.sol\":1178:1188  revokeRole */\n      tag_107\n        /* \"contracts/AccessControl.sol\":1178:1216  revokeRole(REGULATOR_ROLE, _regulator) */\n      jump\t// in\n        /* \"contracts/TesouroDiretoMarket.sol\":4986:5112  function getUserTransactions() external view returns (uint256[] memory) {... */\n    tag_60:\n        /* \"contracts/TesouroDiretoMarket.sol\":5093:5103  msg.sender */\n      caller\n        /* \"contracts/TesouroDiretoMarket.sol\":5076:5104  userTransactions[msg.sender] */\n      0x00\n      swap1\n      dup2\n      mstore\n        /* \"contracts/TesouroDiretoMarket.sol\":5076:5092  userTransactions */\n      0x0a\n        /* \"contracts/TesouroDiretoMarket.sol\":5076:5104  userTransactions[msg.sender] */\n      0x20\n      swap1\n      dup2\n      mstore\n      0x40\n      swap2\n      dup3\n      swap1\n      keccak256\n        /* \"contracts/TesouroDiretoMarket.sol\":5069:5104  return userTransactions[msg.sender] */\n      dup1\n      sload\n      dup4\n      mload\n      dup2\n      dup5\n      mul\n      dup2\n      add\n      dup5\n      add\n      swap1\n      swap5\n      mstore\n      dup1\n      dup5\n      mstore\n        /* \"contracts/TesouroDiretoMarket.sol\":5040:5056  uint256[] memory */\n      0x60\n      swap4\n        /* \"contracts/TesouroDiretoMarket.sol\":5069:5104  return userTransactions[msg.sender] */\n      swap3\n      dup4\n      add\n        /* \"contracts/TesouroDiretoMarket.sol\":5076:5104  userTransactions[msg.sender] */\n      dup3\n        /* \"contracts/TesouroDiretoMarket.sol\":5069:5104  return userTransactions[msg.sender] */\n      dup3\n      dup1\n      iszero\n      tag_159\n      jumpi\n      0x20\n      mul\n      dup3\n      add\n      swap2\n      swap1\n      0x00\n      mstore\n      keccak256(0x00, 0x20)\n      swap1\n    tag_160:\n      dup2\n      sload\n      dup2\n      mstore\n      0x20\n      add\n      swap1\n      0x01\n      add\n      swap1\n      dup1\n      dup4\n      gt\n      tag_160\n      jumpi\n    tag_159:\n      pop\n      pop\n      pop\n      pop\n      pop\n      swap1\n      pop\n        /* \"contracts/TesouroDiretoMarket.sol\":4986:5112  function getUserTransactions() external view returns (uint256[] memory) {... */\n      swap1\n      jump\t// out\n        /* \"contracts/AccessControl.sol\":754:856  function addAdmin(address _admin) external onlyAdmin {... */\n    tag_65:\n        /* \"contracts/AccessControl.sol\":357:388  hasRole(ADMIN_ROLE, msg.sender) */\n      tag_162\n      0x00\n      dup1\n      mload\n      0x20\n      data_cb864c43dd5d441bb6271f424f11befa622c032dfd374d226e26fbbdb782b8f8\n      dup4\n      codecopy\n      dup2\n      mload\n      swap2\n      mstore\n        /* \"contracts/AccessControl.sol\":377:387  msg.sender */\n      caller\n        /* \"contracts/AccessControl.sol\":357:364  hasRole */\n      tag_79\n        /* \"contracts/AccessControl.sol\":357:388  hasRole(ADMIN_ROLE, msg.sender) */\n      jump\t// in\n    tag_162:\n        /* \"contracts/AccessControl.sol\":349:413  require(hasRole(ADMIN_ROLE, msg.sender), \"Must have admin role\") */\n      tag_163\n      jumpi\n      mload(0x40)\n      shl(0xe5, 0x461bcd)\n      dup2\n      mstore\n      0x04\n      add\n      tag_115\n      swap1\n      tag_116\n      jump\t// in\n    tag_163:\n        /* \"contracts/AccessControl.sol\":818:848  _grantRole(ADMIN_ROLE, _admin) */\n      tag_166\n      0x00\n      dup1\n      mload\n      0x20\n      data_cb864c43dd5d441bb6271f424f11befa622c032dfd374d226e26fbbdb782b8f8\n      dup4\n      codecopy\n      dup2\n      mload\n      swap2\n      mstore\n        /* \"contracts/AccessControl.sol\":841:847  _admin */\n      dup3\n        /* \"contracts/AccessControl.sol\":818:828  _grantRole */\n      tag_126\n        /* \"contracts/AccessControl.sol\":818:848  _grantRole(ADMIN_ROLE, _admin) */\n      jump\t// in\n    tag_166:\n      pop\n        /* \"contracts/AccessControl.sol\":754:856  function addAdmin(address _admin) external onlyAdmin {... */\n      pop\n      jump\t// out\n        /* \"contracts/TesouroDiretoMarket.sol\":2931:4825  function createTransaction(... */\n    tag_72:\n        /* \"contracts/TesouroDiretoMarket.sol\":3151:3152  0 */\n      0x00\n        /* \"contracts/TesouroDiretoMarket.sol\":3141:3148  _amount */\n      dup5\n        /* \"contracts/TesouroDiretoMarket.sol\":3141:3152  _amount > 0 */\n      gt\n        /* \"contracts/TesouroDiretoMarket.sol\":3133:3183  require(_amount > 0, \"Invalid transaction amount\") */\n      tag_168\n      jumpi\n      mload(0x40)\n      shl(0xe5, 0x461bcd)\n      dup2\n      mstore\n      0x04\n      add\n      tag_115\n      swap1\n      tag_170\n      jump\t// in\n    tag_168:\n        /* \"contracts/TesouroDiretoMarket.sol\":3313:3323  1000 ether */\n      0x3635c9adc5dea00000\n        /* \"contracts/TesouroDiretoMarket.sol\":3302:3309  _amount */\n      dup5\n        /* \"contracts/TesouroDiretoMarket.sol\":3302:3323  _amount <= 1000 ether */\n      gt\n      iszero\n        /* \"contracts/TesouroDiretoMarket.sol\":3294:3354  require(_amount <= 1000 ether, \"Invalid transaction amount\") */\n      tag_171\n      jumpi\n      mload(0x40)\n      shl(0xe5, 0x461bcd)\n      dup2\n      mstore\n      0x04\n      add\n      tag_115\n      swap1\n      tag_170\n      jump\t// in\n    tag_171:\n        /* \"contracts/TesouroDiretoMarket.sol\":3367:3384  bytes32 buyerHash */\n      0x00\n        /* \"contracts/TesouroDiretoMarket.sol\":3387:3430  hashIdentifier(msg.sender, block.timestamp) */\n      tag_173\n        /* \"contracts/TesouroDiretoMarket.sol\":3402:3412  msg.sender */\n      caller\n        /* \"contracts/TesouroDiretoMarket.sol\":3414:3429  block.timestamp */\n      timestamp\n        /* \"contracts/TesouroDiretoMarket.sol\":3387:3401  hashIdentifier */\n      tag_174\n        /* \"contracts/TesouroDiretoMarket.sol\":3387:3430  hashIdentifier(msg.sender, block.timestamp) */\n      jump\t// in\n    tag_173:\n        /* \"contracts/TesouroDiretoMarket.sol\":3367:3430  bytes32 buyerHash = hashIdentifier(msg.sender, block.timestamp) */\n      swap1\n      pop\n        /* \"contracts/TesouroDiretoMarket.sol\":3441:3459  bytes32 sellerHash */\n      0x00\n        /* \"contracts/TesouroDiretoMarket.sol\":3462:3509  hashIdentifier(msg.sender, block.timestamp + 1) */\n      tag_175\n        /* \"contracts/TesouroDiretoMarket.sol\":3477:3487  msg.sender */\n      caller\n        /* \"contracts/TesouroDiretoMarket.sol\":3489:3508  block.timestamp + 1 */\n      tag_176\n        /* \"contracts/TesouroDiretoMarket.sol\":3489:3504  block.timestamp */\n      timestamp\n        /* \"contracts/TesouroDiretoMarket.sol\":3507:3508  1 */\n      0x01\n        /* \"contracts/TesouroDiretoMarket.sol\":3489:3508  block.timestamp + 1 */\n      tag_177\n      jump\t// in\n    tag_176:\n        /* \"contracts/TesouroDiretoMarket.sol\":3462:3476  hashIdentifier */\n      tag_174\n        /* \"contracts/TesouroDiretoMarket.sol\":3462:3509  hashIdentifier(msg.sender, block.timestamp + 1) */\n      jump\t// in\n    tag_175:\n        /* \"contracts/TesouroDiretoMarket.sol\":3555:3886  Transaction({... */\n      0x40\n      dup1\n      mload\n      0x0100\n      dup2\n      add\n      dup3\n      mstore\n      dup5\n      dup2\n      mstore\n      0x20\n      dup1\n      dup3\n      add\n      dup5\n      dup2\n      mstore\n      dup3\n      dup5\n      add\n      dup12\n      dup2\n      mstore\n        /* \"contracts/TesouroDiretoMarket.sol\":3687:3702  block.timestamp */\n      timestamp\n        /* \"contracts/TesouroDiretoMarket.sol\":3555:3886  Transaction({... */\n      0x60\n      dup6\n      add\n      swap1\n      dup2\n      mstore\n      0x00\n      0x80\n      dup7\n      add\n      dup2\n      dup2\n      mstore\n      0xa0\n      dup8\n      add\n      dup15\n      dup2\n      mstore\n      0xc0\n      dup9\n      add\n      dup15\n      swap1\n      mstore\n      0xe0\n      dup9\n      add\n      dup14\n      swap1\n      mstore\n        /* \"contracts/TesouroDiretoMarket.sol\":3535:3551  transactionCount */\n      sload(0x08)\n        /* \"contracts/TesouroDiretoMarket.sol\":3522:3552  transactions[transactionCount] */\n      dup4\n      mstore\n        /* \"contracts/TesouroDiretoMarket.sol\":3522:3534  transactions */\n      0x09\n        /* \"contracts/TesouroDiretoMarket.sol\":3522:3552  transactions[transactionCount] */\n      swap1\n      swap7\n      mstore\n      swap7\n      swap1\n      keccak256\n        /* \"contracts/TesouroDiretoMarket.sol\":3522:3886  transactions[transactionCount] = Transaction({... */\n      dup6\n      mload\n      dup2\n      sstore\n      swap3\n      mload\n        /* \"contracts/TesouroDiretoMarket.sol\":3555:3886  Transaction({... */\n      0x01\n        /* \"contracts/TesouroDiretoMarket.sol\":3522:3886  transactions[transactionCount] = Transaction({... */\n      dup5\n      add\n      sstore\n      swap1\n      mload\n      0x02\n      dup4\n      add\n      sstore\n      mload\n      0x03\n      dup3\n      add\n      sstore\n      swap3\n      mload\n      0x04\n      dup5\n      add\n      dup1\n      sload\n      not(0xff)\n      and\n      swap2\n      iszero\n      iszero\n      swap2\n      swap1\n      swap2\n      or\n      swap1\n      sstore\n      mload\n        /* \"contracts/TesouroDiretoMarket.sol\":3555:3886  Transaction({... */\n      swap3\n      swap4\n      pop\n      swap2\n        /* \"contracts/TesouroDiretoMarket.sol\":3522:3886  transactions[transactionCount] = Transaction({... */\n      0x05\n      dup3\n      add\n      swap1\n      tag_178\n      swap1\n      dup3\n      tag_179\n      jump\t// in\n    tag_178:\n      pop\n      0xc0\n      dup3\n      add\n      mload\n      0x06\n      dup3\n      add\n      swap1\n      tag_180\n      swap1\n      dup3\n      tag_179\n      jump\t// in\n    tag_180:\n      pop\n      0xe0\n      dup3\n      add\n      mload\n      0x07\n      dup3\n      add\n      swap1\n      tag_181\n      swap1\n      dup3\n      tag_179\n      jump\t// in\n    tag_181:\n      pop\n      pop\n        /* \"contracts/TesouroDiretoMarket.sol\":4028:4044  transactionCount */\n      sload(0x08)\n        /* \"contracts/TesouroDiretoMarket.sol\":4015:4045  transactions[transactionCount] */\n      0x00\n      dup2\n      dup2\n      mstore\n        /* \"contracts/TesouroDiretoMarket.sol\":4015:4027  transactions */\n      0x09\n        /* \"contracts/TesouroDiretoMarket.sol\":4015:4045  transactions[transactionCount] */\n      0x20\n      mstore\n      0x40\n      dup1\n      dup3\n      keccak256\n        /* \"contracts/TesouroDiretoMarket.sol\":4015:4052  transactions[transactionCount].seller */\n      0x01\n      dup2\n      add\n      sload\n        /* \"contracts/TesouroDiretoMarket.sol\":3964:4000  transactions[transactionCount].buyer */\n      dup2\n      sload\n        /* \"contracts/TesouroDiretoMarket.sol\":4067:4104  transactions[transactionCount].amount */\n      0x02\n      dup4\n      add\n      sload\n        /* \"contracts/TesouroDiretoMarket.sol\":4119:4159  transactions[transactionCount].timestamp */\n      0x03\n      swap1\n      swap4\n      add\n      sload\n        /* \"contracts/TesouroDiretoMarket.sol\":3904:4190  NewTransaction(... */\n      swap4\n      mload\n        /* \"contracts/TesouroDiretoMarket.sol\":4015:4052  transactions[transactionCount].seller */\n      swap2\n      swap7\n      pop\n        /* \"contracts/TesouroDiretoMarket.sol\":3964:4000  transactions[transactionCount].buyer */\n      swap5\n      0x00\n      dup1\n      mload\n      0x20\n      data_b1eeacb7015d5eea6ab68ae83406044e6eeb68c881f609b5930d7679bbeacf11\n      dup4\n      codecopy\n      dup2\n      mload\n      swap2\n      mstore\n        /* \"contracts/TesouroDiretoMarket.sol\":3904:4190  NewTransaction(... */\n      swap5\n      tag_182\n      swap5\n        /* \"contracts/TesouroDiretoMarket.sol\":4028:4044  transactionCount */\n      swap2\n      swap4\n        /* \"contracts/TesouroDiretoMarket.sol\":4067:4104  transactions[transactionCount].amount */\n      swap3\n        /* \"contracts/TesouroDiretoMarket.sol\":3904:4190  NewTransaction(... */\n      tag_183\n      jump\t// in\n    tag_182:\n      mload(0x40)\n      dup1\n      swap2\n      sub\n      swap1\n      log3\n        /* \"contracts/TesouroDiretoMarket.sol\":4320:4346  verifyTransaction(_amount) */\n      tag_184\n        /* \"contracts/TesouroDiretoMarket.sol\":4338:4345  _amount */\n      dup7\n        /* \"contracts/Chainlink.sol\":527:536  500 ether */\n      0x1b1ae4d6e2ef500000\n      lt\n        /* \"contracts/Chainlink.sol\":517:536  _amount > 500 ether */\n      swap1\n        /* \"contracts/Chainlink.sol\":172:544  function verifyTransaction(uint256 _amount) internal view returns (bool) {... */\n      jump\n        /* \"contracts/TesouroDiretoMarket.sol\":4320:4346  verifyTransaction(_amount) */\n    tag_184:\n        /* \"contracts/TesouroDiretoMarket.sol\":4312:4382  require(verifyTransaction(_amount), \"Transaction verification failed\") */\n      tag_186\n      jumpi\n      mload(0x40)\n      shl(0xe5, 0x461bcd)\n      dup2\n      mstore\n      0x04\n      add\n      tag_115\n      swap1\n      tag_188\n      jump\t// in\n    tag_186:\n        /* \"contracts/TesouroDiretoMarket.sol\":4492:4508  transactionCount */\n      sload(0x08)\n        /* \"contracts/TesouroDiretoMarket.sol\":4459:4535  TransactionReportedToCentralBank(transactionCount, block.timestamp, _amount) */\n      0x40\n      dup1\n      mload\n        /* \"contracts/TesouroDiretoMarket.sol\":4510:4525  block.timestamp */\n      timestamp\n        /* \"#utility.yul\":12087:12112   */\n      dup2\n      mstore\n        /* \"#utility.yul\":12143:12145   */\n      0x20\n        /* \"#utility.yul\":12128:12146   */\n      dup2\n      add\n        /* \"#utility.yul\":12121:12155   */\n      dup10\n      swap1\n      mstore\n      0x00\n      dup1\n      mload\n      0x20\n      data_c15a3b9117c1bb56d150de62cffd0fca376190faa4f51f73e3cfa82caeef2cb5\n      dup4\n      codecopy\n      dup2\n      mload\n      swap2\n      mstore\n        /* \"contracts/TesouroDiretoMarket.sol\":4459:4535  TransactionReportedToCentralBank(transactionCount, block.timestamp, _amount) */\n      swap2\n        /* \"#utility.yul\":12060:12078   */\n      add\n        /* \"contracts/TesouroDiretoMarket.sol\":4459:4535  TransactionReportedToCentralBank(transactionCount, block.timestamp, _amount) */\n      mload(0x40)\n      dup1\n      swap2\n      sub\n      swap1\n      log2\n        /* \"contracts/TesouroDiretoMarket.sol\":4622:4632  msg.sender */\n      caller\n        /* \"contracts/TesouroDiretoMarket.sol\":4605:4633  userTransactions[msg.sender] */\n      0x00\n      swap1\n      dup2\n      mstore\n        /* \"contracts/TesouroDiretoMarket.sol\":4605:4621  userTransactions */\n      0x0a\n        /* \"contracts/TesouroDiretoMarket.sol\":4605:4633  userTransactions[msg.sender] */\n      0x20\n      swap1\n      dup2\n      mstore\n      0x40\n      dup3\n      keccak256\n        /* \"contracts/TesouroDiretoMarket.sol\":4639:4655  transactionCount */\n      0x08\n      dup1\n      sload\n        /* \"contracts/TesouroDiretoMarket.sol\":4605:4656  userTransactions[msg.sender].push(transactionCount) */\n      dup3\n      sload\n      0x01\n      dup1\n      dup3\n      add\n      dup6\n      sstore\n      dup5\n      dup8\n      mstore\n      swap5\n      dup7\n      keccak256\n      swap1\n      dup2\n      add\n      swap2\n      swap1\n      swap2\n      sstore\n        /* \"contracts/TesouroDiretoMarket.sol\":4701:4717  transactionCount */\n      dup2\n      sload\n        /* \"contracts/TesouroDiretoMarket.sol\":4667:4718  userTransactions[msg.sender].push(transactionCount) */\n      dup4\n      sload\n      swap5\n      dup6\n      add\n      swap1\n      swap4\n      sstore\n      swap3\n      swap1\n      swap3\n      add\n      sstore\n        /* \"contracts/TesouroDiretoMarket.sol\":4799:4817  transactionCount++ */\n      dup1\n      sload\n      swap2\n      tag_193\n      dup4\n      tag_194\n      jump\t// in\n    tag_193:\n      swap2\n      swap1\n      pop\n      sstore\n      pop\n        /* \"contracts/TesouroDiretoMarket.sol\":3122:4825  {... */\n      pop\n      pop\n        /* \"contracts/TesouroDiretoMarket.sol\":2931:4825  function createTransaction(... */\n      pop\n      pop\n      pop\n      pop\n      jump\t// out\n        /* \"@openzeppelin/contracts/access/AccessControl.sol\":2854:2990  function hasRole(bytes32 role, address account) public view virtual returns (bool) {... */\n    tag_79:\n        /* \"@openzeppelin/contracts/access/AccessControl.sol\":2931:2935  bool */\n      0x00\n        /* \"@openzeppelin/contracts/access/AccessControl.sol\":2954:2966  _roles[role] */\n      swap2\n      dup3\n      mstore\n      0x20\n      dup3\n      dup2\n      mstore\n      0x40\n      dup1\n      dup5\n      keccak256\n      sub(shl(0xa0, 0x01), 0x01)\n        /* \"@openzeppelin/contracts/access/AccessControl.sol\":2954:2983  _roles[role].hasRole[account] */\n      swap4\n      swap1\n      swap4\n      and\n      dup5\n      mstore\n      swap2\n      swap1\n      mstore\n      swap1\n      keccak256\n      sload\n      0xff\n      and\n      swap1\n        /* \"@openzeppelin/contracts/access/AccessControl.sol\":2854:2990  function hasRole(bytes32 role, address account) public view virtual returns (bool) {... */\n      jump\t// out\n        /* \"contracts/TesouroDiretoMarket.sol\":1223:2923  function requestTransactionVerification(uint256 _amount, string memory _description) external onlyRegulator {... */\n    tag_84:\n        /* \"contracts/AccessControl.sol\":485:520  hasRole(REGULATOR_ROLE, msg.sender) */\n      tag_197\n      0x00\n      dup1\n      mload\n      0x20\n      data_9c197ab64675a520bf3233aead5e60d73572922e84bf54bfd7e89534eb4c0ba4\n      dup4\n      codecopy\n      dup2\n      mload\n      swap2\n      mstore\n        /* \"contracts/AccessControl.sol\":509:519  msg.sender */\n      caller\n        /* \"contracts/AccessControl.sol\":485:492  hasRole */\n      tag_79\n        /* \"contracts/AccessControl.sol\":485:520  hasRole(REGULATOR_ROLE, msg.sender) */\n      jump\t// in\n    tag_197:\n        /* \"contracts/AccessControl.sol\":477:549  require(hasRole(REGULATOR_ROLE, msg.sender), \"Must have regulator role\") */\n      tag_198\n      jumpi\n      mload(0x40)\n      shl(0xe5, 0x461bcd)\n      dup2\n      mstore\n        /* \"#utility.yul\":12508:12510   */\n      0x20\n        /* \"contracts/AccessControl.sol\":477:549  require(hasRole(REGULATOR_ROLE, msg.sender), \"Must have regulator role\") */\n      0x04\n      dup3\n      add\n        /* \"#utility.yul\":12490:12511   */\n      mstore\n        /* \"#utility.yul\":12547:12549   */\n      0x18\n        /* \"#utility.yul\":12527:12545   */\n      0x24\n      dup3\n      add\n        /* \"#utility.yul\":12520:12550   */\n      mstore\n      shl(0x40, 0x4d757374206861766520726567756c61746f7220726f6c65)\n        /* \"#utility.yul\":12566:12584   */\n      0x44\n      dup3\n      add\n        /* \"#utility.yul\":12559:12613   */\n      mstore\n        /* \"#utility.yul\":12630:12648   */\n      0x64\n      add\n        /* \"contracts/AccessControl.sol\":477:549  require(hasRole(REGULATOR_ROLE, msg.sender), \"Must have regulator role\") */\n      tag_115\n        /* \"#utility.yul\":12306:12654   */\n      jump\n        /* \"contracts/AccessControl.sol\":477:549  require(hasRole(REGULATOR_ROLE, msg.sender), \"Must have regulator role\") */\n    tag_198:\n        /* \"contracts/TesouroDiretoMarket.sol\":1444:1454  1000 ether */\n      0x3635c9adc5dea00000\n        /* \"contracts/TesouroDiretoMarket.sol\":1433:1440  _amount */\n      dup3\n        /* \"contracts/TesouroDiretoMarket.sol\":1433:1454  _amount <= 1000 ether */\n      gt\n      iszero\n        /* \"contracts/TesouroDiretoMarket.sol\":1425:1485  require(_amount <= 1000 ether, \"Invalid transaction amount\") */\n      tag_202\n      jumpi\n      mload(0x40)\n      shl(0xe5, 0x461bcd)\n      dup2\n      mstore\n      0x04\n      add\n      tag_115\n      swap1\n      tag_170\n      jump\t// in\n    tag_202:\n        /* \"contracts/TesouroDiretoMarket.sol\":1615:1641  verifyTransaction(_amount) */\n      tag_204\n        /* \"contracts/TesouroDiretoMarket.sol\":1633:1640  _amount */\n      dup3\n        /* \"contracts/Chainlink.sol\":527:536  500 ether */\n      0x1b1ae4d6e2ef500000\n      lt\n        /* \"contracts/Chainlink.sol\":517:536  _amount > 500 ether */\n      swap1\n        /* \"contracts/Chainlink.sol\":172:544  function verifyTransaction(uint256 _amount) internal view returns (bool) {... */\n      jump\n        /* \"contracts/TesouroDiretoMarket.sol\":1615:1641  verifyTransaction(_amount) */\n    tag_204:\n        /* \"contracts/TesouroDiretoMarket.sol\":1607:1677  require(verifyTransaction(_amount), \"Transaction verification failed\") */\n      tag_205\n      jumpi\n      mload(0x40)\n      shl(0xe5, 0x461bcd)\n      dup2\n      mstore\n      0x04\n      add\n      tag_115\n      swap1\n      tag_188\n      jump\t// in\n    tag_205:\n        /* \"contracts/TesouroDiretoMarket.sol\":1690:1707  bytes32 buyerHash */\n      0x00\n        /* \"contracts/TesouroDiretoMarket.sol\":1710:1753  hashIdentifier(msg.sender, block.timestamp) */\n      tag_207\n        /* \"contracts/TesouroDiretoMarket.sol\":1725:1735  msg.sender */\n      caller\n        /* \"contracts/TesouroDiretoMarket.sol\":1737:1752  block.timestamp */\n      timestamp\n        /* \"contracts/TesouroDiretoMarket.sol\":1710:1724  hashIdentifier */\n      tag_174\n        /* \"contracts/TesouroDiretoMarket.sol\":1710:1753  hashIdentifier(msg.sender, block.timestamp) */\n      jump\t// in\n    tag_207:\n        /* \"contracts/TesouroDiretoMarket.sol\":1690:1753  bytes32 buyerHash = hashIdentifier(msg.sender, block.timestamp) */\n      swap1\n      pop\n        /* \"contracts/TesouroDiretoMarket.sol\":1764:1782  bytes32 sellerHash */\n      0x00\n        /* \"contracts/TesouroDiretoMarket.sol\":1785:1832  hashIdentifier(msg.sender, block.timestamp + 1) */\n      tag_208\n        /* \"contracts/TesouroDiretoMarket.sol\":1800:1810  msg.sender */\n      caller\n        /* \"contracts/TesouroDiretoMarket.sol\":1812:1831  block.timestamp + 1 */\n      tag_176\n        /* \"contracts/TesouroDiretoMarket.sol\":1812:1827  block.timestamp */\n      timestamp\n        /* \"contracts/TesouroDiretoMarket.sol\":1830:1831  1 */\n      0x01\n        /* \"contracts/TesouroDiretoMarket.sol\":1812:1831  block.timestamp + 1 */\n      tag_177\n      jump\t// in\n        /* \"contracts/TesouroDiretoMarket.sol\":1785:1832  hashIdentifier(msg.sender, block.timestamp + 1) */\n    tag_208:\n        /* \"contracts/TesouroDiretoMarket.sol\":1878:2177  Transaction({... */\n      0x40\n      dup1\n      mload\n      0x0100\n      dup2\n      add\n      dup3\n      mstore\n      dup5\n      dup2\n      mstore\n      0x20\n      dup1\n      dup3\n      add\n      dup5\n      dup2\n      mstore\n      dup3\n      dup5\n      add\n      dup10\n      dup2\n      mstore\n        /* \"contracts/TesouroDiretoMarket.sol\":2010:2025  block.timestamp */\n      timestamp\n        /* \"contracts/TesouroDiretoMarket.sol\":1878:2177  Transaction({... */\n      0x60\n      dup6\n      add\n      swap1\n      dup2\n      mstore\n        /* \"contracts/TesouroDiretoMarket.sol\":2050:2054  true */\n      0x01\n        /* \"contracts/TesouroDiretoMarket.sol\":1878:2177  Transaction({... */\n      0x80\n      dup7\n      add\n      dup2\n      dup2\n      mstore\n      dup8\n      mload\n      dup1\n      dup8\n      add\n      dup10\n      mstore\n      0x00\n      dup1\n      dup3\n      mstore\n      0xa0\n      dup10\n      add\n      swap2\n      dup3\n      mstore\n      dup10\n      mload\n      dup1\n      dup10\n      add\n      dup12\n      mstore\n      dup2\n      dup2\n      mstore\n      0xc0\n      dup11\n      add\n      mstore\n      0xe0\n      dup10\n      add\n      dup15\n      swap1\n      mstore\n        /* \"contracts/TesouroDiretoMarket.sol\":1858:1874  transactionCount */\n      sload(0x08)\n        /* \"contracts/TesouroDiretoMarket.sol\":1845:1875  transactions[transactionCount] */\n      dup2\n      mstore\n        /* \"contracts/TesouroDiretoMarket.sol\":1845:1857  transactions */\n      0x09\n        /* \"contracts/TesouroDiretoMarket.sol\":1845:1875  transactions[transactionCount] */\n      swap1\n      swap8\n      mstore\n      swap8\n      swap1\n      swap6\n      keccak256\n        /* \"contracts/TesouroDiretoMarket.sol\":1845:2177  transactions[transactionCount] = Transaction({... */\n      dup7\n      mload\n      dup2\n      sstore\n      swap4\n      mload\n      swap1\n      dup5\n      add\n      sstore\n      swap1\n      mload\n      0x02\n      dup4\n      add\n      sstore\n      mload\n      0x03\n      dup3\n      add\n      sstore\n      swap1\n      mload\n      0x04\n      dup3\n      add\n      dup1\n      sload\n      not(0xff)\n      and\n      swap2\n      iszero\n      iszero\n      swap2\n      swap1\n      swap2\n      or\n      swap1\n      sstore\n      swap2\n      mload\n        /* \"contracts/TesouroDiretoMarket.sol\":1878:2177  Transaction({... */\n      swap3\n      swap4\n      pop\n      swap2\n        /* \"contracts/TesouroDiretoMarket.sol\":1845:2177  transactions[transactionCount] = Transaction({... */\n      0x05\n      dup3\n      add\n      swap1\n      tag_210\n      swap1\n      dup3\n      tag_179\n      jump\t// in\n    tag_210:\n      pop\n      0xc0\n      dup3\n      add\n      mload\n      0x06\n      dup3\n      add\n      swap1\n      tag_211\n      swap1\n      dup3\n      tag_179\n      jump\t// in\n    tag_211:\n      pop\n      0xe0\n      dup3\n      add\n      mload\n      0x07\n      dup3\n      add\n      swap1\n      tag_212\n      swap1\n      dup3\n      tag_179\n      jump\t// in\n    tag_212:\n      pop\n      pop\n        /* \"contracts/TesouroDiretoMarket.sol\":2319:2335  transactionCount */\n      sload(0x08)\n        /* \"contracts/TesouroDiretoMarket.sol\":2306:2336  transactions[transactionCount] */\n      0x00\n      dup2\n      dup2\n      mstore\n        /* \"contracts/TesouroDiretoMarket.sol\":2306:2318  transactions */\n      0x09\n        /* \"contracts/TesouroDiretoMarket.sol\":2306:2336  transactions[transactionCount] */\n      0x20\n      mstore\n      0x40\n      swap1\n      dup2\n      swap1\n      keccak256\n        /* \"contracts/TesouroDiretoMarket.sol\":2306:2343  transactions[transactionCount].seller */\n      0x01\n      dup1\n      dup3\n      add\n      sload\n        /* \"contracts/TesouroDiretoMarket.sol\":2255:2291  transactions[transactionCount].buyer */\n      dup3\n      sload\n        /* \"contracts/TesouroDiretoMarket.sol\":2358:2395  transactions[transactionCount].amount */\n      0x02\n      dup5\n      add\n      sload\n        /* \"contracts/TesouroDiretoMarket.sol\":2410:2450  transactions[transactionCount].timestamp */\n      0x03\n      swap1\n      swap5\n      add\n      sload\n        /* \"contracts/TesouroDiretoMarket.sol\":2195:2480  NewTransaction(... */\n      swap5\n      mload\n        /* \"contracts/TesouroDiretoMarket.sol\":2306:2343  transactions[transactionCount].seller */\n      swap2\n      swap7\n      pop\n        /* \"contracts/TesouroDiretoMarket.sol\":2255:2291  transactions[transactionCount].buyer */\n      swap5\n      0x00\n      dup1\n      mload\n      0x20\n      data_b1eeacb7015d5eea6ab68ae83406044e6eeb68c881f609b5930d7679bbeacf11\n      dup4\n      codecopy\n      dup2\n      mload\n      swap2\n      mstore\n        /* \"contracts/TesouroDiretoMarket.sol\":2195:2480  NewTransaction(... */\n      swap5\n      tag_213\n      swap5\n        /* \"contracts/TesouroDiretoMarket.sol\":2319:2335  transactionCount */\n      swap2\n      swap4\n        /* \"contracts/TesouroDiretoMarket.sol\":2358:2395  transactions[transactionCount].amount */\n      swap2\n      swap3\n        /* \"contracts/TesouroDiretoMarket.sol\":2410:2450  transactions[transactionCount].timestamp */\n      swap1\n      swap2\n        /* \"contracts/TesouroDiretoMarket.sol\":2306:2343  transactions[transactionCount].seller */\n      swap1\n        /* \"contracts/TesouroDiretoMarket.sol\":2195:2480  NewTransaction(... */\n      tag_183\n      jump\t// in\n    tag_213:\n      mload(0x40)\n      dup1\n      swap2\n      sub\n      swap1\n      log3\n        /* \"contracts/TesouroDiretoMarket.sol\":2590:2606  transactionCount */\n      sload(0x08)\n        /* \"contracts/TesouroDiretoMarket.sol\":2557:2633  TransactionReportedToCentralBank(transactionCount, block.timestamp, _amount) */\n      0x40\n      dup1\n      mload\n        /* \"contracts/TesouroDiretoMarket.sol\":2608:2623  block.timestamp */\n      timestamp\n        /* \"#utility.yul\":12087:12112   */\n      dup2\n      mstore\n        /* \"#utility.yul\":12143:12145   */\n      0x20\n        /* \"#utility.yul\":12128:12146   */\n      dup2\n      add\n        /* \"#utility.yul\":12121:12155   */\n      dup8\n      swap1\n      mstore\n      0x00\n      dup1\n      mload\n      0x20\n      data_c15a3b9117c1bb56d150de62cffd0fca376190faa4f51f73e3cfa82caeef2cb5\n      dup4\n      codecopy\n      dup2\n      mload\n      swap2\n      mstore\n        /* \"contracts/TesouroDiretoMarket.sol\":2557:2633  TransactionReportedToCentralBank(transactionCount, block.timestamp, _amount) */\n      swap2\n        /* \"#utility.yul\":12060:12078   */\n      add\n        /* \"contracts/TesouroDiretoMarket.sol\":2557:2633  TransactionReportedToCentralBank(transactionCount, block.timestamp, _amount) */\n      mload(0x40)\n      dup1\n      swap2\n      sub\n      swap1\n      log2\n        /* \"contracts/TesouroDiretoMarket.sol\":2720:2730  msg.sender */\n      caller\n        /* \"contracts/TesouroDiretoMarket.sol\":2703:2731  userTransactions[msg.sender] */\n      0x00\n      swap1\n      dup2\n      mstore\n        /* \"contracts/TesouroDiretoMarket.sol\":2703:2719  userTransactions */\n      0x0a\n        /* \"contracts/TesouroDiretoMarket.sol\":2703:2731  userTransactions[msg.sender] */\n      0x20\n      swap1\n      dup2\n      mstore\n      0x40\n      dup3\n      keccak256\n        /* \"contracts/TesouroDiretoMarket.sol\":2737:2753  transactionCount */\n      0x08\n      dup1\n      sload\n        /* \"contracts/TesouroDiretoMarket.sol\":2703:2754  userTransactions[msg.sender].push(transactionCount) */\n      dup3\n      sload\n      0x01\n      dup1\n      dup3\n      add\n      dup6\n      sstore\n      dup5\n      dup8\n      mstore\n      swap5\n      dup7\n      keccak256\n      swap1\n      dup2\n      add\n      swap2\n      swap1\n      swap2\n      sstore\n        /* \"contracts/TesouroDiretoMarket.sol\":2799:2815  transactionCount */\n      dup2\n      sload\n        /* \"contracts/TesouroDiretoMarket.sol\":2765:2816  userTransactions[msg.sender].push(transactionCount) */\n      dup4\n      sload\n      swap5\n      dup6\n      add\n      swap1\n      swap4\n      sstore\n      swap3\n      swap1\n      swap3\n      add\n      sstore\n        /* \"contracts/TesouroDiretoMarket.sol\":2897:2915  transactionCount++ */\n      dup1\n      sload\n      swap2\n      tag_217\n      dup4\n      tag_194\n      jump\t// in\n    tag_217:\n      swap2\n      swap1\n      pop\n      sstore\n      pop\n        /* \"contracts/TesouroDiretoMarket.sol\":1331:2923  {... */\n      pop\n      pop\n        /* \"contracts/TesouroDiretoMarket.sol\":1223:2923  function requestTransactionVerification(uint256 _amount, string memory _description) external onlyRegulator {... */\n      pop\n      pop\n      jump\t// out\n        /* \"contracts/TesouroDiretoMarket.sol\":297:348  mapping(uint256 => Transaction) public transactions */\n    tag_87:\n      mstore(0x20, 0x09)\n      0x00\n      swap1\n      dup2\n      mstore\n      0x40\n      swap1\n      keccak256\n      dup1\n      sload\n      0x01\n      dup3\n      add\n      sload\n      0x02\n      dup4\n      add\n      sload\n      0x03\n      dup5\n      add\n      sload\n      0x04\n      dup6\n      add\n      sload\n      0x05\n      dup7\n      add\n      dup1\n      sload\n      swap6\n      swap7\n      swap5\n      swap6\n      swap4\n      swap5\n      swap3\n      swap4\n      0xff\n      swap1\n      swap3\n      and\n      swap3\n      swap2\n      tag_218\n      swap1\n      tag_131\n      jump\t// in\n    tag_218:\n      dup1\n      0x1f\n      add\n      0x20\n      dup1\n      swap2\n      div\n      mul\n      0x20\n      add\n      mload(0x40)\n      swap1\n      dup2\n      add\n      0x40\n      mstore\n      dup1\n      swap3\n      swap2\n      swap1\n      dup2\n      dup2\n      mstore\n      0x20\n      add\n      dup3\n      dup1\n      sload\n      tag_219\n      swap1\n      tag_131\n      jump\t// in\n    tag_219:\n      dup1\n      iszero\n      tag_220\n      jumpi\n      dup1\n      0x1f\n      lt\n      tag_221\n      jumpi\n      0x0100\n      dup1\n      dup4\n      sload\n      div\n      mul\n      dup4\n      mstore\n      swap2\n      0x20\n      add\n      swap2\n      jump(tag_220)\n    tag_221:\n      dup3\n      add\n      swap2\n      swap1\n      0x00\n      mstore\n      keccak256(0x00, 0x20)\n      swap1\n    tag_222:\n      dup2\n      sload\n      dup2\n      mstore\n      swap1\n      0x01\n      add\n      swap1\n      0x20\n      add\n      dup1\n      dup4\n      gt\n      tag_222\n      jumpi\n      dup3\n      swap1\n      sub\n      0x1f\n      and\n      dup3\n      add\n      swap2\n    tag_220:\n      pop\n      pop\n      pop\n      pop\n      pop\n      swap1\n      dup1\n      0x06\n      add\n      dup1\n      sload\n      tag_223\n      swap1\n      tag_131\n      jump\t// in\n    tag_223:\n      dup1\n      0x1f\n      add\n      0x20\n      dup1\n      swap2\n      div\n      mul\n      0x20\n      add\n      mload(0x40)\n      swap1\n      dup2\n      add\n      0x40\n      mstore\n      dup1\n      swap3\n      swap2\n      swap1\n      dup2\n      dup2\n      mstore\n      0x20\n      add\n      dup3\n      dup1\n      sload\n      tag_224\n      swap1\n      tag_131\n      jump\t// in\n    tag_224:\n      dup1\n      iszero\n      tag_225\n      jumpi\n      dup1\n      0x1f\n      lt\n      tag_226\n      jumpi\n      0x0100\n      dup1\n      dup4\n      sload\n      div\n      mul\n      dup4\n      mstore\n      swap2\n      0x20\n      add\n      swap2\n      jump(tag_225)\n    tag_226:\n      dup3\n      add\n      swap2\n      swap1\n      0x00\n      mstore\n      keccak256(0x00, 0x20)\n      swap1\n    tag_227:\n      dup2\n      sload\n      dup2\n      mstore\n      swap1\n      0x01\n      add\n      swap1\n      0x20\n      add\n      dup1\n      dup4\n      gt\n      tag_227\n      jumpi\n      dup3\n      swap1\n      sub\n      0x1f\n      and\n      dup3\n      add\n      swap2\n    tag_225:\n      pop\n      pop\n      pop\n      pop\n      pop\n      swap1\n      dup1\n      0x07\n      add\n      dup1\n      sload\n      tag_228\n      swap1\n      tag_131\n      jump\t// in\n    tag_228:\n      dup1\n      0x1f\n      add\n      0x20\n      dup1\n      swap2\n      div\n      mul\n      0x20\n      add\n      mload(0x40)\n      swap1\n      dup2\n      add\n      0x40\n      mstore\n      dup1\n      swap3\n      swap2\n      swap1\n      dup2\n      dup2\n      mstore\n      0x20\n      add\n      dup3\n      dup1\n      sload\n      tag_229\n      swap1\n      tag_131\n      jump\t// in\n    tag_229:\n      dup1\n      iszero\n      tag_230\n      jumpi\n      dup1\n      0x1f\n      lt\n      tag_231\n      jumpi\n      0x0100\n      dup1\n      dup4\n      sload\n      div\n      mul\n      dup4\n      mstore\n      swap2\n      0x20\n      add\n      swap2\n      jump(tag_230)\n    tag_231:\n      dup3\n      add\n      swap2\n      swap1\n      0x00\n      mstore\n      keccak256(0x00, 0x20)\n      swap1\n    tag_232:\n      dup2\n      sload\n      dup2\n      mstore\n      swap1\n      0x01\n      add\n      swap1\n      0x20\n      add\n      dup1\n      dup4\n      gt\n      tag_232\n      jumpi\n      dup3\n      swap1\n      sub\n      0x1f\n      and\n      dup3\n      add\n      swap2\n    tag_230:\n      pop\n      pop\n      pop\n      pop\n      pop\n      swap1\n      pop\n      dup9\n      jump\t// out\n        /* \"contracts/AccessControl.sol\":977:1095  function addRegulator(address _regulator) external onlyAdmin {... */\n    tag_95:\n        /* \"contracts/AccessControl.sol\":357:388  hasRole(ADMIN_ROLE, msg.sender) */\n      tag_234\n      0x00\n      dup1\n      mload\n      0x20\n      data_cb864c43dd5d441bb6271f424f11befa622c032dfd374d226e26fbbdb782b8f8\n      dup4\n      codecopy\n      dup2\n      mload\n      swap2\n      mstore\n        /* \"contracts/AccessControl.sol\":377:387  msg.sender */\n      caller\n        /* \"contracts/AccessControl.sol\":357:364  hasRole */\n      tag_79\n        /* \"contracts/AccessControl.sol\":357:388  hasRole(ADMIN_ROLE, msg.sender) */\n      jump\t// in\n    tag_234:\n        /* \"contracts/AccessControl.sol\":349:413  require(hasRole(ADMIN_ROLE, msg.sender), \"Must have admin role\") */\n      tag_235\n      jumpi\n      mload(0x40)\n      shl(0xe5, 0x461bcd)\n      dup2\n      mstore\n      0x04\n      add\n      tag_115\n      swap1\n      tag_116\n      jump\t// in\n    tag_235:\n        /* \"contracts/AccessControl.sol\":1049:1087  _grantRole(REGULATOR_ROLE, _regulator) */\n      tag_166\n      0x00\n      dup1\n      mload\n      0x20\n      data_9c197ab64675a520bf3233aead5e60d73572922e84bf54bfd7e89534eb4c0ba4\n      dup4\n      codecopy\n      dup2\n      mload\n      swap2\n      mstore\n        /* \"contracts/AccessControl.sol\":1076:1086  _regulator */\n      dup3\n        /* \"contracts/AccessControl.sol\":1049:1059  _grantRole */\n      tag_126\n        /* \"contracts/AccessControl.sol\":1049:1087  _grantRole(REGULATOR_ROLE, _regulator) */\n      jump\t// in\n        /* \"contracts/TesouroDiretoMarket.sol\":355:408  mapping(address => uint256[]) public userTransactions */\n    tag_103:\n      mstore(0x20, 0x0a)\n      dup2\n      0x00\n      mstore\n      keccak256(0x00, 0x40)\n      dup2\n      dup2\n      sload\n      dup2\n      lt\n      tag_239\n      jumpi\n      0x00\n      dup1\n      revert\n    tag_239:\n      swap1\n      0x00\n      mstore\n      keccak256(0x00, 0x20)\n      add\n      0x00\n      swap2\n      pop\n      swap2\n      pop\n      pop\n      sload\n      dup2\n      jump\t// out\n        /* \"@openzeppelin/contracts/access/AccessControl.sol\":4642:4780  function revokeRole(bytes32 role, address account) public virtual onlyRole(getRoleAdmin(role)) {... */\n    tag_107:\n        /* \"@openzeppelin/contracts/access/AccessControl.sol\":4717:4735  getRoleAdmin(role) */\n      tag_241\n        /* \"@openzeppelin/contracts/access/AccessControl.sol\":4730:4734  role */\n      dup3\n        /* \"@openzeppelin/contracts/access/AccessControl.sol\":4717:4729  getRoleAdmin */\n      tag_41\n        /* \"@openzeppelin/contracts/access/AccessControl.sol\":4717:4735  getRoleAdmin(role) */\n      jump\t// in\n    tag_241:\n        /* \"@openzeppelin/contracts/access/AccessControl.sol\":2464:2480  _checkRole(role) */\n      tag_243\n        /* \"@openzeppelin/contracts/access/AccessControl.sol\":2475:2479  role */\n      dup2\n        /* \"@openzeppelin/contracts/access/AccessControl.sol\":2464:2474  _checkRole */\n      tag_123\n        /* \"@openzeppelin/contracts/access/AccessControl.sol\":2464:2480  _checkRole(role) */\n      jump\t// in\n    tag_243:\n        /* \"@openzeppelin/contracts/access/AccessControl.sol\":4747:4773  _revokeRole(role, account) */\n      tag_125\n        /* \"@openzeppelin/contracts/access/AccessControl.sol\":4759:4763  role */\n      dup4\n        /* \"@openzeppelin/contracts/access/AccessControl.sol\":4765:4772  account */\n      dup4\n        /* \"@openzeppelin/contracts/access/AccessControl.sol\":4747:4758  _revokeRole */\n      tag_151\n        /* \"@openzeppelin/contracts/access/AccessControl.sol\":4747:4773  _revokeRole(role, account) */\n      jump\t// in\n        /* \"@openzeppelin/contracts/access/AccessControl.sol\":3199:3302  function _checkRole(bytes32 role) internal view virtual {... */\n    tag_123:\n        /* \"@openzeppelin/contracts/access/AccessControl.sol\":3265:3295  _checkRole(role, _msgSender()) */\n      tag_118\n        /* \"@openzeppelin/contracts/access/AccessControl.sol\":3276:3280  role */\n      dup2\n        /* \"@openzeppelin/contracts/utils/Context.sol\":735:745  msg.sender */\n      caller\n        /* \"@openzeppelin/contracts/access/AccessControl.sol\":3265:3275  _checkRole */\n      tag_250\n        /* \"@openzeppelin/contracts/access/AccessControl.sol\":3265:3295  _checkRole(role, _msgSender()) */\n      jump\t// in\n        /* \"@openzeppelin/contracts/access/AccessControl.sol\":6179:6495  function _grantRole(bytes32 role, address account) internal virtual returns (bool) {... */\n    tag_126:\n        /* \"@openzeppelin/contracts/access/AccessControl.sol\":6256:6260  bool */\n      0x00\n        /* \"@openzeppelin/contracts/access/AccessControl.sol\":6277:6299  hasRole(role, account) */\n      tag_252\n        /* \"@openzeppelin/contracts/access/AccessControl.sol\":6285:6289  role */\n      dup4\n        /* \"@openzeppelin/contracts/access/AccessControl.sol\":6291:6298  account */\n      dup4\n        /* \"@openzeppelin/contracts/access/AccessControl.sol\":6277:6284  hasRole */\n      tag_79\n        /* \"@openzeppelin/contracts/access/AccessControl.sol\":6277:6299  hasRole(role, account) */\n      jump\t// in\n    tag_252:\n        /* \"@openzeppelin/contracts/access/AccessControl.sol\":6272:6489  if (!hasRole(role, account)) {... */\n      tag_253\n      jumpi\n        /* \"@openzeppelin/contracts/access/AccessControl.sol\":6315:6321  _roles */\n      0x00\n        /* \"@openzeppelin/contracts/access/AccessControl.sol\":6315:6327  _roles[role] */\n      dup4\n      dup2\n      mstore\n      0x20\n      dup2\n      dup2\n      mstore\n      0x40\n      dup1\n      dup4\n      keccak256\n      sub(shl(0xa0, 0x01), 0x01)\n        /* \"@openzeppelin/contracts/access/AccessControl.sol\":6315:6344  _roles[role].hasRole[account] */\n      dup7\n      and\n      dup5\n      mstore\n      swap1\n      swap2\n      mstore\n      swap1\n      keccak256\n        /* \"@openzeppelin/contracts/access/AccessControl.sol\":6315:6351  _roles[role].hasRole[account] = true */\n      dup1\n      sload\n      not(0xff)\n      and\n        /* \"@openzeppelin/contracts/access/AccessControl.sol\":6347:6351  true */\n      0x01\n        /* \"@openzeppelin/contracts/access/AccessControl.sol\":6315:6351  _roles[role].hasRole[account] = true */\n      or\n      swap1\n      sstore\n        /* \"@openzeppelin/contracts/access/AccessControl.sol\":6397:6409  _msgSender() */\n      tag_254\n        /* \"@openzeppelin/contracts/utils/Context.sol\":735:745  msg.sender */\n      caller\n      swap1\n        /* \"@openzeppelin/contracts/utils/Context.sol\":656:752  function _msgSender() internal view virtual returns (address) {... */\n      jump\n        /* \"@openzeppelin/contracts/access/AccessControl.sol\":6397:6409  _msgSender() */\n    tag_254:\n      sub(shl(0xa0, 0x01), 0x01)\n        /* \"@openzeppelin/contracts/access/AccessControl.sol\":6370:6410  RoleGranted(role, account, _msgSender()) */\n      and\n        /* \"@openzeppelin/contracts/access/AccessControl.sol\":6388:6395  account */\n      dup3\n      sub(shl(0xa0, 0x01), 0x01)\n        /* \"@openzeppelin/contracts/access/AccessControl.sol\":6370:6410  RoleGranted(role, account, _msgSender()) */\n      and\n        /* \"@openzeppelin/contracts/access/AccessControl.sol\":6382:6386  role */\n      dup5\n        /* \"@openzeppelin/contracts/access/AccessControl.sol\":6370:6410  RoleGranted(role, account, _msgSender()) */\n      0x2f8788117e7eff1d82e926ec794901d17c78024a50270940304540a733656f0d\n      mload(0x40)\n      mload(0x40)\n      dup1\n      swap2\n      sub\n      swap1\n      log4\n      pop\n        /* \"@openzeppelin/contracts/access/AccessControl.sol\":6431:6435  true */\n      0x01\n        /* \"@openzeppelin/contracts/access/AccessControl.sol\":6424:6435  return true */\n      jump(tag_110)\n        /* \"@openzeppelin/contracts/access/AccessControl.sol\":6272:6489  if (!hasRole(role, account)) {... */\n    tag_253:\n      pop\n        /* \"@openzeppelin/contracts/access/AccessControl.sol\":6473:6478  false */\n      0x00\n        /* \"@openzeppelin/contracts/access/AccessControl.sol\":6466:6478  return false */\n      jump(tag_110)\n        /* \"@openzeppelin/contracts/access/AccessControl.sol\":6730:7047  function _revokeRole(bytes32 role, address account) internal virtual returns (bool) {... */\n    tag_151:\n        /* \"@openzeppelin/contracts/access/AccessControl.sol\":6808:6812  bool */\n      0x00\n        /* \"@openzeppelin/contracts/access/AccessControl.sol\":6828:6850  hasRole(role, account) */\n      tag_258\n        /* \"@openzeppelin/contracts/access/AccessControl.sol\":6836:6840  role */\n      dup4\n        /* \"@openzeppelin/contracts/access/AccessControl.sol\":6842:6849  account */\n      dup4\n        /* \"@openzeppelin/contracts/access/AccessControl.sol\":6828:6835  hasRole */\n      tag_79\n        /* \"@openzeppelin/contracts/access/AccessControl.sol\":6828:6850  hasRole(role, account) */\n      jump\t// in\n    tag_258:\n        /* \"@openzeppelin/contracts/access/AccessControl.sol\":6824:7041  if (hasRole(role, account)) {... */\n      iszero\n      tag_253\n      jumpi\n        /* \"@openzeppelin/contracts/access/AccessControl.sol\":6898:6903  false */\n      0x00\n        /* \"@openzeppelin/contracts/access/AccessControl.sol\":6866:6878  _roles[role] */\n      dup4\n      dup2\n      mstore\n      0x20\n      dup2\n      dup2\n      mstore\n      0x40\n      dup1\n      dup4\n      keccak256\n      sub(shl(0xa0, 0x01), 0x01)\n        /* \"@openzeppelin/contracts/access/AccessControl.sol\":6866:6895  _roles[role].hasRole[account] */\n      dup7\n      and\n      dup1\n      dup6\n      mstore\n      swap3\n      mstore\n      dup1\n      dup4\n      keccak256\n        /* \"@openzeppelin/contracts/access/AccessControl.sol\":6866:6903  _roles[role].hasRole[account] = false */\n      dup1\n      sload\n      not(0xff)\n      and\n      swap1\n      sstore\n        /* \"@openzeppelin/contracts/access/AccessControl.sol\":6922:6962  RoleRevoked(role, account, _msgSender()) */\n      mload\n        /* \"@openzeppelin/contracts/utils/Context.sol\":735:745  msg.sender */\n      caller\n      swap3\n        /* \"@openzeppelin/contracts/access/AccessControl.sol\":6866:6878  _roles[role] */\n      dup7\n      swap2\n        /* \"@openzeppelin/contracts/access/AccessControl.sol\":6922:6962  RoleRevoked(role, account, _msgSender()) */\n      0xf6391f5c32d9c69d2a47ea670b442974b53935d1edc7fd64eb21e047a839171b\n      swap2\n        /* \"@openzeppelin/contracts/access/AccessControl.sol\":6898:6903  false */\n      swap1\n        /* \"@openzeppelin/contracts/access/AccessControl.sol\":6922:6962  RoleRevoked(role, account, _msgSender()) */\n      log4\n      pop\n        /* \"@openzeppelin/contracts/access/AccessControl.sol\":6983:6987  true */\n      0x01\n        /* \"@openzeppelin/contracts/access/AccessControl.sol\":6976:6987  return true */\n      jump(tag_110)\n        /* \"contracts/Privacy.sol\":88:257  function hashIdentifier(address _address, uint256 _timestamp) internal pure returns (bytes32) {... */\n    tag_174:\n        /* \"contracts/Privacy.sol\":210:248  abi.encodePacked(_address, _timestamp) */\n      mload(0x40)\n      not(sub(shl(0x60, 0x01), 0x01))\n        /* \"#utility.yul\":12861:12863   */\n      0x60\n        /* \"#utility.yul\":12832:12847   */\n      dup5\n      swap1\n      shl\n        /* \"#utility.yul\":12828:12873   */\n      and\n        /* \"contracts/Privacy.sol\":210:248  abi.encodePacked(_address, _timestamp) */\n      0x20\n      dup3\n      add\n        /* \"#utility.yul\":12816:12874   */\n      mstore\n        /* \"#utility.yul\":12890:12902   */\n      0x34\n      dup2\n      add\n        /* \"#utility.yul\":12883:12911   */\n      dup3\n      swap1\n      mstore\n        /* \"contracts/Privacy.sol\":173:180  bytes32 */\n      0x00\n      swap1\n        /* \"#utility.yul\":12927:12939   */\n      0x54\n      add\n        /* \"contracts/Privacy.sol\":210:248  abi.encodePacked(_address, _timestamp) */\n      mload(0x40)\n      0x20\n      dup2\n      dup4\n      sub\n      sub\n      dup2\n      mstore\n      swap1\n      0x40\n      mstore\n        /* \"contracts/Privacy.sol\":200:249  keccak256(abi.encodePacked(_address, _timestamp)) */\n      dup1\n      mload\n      swap1\n      0x20\n      add\n      keccak256\n        /* \"contracts/Privacy.sol\":193:249  return keccak256(abi.encodePacked(_address, _timestamp)) */\n      swap1\n      pop\n        /* \"contracts/Privacy.sol\":88:257  function hashIdentifier(address _address, uint256 _timestamp) internal pure returns (bytes32) {... */\n      swap3\n      swap2\n      pop\n      pop\n      jump\t// out\n        /* \"@openzeppelin/contracts/access/AccessControl.sol\":3432:3629  function _checkRole(bytes32 role, address account) internal view virtual {... */\n    tag_250:\n        /* \"@openzeppelin/contracts/access/AccessControl.sol\":3520:3542  hasRole(role, account) */\n      tag_267\n        /* \"@openzeppelin/contracts/access/AccessControl.sol\":3528:3532  role */\n      dup3\n        /* \"@openzeppelin/contracts/access/AccessControl.sol\":3534:3541  account */\n      dup3\n        /* \"@openzeppelin/contracts/access/AccessControl.sol\":3520:3527  hasRole */\n      tag_79\n        /* \"@openzeppelin/contracts/access/AccessControl.sol\":3520:3542  hasRole(role, account) */\n      jump\t// in\n    tag_267:\n        /* \"@openzeppelin/contracts/access/AccessControl.sol\":3515:3623  if (!hasRole(role, account)) {... */\n      tag_166\n      jumpi\n        /* \"@openzeppelin/contracts/access/AccessControl.sol\":3565:3612  AccessControlUnauthorizedAccount(account, role) */\n      mload(0x40)\n      shl(0xe0, 0xe2517d3f)\n      dup2\n      mstore\n      sub(shl(0xa0, 0x01), 0x01)\n        /* \"#utility.yul\":13142:13174   */\n      dup3\n      and\n        /* \"@openzeppelin/contracts/access/AccessControl.sol\":3565:3612  AccessControlUnauthorizedAccount(account, role) */\n      0x04\n      dup3\n      add\n        /* \"#utility.yul\":13124:13175   */\n      mstore\n        /* \"#utility.yul\":13191:13209   */\n      0x24\n      dup2\n      add\n        /* \"#utility.yul\":13184:13218   */\n      dup4\n      swap1\n      mstore\n        /* \"#utility.yul\":13097:13115   */\n      0x44\n      add\n        /* \"@openzeppelin/contracts/access/AccessControl.sol\":3565:3612  AccessControlUnauthorizedAccount(account, role) */\n      tag_115\n        /* \"#utility.yul\":12950:13224   */\n      jump\n        /* \"#utility.yul\":14:300   */\n    tag_26:\n        /* \"#utility.yul\":72:78   */\n      0x00\n        /* \"#utility.yul\":125:127   */\n      0x20\n        /* \"#utility.yul\":113:122   */\n      dup3\n        /* \"#utility.yul\":104:111   */\n      dup5\n        /* \"#utility.yul\":100:123   */\n      sub\n        /* \"#utility.yul\":96:128   */\n      slt\n        /* \"#utility.yul\":93:145   */\n      iszero\n      tag_282\n      jumpi\n        /* \"#utility.yul\":141:142   */\n      0x00\n        /* \"#utility.yul\":138:139   */\n      dup1\n        /* \"#utility.yul\":131:143   */\n      revert\n        /* \"#utility.yul\":93:145   */\n    tag_282:\n        /* \"#utility.yul\":167:190   */\n      dup2\n      calldataload\n      not(sub(shl(0xe0, 0x01), 0x01))\n        /* \"#utility.yul\":219:251   */\n      dup2\n      and\n        /* \"#utility.yul\":209:252   */\n      dup2\n      eq\n        /* \"#utility.yul\":199:270   */\n      tag_283\n      jumpi\n        /* \"#utility.yul\":266:267   */\n      0x00\n        /* \"#utility.yul\":263:264   */\n      dup1\n        /* \"#utility.yul\":256:268   */\n      revert\n        /* \"#utility.yul\":199:270   */\n    tag_283:\n        /* \"#utility.yul\":289:294   */\n      swap4\n        /* \"#utility.yul\":14:300   */\n      swap3\n      pop\n      pop\n      pop\n      jump\t// out\n        /* \"#utility.yul\":775:948   */\n    tag_272:\n        /* \"#utility.yul\":843:863   */\n      dup1\n      calldataload\n      sub(shl(0xa0, 0x01), 0x01)\n        /* \"#utility.yul\":892:923   */\n      dup2\n      and\n        /* \"#utility.yul\":882:924   */\n      dup2\n      eq\n        /* \"#utility.yul\":872:942   */\n      tag_288\n      jumpi\n        /* \"#utility.yul\":938:939   */\n      0x00\n        /* \"#utility.yul\":935:936   */\n      dup1\n        /* \"#utility.yul\":928:940   */\n      revert\n        /* \"#utility.yul\":872:942   */\n    tag_288:\n        /* \"#utility.yul\":775:948   */\n      swap2\n      swap1\n      pop\n      jump\t// out\n        /* \"#utility.yul\":953:1139   */\n    tag_36:\n        /* \"#utility.yul\":1012:1018   */\n      0x00\n        /* \"#utility.yul\":1065:1067   */\n      0x20\n        /* \"#utility.yul\":1053:1062   */\n      dup3\n        /* \"#utility.yul\":1044:1051   */\n      dup5\n        /* \"#utility.yul\":1040:1063   */\n      sub\n        /* \"#utility.yul\":1036:1068   */\n      slt\n        /* \"#utility.yul\":1033:1085   */\n      iszero\n      tag_290\n      jumpi\n        /* \"#utility.yul\":1081:1082   */\n      0x00\n        /* \"#utility.yul\":1078:1079   */\n      dup1\n        /* \"#utility.yul\":1071:1083   */\n      revert\n        /* \"#utility.yul\":1033:1085   */\n    tag_290:\n        /* \"#utility.yul\":1104:1133   */\n      tag_283\n        /* \"#utility.yul\":1123:1132   */\n      dup3\n        /* \"#utility.yul\":1104:1133   */\n      tag_272\n      jump\t// in\n        /* \"#utility.yul\":1144:1324   */\n    tag_40:\n        /* \"#utility.yul\":1203:1209   */\n      0x00\n        /* \"#utility.yul\":1256:1258   */\n      0x20\n        /* \"#utility.yul\":1244:1253   */\n      dup3\n        /* \"#utility.yul\":1235:1242   */\n      dup5\n        /* \"#utility.yul\":1231:1254   */\n      sub\n        /* \"#utility.yul\":1227:1259   */\n      slt\n        /* \"#utility.yul\":1224:1276   */\n      iszero\n      tag_293\n      jumpi\n        /* \"#utility.yul\":1272:1273   */\n      0x00\n        /* \"#utility.yul\":1269:1270   */\n      dup1\n        /* \"#utility.yul\":1262:1274   */\n      revert\n        /* \"#utility.yul\":1224:1276   */\n    tag_293:\n      pop\n        /* \"#utility.yul\":1295:1318   */\n      calldataload\n      swap2\n        /* \"#utility.yul\":1144:1324   */\n      swap1\n      pop\n      jump\t// out\n        /* \"#utility.yul\":1329:1583   */\n    tag_45:\n        /* \"#utility.yul\":1397:1403   */\n      0x00\n        /* \"#utility.yul\":1405:1411   */\n      dup1\n        /* \"#utility.yul\":1458:1460   */\n      0x40\n        /* \"#utility.yul\":1446:1455   */\n      dup4\n        /* \"#utility.yul\":1437:1444   */\n      dup6\n        /* \"#utility.yul\":1433:1456   */\n      sub\n        /* \"#utility.yul\":1429:1461   */\n      slt\n        /* \"#utility.yul\":1426:1478   */\n      iszero\n      tag_295\n      jumpi\n        /* \"#utility.yul\":1474:1475   */\n      0x00\n        /* \"#utility.yul\":1471:1472   */\n      dup1\n        /* \"#utility.yul\":1464:1476   */\n      revert\n        /* \"#utility.yul\":1426:1478   */\n    tag_295:\n        /* \"#utility.yul\":1510:1519   */\n      dup3\n        /* \"#utility.yul\":1497:1520   */\n      calldataload\n        /* \"#utility.yul\":1487:1520   */\n      swap2\n      pop\n        /* \"#utility.yul\":1539:1577   */\n      tag_296\n        /* \"#utility.yul\":1573:1575   */\n      0x20\n        /* \"#utility.yul\":1562:1571   */\n      dup5\n        /* \"#utility.yul\":1558:1576   */\n      add\n        /* \"#utility.yul\":1539:1577   */\n      tag_272\n      jump\t// in\n    tag_296:\n        /* \"#utility.yul\":1529:1577   */\n      swap1\n      pop\n        /* \"#utility.yul\":1329:1583   */\n      swap3\n      pop\n      swap3\n      swap1\n      pop\n      jump\t// out\n        /* \"#utility.yul\":1773:2196   */\n    tag_273:\n        /* \"#utility.yul\":1815:1818   */\n      0x00\n        /* \"#utility.yul\":1853:1858   */\n      dup2\n        /* \"#utility.yul\":1847:1859   */\n      mload\n        /* \"#utility.yul\":1880:1886   */\n      dup1\n        /* \"#utility.yul\":1875:1878   */\n      dup5\n        /* \"#utility.yul\":1868:1887   */\n      mstore\n        /* \"#utility.yul\":1905:1906   */\n      0x00\n        /* \"#utility.yul\":1915:2077   */\n    tag_300:\n        /* \"#utility.yul\":1929:1935   */\n      dup2\n        /* \"#utility.yul\":1926:1927   */\n      dup2\n        /* \"#utility.yul\":1923:1936   */\n      lt\n        /* \"#utility.yul\":1915:2077   */\n      iszero\n      tag_302\n      jumpi\n        /* \"#utility.yul\":1991:1995   */\n      0x20\n        /* \"#utility.yul\":2047:2060   */\n      dup2\n      dup6\n      add\n        /* \"#utility.yul\":2043:2065   */\n      dup2\n      add\n        /* \"#utility.yul\":2037:2066   */\n      mload\n        /* \"#utility.yul\":2019:2030   */\n      dup7\n      dup4\n      add\n        /* \"#utility.yul\":2015:2035   */\n      dup3\n      add\n        /* \"#utility.yul\":2008:2067   */\n      mstore\n        /* \"#utility.yul\":1944:1956   */\n      add\n        /* \"#utility.yul\":1915:2077   */\n      jump(tag_300)\n    tag_302:\n        /* \"#utility.yul\":1919:1922   */\n      pop\n        /* \"#utility.yul\":2122:2123   */\n      0x00\n        /* \"#utility.yul\":2115:2119   */\n      0x20\n        /* \"#utility.yul\":2106:2112   */\n      dup3\n        /* \"#utility.yul\":2101:2104   */\n      dup7\n        /* \"#utility.yul\":2097:2113   */\n      add\n        /* \"#utility.yul\":2093:2120   */\n      add\n        /* \"#utility.yul\":2086:2124   */\n      mstore\n        /* \"#utility.yul\":2185:2189   */\n      0x20\n        /* \"#utility.yul\":2178:2180   */\n      0x1f\n        /* \"#utility.yul\":2174:2181   */\n      not\n        /* \"#utility.yul\":2169:2171   */\n      0x1f\n        /* \"#utility.yul\":2161:2167   */\n      dup4\n        /* \"#utility.yul\":2157:2172   */\n      add\n        /* \"#utility.yul\":2153:2182   */\n      and\n        /* \"#utility.yul\":2148:2151   */\n      dup6\n        /* \"#utility.yul\":2144:2183   */\n      add\n        /* \"#utility.yul\":2140:2190   */\n      add\n        /* \"#utility.yul\":2133:2190   */\n      swap2\n      pop\n      pop\n        /* \"#utility.yul\":1773:2196   */\n      swap3\n      swap2\n      pop\n      pop\n      jump\t// out\n        /* \"#utility.yul\":2201:3325   */\n    tag_52:\n        /* \"#utility.yul\":2388:2390   */\n      0x20\n        /* \"#utility.yul\":2377:2386   */\n      dup2\n        /* \"#utility.yul\":2370:2391   */\n      mstore\n        /* \"#utility.yul\":2433:2439   */\n      dup2\n        /* \"#utility.yul\":2427:2440   */\n      mload\n        /* \"#utility.yul\":2422:2424   */\n      0x20\n        /* \"#utility.yul\":2411:2420   */\n      dup3\n        /* \"#utility.yul\":2407:2425   */\n      add\n        /* \"#utility.yul\":2400:2441   */\n      mstore\n        /* \"#utility.yul\":2495:2497   */\n      0x20\n        /* \"#utility.yul\":2487:2493   */\n      dup3\n        /* \"#utility.yul\":2483:2498   */\n      add\n        /* \"#utility.yul\":2477:2499   */\n      mload\n        /* \"#utility.yul\":2472:2474   */\n      0x40\n        /* \"#utility.yul\":2461:2470   */\n      dup3\n        /* \"#utility.yul\":2457:2475   */\n      add\n        /* \"#utility.yul\":2450:2500   */\n      mstore\n        /* \"#utility.yul\":2554:2556   */\n      0x40\n        /* \"#utility.yul\":2546:2552   */\n      dup3\n        /* \"#utility.yul\":2542:2557   */\n      add\n        /* \"#utility.yul\":2536:2558   */\n      mload\n        /* \"#utility.yul\":2531:2533   */\n      0x60\n        /* \"#utility.yul\":2520:2529   */\n      dup3\n        /* \"#utility.yul\":2516:2534   */\n      add\n        /* \"#utility.yul\":2509:2559   */\n      mstore\n        /* \"#utility.yul\":2614:2616   */\n      0x60\n        /* \"#utility.yul\":2606:2612   */\n      dup3\n        /* \"#utility.yul\":2602:2617   */\n      add\n        /* \"#utility.yul\":2596:2618   */\n      mload\n        /* \"#utility.yul\":2590:2593   */\n      0x80\n        /* \"#utility.yul\":2579:2588   */\n      dup3\n        /* \"#utility.yul\":2575:2594   */\n      add\n        /* \"#utility.yul\":2568:2619   */\n      mstore\n        /* \"#utility.yul\":2351:2355   */\n      0x00\n        /* \"#utility.yul\":2666:2669   */\n      0x80\n        /* \"#utility.yul\":2658:2664   */\n      dup4\n        /* \"#utility.yul\":2654:2670   */\n      add\n        /* \"#utility.yul\":2648:2671   */\n      mload\n        /* \"#utility.yul\":2680:2730   */\n      tag_304\n        /* \"#utility.yul\":2725:2728   */\n      0xa0\n        /* \"#utility.yul\":2714:2723   */\n      dup5\n        /* \"#utility.yul\":2710:2729   */\n      add\n        /* \"#utility.yul\":2696:2708   */\n      dup3\n        /* \"#utility.yul\":375:388   */\n      iszero\n        /* \"#utility.yul\":368:389   */\n      iszero\n        /* \"#utility.yul\":356:390   */\n      swap1\n      mstore\n        /* \"#utility.yul\":305:396   */\n      jump\n        /* \"#utility.yul\":2680:2730   */\n    tag_304:\n      pop\n        /* \"#utility.yul\":2779:2782   */\n      0xa0\n        /* \"#utility.yul\":2771:2777   */\n      dup4\n        /* \"#utility.yul\":2767:2783   */\n      add\n        /* \"#utility.yul\":2761:2784   */\n      mload\n        /* \"#utility.yul\":2803:2809   */\n      0x0100\n        /* \"#utility.yul\":2846:2848   */\n      dup1\n        /* \"#utility.yul\":2840:2843   */\n      0xc0\n        /* \"#utility.yul\":2829:2838   */\n      dup6\n        /* \"#utility.yul\":2825:2844   */\n      add\n        /* \"#utility.yul\":2818:2849   */\n      mstore\n        /* \"#utility.yul\":2872:2926   */\n      tag_305\n        /* \"#utility.yul\":2921:2924   */\n      0x0120\n        /* \"#utility.yul\":2910:2919   */\n      dup6\n        /* \"#utility.yul\":2906:2925   */\n      add\n        /* \"#utility.yul\":2890:2904   */\n      dup4\n        /* \"#utility.yul\":2872:2926   */\n      tag_273\n      jump\t// in\n    tag_305:\n        /* \"#utility.yul\":2858:2926   */\n      swap2\n      pop\n        /* \"#utility.yul\":2975:2978   */\n      0xc0\n        /* \"#utility.yul\":2967:2973   */\n      dup6\n        /* \"#utility.yul\":2963:2979   */\n      add\n        /* \"#utility.yul\":2957:2980   */\n      mload\n        /* \"#utility.yul\":3003:3005   */\n      0x1f\n        /* \"#utility.yul\":2999:3006   */\n      not\n        /* \"#utility.yul\":3071:3073   */\n      dup1\n        /* \"#utility.yul\":3059:3068   */\n      dup7\n        /* \"#utility.yul\":3051:3057   */\n      dup6\n        /* \"#utility.yul\":3047:3069   */\n      sub\n        /* \"#utility.yul\":3043:3074   */\n      add\n        /* \"#utility.yul\":3037:3040   */\n      0xe0\n        /* \"#utility.yul\":3026:3035   */\n      dup8\n        /* \"#utility.yul\":3022:3041   */\n      add\n        /* \"#utility.yul\":3015:3075   */\n      mstore\n        /* \"#utility.yul\":3098:3139   */\n      tag_306\n        /* \"#utility.yul\":3132:3138   */\n      dup5\n        /* \"#utility.yul\":3116:3130   */\n      dup4\n        /* \"#utility.yul\":3098:3139   */\n      tag_273\n      jump\t// in\n    tag_306:\n        /* \"#utility.yul\":3084:3139   */\n      swap4\n      pop\n        /* \"#utility.yul\":3188:3191   */\n      0xe0\n        /* \"#utility.yul\":3180:3186   */\n      dup8\n        /* \"#utility.yul\":3176:3192   */\n      add\n        /* \"#utility.yul\":3170:3193   */\n      mload\n        /* \"#utility.yul\":3148:3193   */\n      swap2\n      pop\n        /* \"#utility.yul\":3257:3259   */\n      dup1\n        /* \"#utility.yul\":3245:3254   */\n      dup7\n        /* \"#utility.yul\":3237:3243   */\n      dup6\n        /* \"#utility.yul\":3233:3255   */\n      sub\n        /* \"#utility.yul\":3229:3260   */\n      add\n        /* \"#utility.yul\":3224:3226   */\n      dup4\n        /* \"#utility.yul\":3213:3222   */\n      dup8\n        /* \"#utility.yul\":3209:3227   */\n      add\n        /* \"#utility.yul\":3202:3261   */\n      mstore\n      pop\n        /* \"#utility.yul\":3278:3319   */\n      tag_307\n        /* \"#utility.yul\":3312:3318   */\n      dup4\n        /* \"#utility.yul\":3296:3310   */\n      dup3\n        /* \"#utility.yul\":3278:3319   */\n      tag_273\n      jump\t// in\n    tag_307:\n        /* \"#utility.yul\":3270:3319   */\n      swap7\n        /* \"#utility.yul\":2201:3325   */\n      swap6\n      pop\n      pop\n      pop\n      pop\n      pop\n      pop\n      jump\t// out\n        /* \"#utility.yul\":3330:3962   */\n    tag_62:\n        /* \"#utility.yul\":3501:3503   */\n      0x20\n        /* \"#utility.yul\":3553:3574   */\n      dup1\n      dup3\n      mstore\n        /* \"#utility.yul\":3623:3636   */\n      dup3\n      mload\n        /* \"#utility.yul\":3526:3544   */\n      dup3\n      dup3\n      add\n        /* \"#utility.yul\":3645:3667   */\n      dup2\n      swap1\n      mstore\n        /* \"#utility.yul\":3472:3476   */\n      0x00\n      swap2\n        /* \"#utility.yul\":3501:3503   */\n      swap1\n        /* \"#utility.yul\":3724:3739   */\n      dup5\n      dup3\n      add\n      swap1\n        /* \"#utility.yul\":3698:3700   */\n      0x40\n        /* \"#utility.yul\":3683:3701   */\n      dup6\n      add\n      swap1\n        /* \"#utility.yul\":3472:3476   */\n      dup5\n        /* \"#utility.yul\":3767:3936   */\n    tag_309:\n        /* \"#utility.yul\":3781:3787   */\n      dup2\n        /* \"#utility.yul\":3778:3779   */\n      dup2\n        /* \"#utility.yul\":3775:3788   */\n      lt\n        /* \"#utility.yul\":3767:3936   */\n      iszero\n      tag_311\n      jumpi\n        /* \"#utility.yul\":3842:3855   */\n      dup4\n      mload\n        /* \"#utility.yul\":3830:3856   */\n      dup4\n      mstore\n        /* \"#utility.yul\":3911:3926   */\n      swap3\n      dup5\n      add\n      swap3\n        /* \"#utility.yul\":3876:3888   */\n      swap2\n      dup5\n      add\n      swap2\n        /* \"#utility.yul\":3803:3804   */\n      0x01\n        /* \"#utility.yul\":3796:3805   */\n      add\n        /* \"#utility.yul\":3767:3936   */\n      jump(tag_309)\n    tag_311:\n      pop\n        /* \"#utility.yul\":3953:3956   */\n      swap1\n      swap7\n        /* \"#utility.yul\":3330:3962   */\n      swap6\n      pop\n      pop\n      pop\n      pop\n      pop\n      pop\n      jump\t// out\n        /* \"#utility.yul\":3967:4094   */\n    tag_274:\n        /* \"#utility.yul\":4028:4038   */\n      0x4e487b71\n        /* \"#utility.yul\":4023:4026   */\n      0xe0\n        /* \"#utility.yul\":4019:4039   */\n      shl\n        /* \"#utility.yul\":4016:4017   */\n      0x00\n        /* \"#utility.yul\":4009:4040   */\n      mstore\n        /* \"#utility.yul\":4059:4063   */\n      0x41\n        /* \"#utility.yul\":4056:4057   */\n      0x04\n        /* \"#utility.yul\":4049:4064   */\n      mstore\n        /* \"#utility.yul\":4083:4087   */\n      0x24\n        /* \"#utility.yul\":4080:4081   */\n      0x00\n        /* \"#utility.yul\":4073:4088   */\n      revert\n        /* \"#utility.yul\":4099:4818   */\n    tag_275:\n        /* \"#utility.yul\":4142:4147   */\n      0x00\n        /* \"#utility.yul\":4195:4198   */\n      dup3\n        /* \"#utility.yul\":4188:4192   */\n      0x1f\n        /* \"#utility.yul\":4180:4186   */\n      dup4\n        /* \"#utility.yul\":4176:4193   */\n      add\n        /* \"#utility.yul\":4172:4199   */\n      slt\n        /* \"#utility.yul\":4162:4217   */\n      tag_314\n      jumpi\n        /* \"#utility.yul\":4213:4214   */\n      0x00\n        /* \"#utility.yul\":4210:4211   */\n      dup1\n        /* \"#utility.yul\":4203:4215   */\n      revert\n        /* \"#utility.yul\":4162:4217   */\n    tag_314:\n        /* \"#utility.yul\":4236:4256   */\n      dup2\n      calldataload\n      sub(shl(0x40, 0x01), 0x01)\n        /* \"#utility.yul\":4305:4315   */\n      dup1\n      dup3\n      gt\n        /* \"#utility.yul\":4302:4338   */\n      iszero\n      tag_316\n      jumpi\n        /* \"#utility.yul\":4318:4336   */\n      tag_316\n      tag_274\n      jump\t// in\n    tag_316:\n        /* \"#utility.yul\":4393:4395   */\n      0x40\n        /* \"#utility.yul\":4387:4396   */\n      mload\n        /* \"#utility.yul\":4361:4363   */\n      0x1f\n        /* \"#utility.yul\":4447:4460   */\n      dup4\n      add\n      not(0x1f)\n        /* \"#utility.yul\":4443:4465   */\n      swap1\n      dup2\n      and\n        /* \"#utility.yul\":4467:4469   */\n      0x3f\n        /* \"#utility.yul\":4439:4470   */\n      add\n        /* \"#utility.yul\":4435:4475   */\n      and\n        /* \"#utility.yul\":4423:4476   */\n      dup2\n      add\n      swap1\n        /* \"#utility.yul\":4491:4509   */\n      dup3\n      dup3\n      gt\n        /* \"#utility.yul\":4511:4533   */\n      dup2\n      dup4\n      lt\n        /* \"#utility.yul\":4488:4534   */\n      or\n        /* \"#utility.yul\":4485:4557   */\n      iszero\n      tag_318\n      jumpi\n        /* \"#utility.yul\":4537:4555   */\n      tag_318\n      tag_274\n      jump\t// in\n    tag_318:\n        /* \"#utility.yul\":4577:4587   */\n      dup2\n        /* \"#utility.yul\":4573:4575   */\n      0x40\n        /* \"#utility.yul\":4566:4588   */\n      mstore\n        /* \"#utility.yul\":4612:4614   */\n      dup4\n        /* \"#utility.yul\":4604:4610   */\n      dup2\n        /* \"#utility.yul\":4597:4615   */\n      mstore\n        /* \"#utility.yul\":4658:4661   */\n      dup7\n        /* \"#utility.yul\":4651:4655   */\n      0x20\n        /* \"#utility.yul\":4646:4648   */\n      dup6\n        /* \"#utility.yul\":4638:4644   */\n      dup9\n        /* \"#utility.yul\":4634:4649   */\n      add\n        /* \"#utility.yul\":4630:4656   */\n      add\n        /* \"#utility.yul\":4627:4662   */\n      gt\n        /* \"#utility.yul\":4624:4679   */\n      iszero\n      tag_319\n      jumpi\n        /* \"#utility.yul\":4675:4676   */\n      0x00\n        /* \"#utility.yul\":4672:4673   */\n      dup1\n        /* \"#utility.yul\":4665:4677   */\n      revert\n        /* \"#utility.yul\":4624:4679   */\n    tag_319:\n        /* \"#utility.yul\":4739:4741   */\n      dup4\n        /* \"#utility.yul\":4732:4736   */\n      0x20\n        /* \"#utility.yul\":4724:4730   */\n      dup8\n        /* \"#utility.yul\":4720:4737   */\n      add\n        /* \"#utility.yul\":4713:4717   */\n      0x20\n        /* \"#utility.yul\":4705:4711   */\n      dup4\n        /* \"#utility.yul\":4701:4718   */\n      add\n        /* \"#utility.yul\":4688:4742   */\n      calldatacopy\n        /* \"#utility.yul\":4786:4787   */\n      0x00\n        /* \"#utility.yul\":4779:4783   */\n      0x20\n        /* \"#utility.yul\":4774:4776   */\n      dup6\n        /* \"#utility.yul\":4766:4772   */\n      dup4\n        /* \"#utility.yul\":4762:4777   */\n      add\n        /* \"#utility.yul\":4758:4784   */\n      add\n        /* \"#utility.yul\":4751:4788   */\n      mstore\n        /* \"#utility.yul\":4806:4812   */\n      dup1\n        /* \"#utility.yul\":4797:4812   */\n      swap5\n      pop\n      pop\n      pop\n      pop\n      pop\n        /* \"#utility.yul\":4099:4818   */\n      swap3\n      swap2\n      pop\n      pop\n      jump\t// out\n        /* \"#utility.yul\":4823:5635   */\n    tag_71:\n        /* \"#utility.yul\":4939:4945   */\n      0x00\n        /* \"#utility.yul\":4947:4953   */\n      dup1\n        /* \"#utility.yul\":4955:4961   */\n      0x00\n        /* \"#utility.yul\":4963:4969   */\n      dup1\n        /* \"#utility.yul\":5016:5019   */\n      0x80\n        /* \"#utility.yul\":5004:5013   */\n      dup6\n        /* \"#utility.yul\":4995:5002   */\n      dup8\n        /* \"#utility.yul\":4991:5014   */\n      sub\n        /* \"#utility.yul\":4987:5020   */\n      slt\n        /* \"#utility.yul\":4984:5037   */\n      iszero\n      tag_321\n      jumpi\n        /* \"#utility.yul\":5033:5034   */\n      0x00\n        /* \"#utility.yul\":5030:5031   */\n      dup1\n        /* \"#utility.yul\":5023:5035   */\n      revert\n        /* \"#utility.yul\":4984:5037   */\n    tag_321:\n        /* \"#utility.yul\":5056:5079   */\n      dup5\n      calldataload\n      swap4\n      pop\n        /* \"#utility.yul\":5130:5132   */\n      0x20\n        /* \"#utility.yul\":5115:5133   */\n      dup6\n      add\n        /* \"#utility.yul\":5102:5134   */\n      calldataload\n      sub(shl(0x40, 0x01), 0x01)\n        /* \"#utility.yul\":5183:5197   */\n      dup1\n      dup3\n      gt\n        /* \"#utility.yul\":5180:5214   */\n      iszero\n      tag_322\n      jumpi\n        /* \"#utility.yul\":5210:5211   */\n      0x00\n        /* \"#utility.yul\":5207:5208   */\n      dup1\n        /* \"#utility.yul\":5200:5212   */\n      revert\n        /* \"#utility.yul\":5180:5214   */\n    tag_322:\n        /* \"#utility.yul\":5233:5283   */\n      tag_323\n        /* \"#utility.yul\":5275:5282   */\n      dup9\n        /* \"#utility.yul\":5266:5272   */\n      dup4\n        /* \"#utility.yul\":5255:5264   */\n      dup10\n        /* \"#utility.yul\":5251:5273   */\n      add\n        /* \"#utility.yul\":5233:5283   */\n      tag_275\n      jump\t// in\n    tag_323:\n        /* \"#utility.yul\":5223:5283   */\n      swap5\n      pop\n        /* \"#utility.yul\":5336:5338   */\n      0x40\n        /* \"#utility.yul\":5325:5334   */\n      dup8\n        /* \"#utility.yul\":5321:5339   */\n      add\n        /* \"#utility.yul\":5308:5340   */\n      calldataload\n        /* \"#utility.yul\":5292:5340   */\n      swap2\n      pop\n        /* \"#utility.yul\":5365:5367   */\n      dup1\n        /* \"#utility.yul\":5355:5363   */\n      dup3\n        /* \"#utility.yul\":5352:5368   */\n      gt\n        /* \"#utility.yul\":5349:5385   */\n      iszero\n      tag_324\n      jumpi\n        /* \"#utility.yul\":5381:5382   */\n      0x00\n        /* \"#utility.yul\":5378:5379   */\n      dup1\n        /* \"#utility.yul\":5371:5383   */\n      revert\n        /* \"#utility.yul\":5349:5385   */\n    tag_324:\n        /* \"#utility.yul\":5404:5456   */\n      tag_325\n        /* \"#utility.yul\":5448:5455   */\n      dup9\n        /* \"#utility.yul\":5437:5445   */\n      dup4\n        /* \"#utility.yul\":5426:5435   */\n      dup10\n        /* \"#utility.yul\":5422:5446   */\n      add\n        /* \"#utility.yul\":5404:5456   */\n      tag_275\n      jump\t// in\n    tag_325:\n        /* \"#utility.yul\":5394:5456   */\n      swap4\n      pop\n        /* \"#utility.yul\":5509:5511   */\n      0x60\n        /* \"#utility.yul\":5498:5507   */\n      dup8\n        /* \"#utility.yul\":5494:5512   */\n      add\n        /* \"#utility.yul\":5481:5513   */\n      calldataload\n        /* \"#utility.yul\":5465:5513   */\n      swap2\n      pop\n        /* \"#utility.yul\":5538:5540   */\n      dup1\n        /* \"#utility.yul\":5528:5536   */\n      dup3\n        /* \"#utility.yul\":5525:5541   */\n      gt\n        /* \"#utility.yul\":5522:5558   */\n      iszero\n      tag_326\n      jumpi\n        /* \"#utility.yul\":5554:5555   */\n      0x00\n        /* \"#utility.yul\":5551:5552   */\n      dup1\n        /* \"#utility.yul\":5544:5556   */\n      revert\n        /* \"#utility.yul\":5522:5558   */\n    tag_326:\n      pop\n        /* \"#utility.yul\":5577:5629   */\n      tag_327\n        /* \"#utility.yul\":5621:5628   */\n      dup8\n        /* \"#utility.yul\":5610:5618   */\n      dup3\n        /* \"#utility.yul\":5599:5608   */\n      dup9\n        /* \"#utility.yul\":5595:5619   */\n      add\n        /* \"#utility.yul\":5577:5629   */\n      tag_275\n      jump\t// in\n    tag_327:\n        /* \"#utility.yul\":5567:5629   */\n      swap2\n      pop\n      pop\n        /* \"#utility.yul\":4823:5635   */\n      swap3\n      swap6\n      swap2\n      swap5\n      pop\n      swap3\n      pop\n      jump\t// out\n        /* \"#utility.yul\":5848:6238   */\n    tag_83:\n        /* \"#utility.yul\":5926:5932   */\n      0x00\n        /* \"#utility.yul\":5934:5940   */\n      dup1\n        /* \"#utility.yul\":5987:5989   */\n      0x40\n        /* \"#utility.yul\":5975:5984   */\n      dup4\n        /* \"#utility.yul\":5966:5973   */\n      dup6\n        /* \"#utility.yul\":5962:5985   */\n      sub\n        /* \"#utility.yul\":5958:5990   */\n      slt\n        /* \"#utility.yul\":5955:6007   */\n      iszero\n      tag_330\n      jumpi\n        /* \"#utility.yul\":6003:6004   */\n      0x00\n        /* \"#utility.yul\":6000:6001   */\n      dup1\n        /* \"#utility.yul\":5993:6005   */\n      revert\n        /* \"#utility.yul\":5955:6007   */\n    tag_330:\n        /* \"#utility.yul\":6026:6049   */\n      dup3\n      calldataload\n      swap2\n      pop\n        /* \"#utility.yul\":6100:6102   */\n      0x20\n        /* \"#utility.yul\":6085:6103   */\n      dup4\n      add\n        /* \"#utility.yul\":6072:6104   */\n      calldataload\n      sub(shl(0x40, 0x01), 0x01)\n        /* \"#utility.yul\":6116:6146   */\n      dup2\n      gt\n        /* \"#utility.yul\":6113:6163   */\n      iszero\n      tag_331\n      jumpi\n        /* \"#utility.yul\":6159:6160   */\n      0x00\n        /* \"#utility.yul\":6156:6157   */\n      dup1\n        /* \"#utility.yul\":6149:6161   */\n      revert\n        /* \"#utility.yul\":6113:6163   */\n    tag_331:\n        /* \"#utility.yul\":6182:6232   */\n      tag_332\n        /* \"#utility.yul\":6224:6231   */\n      dup6\n        /* \"#utility.yul\":6215:6221   */\n      dup3\n        /* \"#utility.yul\":6204:6213   */\n      dup7\n        /* \"#utility.yul\":6200:6222   */\n      add\n        /* \"#utility.yul\":6182:6232   */\n      tag_275\n      jump\t// in\n    tag_332:\n        /* \"#utility.yul\":6172:6232   */\n      swap2\n      pop\n      pop\n        /* \"#utility.yul\":5848:6238   */\n      swap3\n      pop\n      swap3\n      swap1\n      pop\n      jump\t// out\n        /* \"#utility.yul\":6243:7180   */\n    tag_89:\n        /* \"#utility.yul\":6585:6589   */\n      0x00\n        /* \"#utility.yul\":6614:6617   */\n      0x0100\n        /* \"#utility.yul\":6644:6650   */\n      dup11\n        /* \"#utility.yul\":6633:6642   */\n      dup4\n        /* \"#utility.yul\":6626:6651   */\n      mstore\n        /* \"#utility.yul\":6687:6693   */\n      dup10\n        /* \"#utility.yul\":6682:6684   */\n      0x20\n        /* \"#utility.yul\":6671:6680   */\n      dup5\n        /* \"#utility.yul\":6667:6685   */\n      add\n        /* \"#utility.yul\":6660:6694   */\n      mstore\n        /* \"#utility.yul\":6730:6736   */\n      dup9\n        /* \"#utility.yul\":6725:6727   */\n      0x40\n        /* \"#utility.yul\":6714:6723   */\n      dup5\n        /* \"#utility.yul\":6710:6728   */\n      add\n        /* \"#utility.yul\":6703:6737   */\n      mstore\n        /* \"#utility.yul\":6773:6779   */\n      dup8\n        /* \"#utility.yul\":6768:6770   */\n      0x60\n        /* \"#utility.yul\":6757:6766   */\n      dup5\n        /* \"#utility.yul\":6753:6771   */\n      add\n        /* \"#utility.yul\":6746:6780   */\n      mstore\n        /* \"#utility.yul\":6831:6837   */\n      dup7\n        /* \"#utility.yul\":6824:6838   */\n      iszero\n        /* \"#utility.yul\":6817:6839   */\n      iszero\n        /* \"#utility.yul\":6811:6814   */\n      0x80\n        /* \"#utility.yul\":6800:6809   */\n      dup5\n        /* \"#utility.yul\":6796:6815   */\n      add\n        /* \"#utility.yul\":6789:6840   */\n      mstore\n        /* \"#utility.yul\":6877:6879   */\n      dup1\n        /* \"#utility.yul\":6871:6874   */\n      0xa0\n        /* \"#utility.yul\":6860:6869   */\n      dup5\n        /* \"#utility.yul\":6856:6875   */\n      add\n        /* \"#utility.yul\":6849:6880   */\n      mstore\n        /* \"#utility.yul\":6903:6948   */\n      tag_334\n        /* \"#utility.yul\":6944:6946   */\n      dup2\n        /* \"#utility.yul\":6933:6942   */\n      dup5\n        /* \"#utility.yul\":6929:6947   */\n      add\n        /* \"#utility.yul\":6921:6927   */\n      dup8\n        /* \"#utility.yul\":6903:6948   */\n      tag_273\n      jump\t// in\n    tag_334:\n        /* \"#utility.yul\":6889:6948   */\n      swap1\n      pop\n        /* \"#utility.yul\":6997:7006   */\n      dup3\n        /* \"#utility.yul\":6989:6995   */\n      dup2\n        /* \"#utility.yul\":6985:7007   */\n      sub\n        /* \"#utility.yul\":6979:6982   */\n      0xc0\n        /* \"#utility.yul\":6968:6977   */\n      dup5\n        /* \"#utility.yul\":6964:6983   */\n      add\n        /* \"#utility.yul\":6957:7008   */\n      mstore\n        /* \"#utility.yul\":7031:7064   */\n      tag_335\n        /* \"#utility.yul\":7057:7063   */\n      dup2\n        /* \"#utility.yul\":7049:7055   */\n      dup7\n        /* \"#utility.yul\":7031:7064   */\n      tag_273\n      jump\t// in\n    tag_335:\n        /* \"#utility.yul\":7017:7064   */\n      swap1\n      pop\n        /* \"#utility.yul\":7113:7122   */\n      dup3\n        /* \"#utility.yul\":7105:7111   */\n      dup2\n        /* \"#utility.yul\":7101:7123   */\n      sub\n        /* \"#utility.yul\":7095:7098   */\n      0xe0\n        /* \"#utility.yul\":7084:7093   */\n      dup5\n        /* \"#utility.yul\":7080:7099   */\n      add\n        /* \"#utility.yul\":7073:7124   */\n      mstore\n        /* \"#utility.yul\":7141:7174   */\n      tag_336\n        /* \"#utility.yul\":7167:7173   */\n      dup2\n        /* \"#utility.yul\":7159:7165   */\n      dup6\n        /* \"#utility.yul\":7141:7174   */\n      tag_273\n      jump\t// in\n    tag_336:\n        /* \"#utility.yul\":7133:7174   */\n      swap12\n        /* \"#utility.yul\":6243:7180   */\n      swap11\n      pop\n      pop\n      pop\n      pop\n      pop\n      pop\n      pop\n      pop\n      pop\n      pop\n      pop\n      jump\t// out\n        /* \"#utility.yul\":7367:7621   */\n    tag_102:\n        /* \"#utility.yul\":7435:7441   */\n      0x00\n        /* \"#utility.yul\":7443:7449   */\n      dup1\n        /* \"#utility.yul\":7496:7498   */\n      0x40\n        /* \"#utility.yul\":7484:7493   */\n      dup4\n        /* \"#utility.yul\":7475:7482   */\n      dup6\n        /* \"#utility.yul\":7471:7494   */\n      sub\n        /* \"#utility.yul\":7467:7499   */\n      slt\n        /* \"#utility.yul\":7464:7516   */\n      iszero\n      tag_339\n      jumpi\n        /* \"#utility.yul\":7512:7513   */\n      0x00\n        /* \"#utility.yul\":7509:7510   */\n      dup1\n        /* \"#utility.yul\":7502:7514   */\n      revert\n        /* \"#utility.yul\":7464:7516   */\n    tag_339:\n        /* \"#utility.yul\":7535:7564   */\n      tag_340\n        /* \"#utility.yul\":7554:7563   */\n      dup4\n        /* \"#utility.yul\":7535:7564   */\n      tag_272\n      jump\t// in\n    tag_340:\n        /* \"#utility.yul\":7525:7564   */\n      swap5\n        /* \"#utility.yul\":7611:7613   */\n      0x20\n        /* \"#utility.yul\":7596:7614   */\n      swap4\n      swap1\n      swap4\n      add\n        /* \"#utility.yul\":7583:7615   */\n      calldataload\n      swap4\n      pop\n      pop\n      pop\n        /* \"#utility.yul\":7367:7621   */\n      jump\t// out\n        /* \"#utility.yul\":7626:7970   */\n    tag_116:\n        /* \"#utility.yul\":7828:7830   */\n      0x20\n        /* \"#utility.yul\":7810:7831   */\n      dup1\n      dup3\n      mstore\n        /* \"#utility.yul\":7867:7869   */\n      0x14\n        /* \"#utility.yul\":7847:7865   */\n      swap1\n      dup3\n      add\n        /* \"#utility.yul\":7840:7870   */\n      mstore\n      shl(0x60, 0x4d75737420686176652061646d696e20726f6c65)\n        /* \"#utility.yul\":7901:7903   */\n      0x40\n        /* \"#utility.yul\":7886:7904   */\n      dup3\n      add\n        /* \"#utility.yul\":7879:7929   */\n      mstore\n        /* \"#utility.yul\":7961:7963   */\n      0x60\n        /* \"#utility.yul\":7946:7964   */\n      add\n      swap1\n        /* \"#utility.yul\":7626:7970   */\n      jump\t// out\n        /* \"#utility.yul\":7975:8355   */\n    tag_131:\n        /* \"#utility.yul\":8054:8055   */\n      0x01\n        /* \"#utility.yul\":8050:8062   */\n      dup2\n      dup2\n      shr\n      swap1\n        /* \"#utility.yul\":8097:8109   */\n      dup3\n      and\n      dup1\n        /* \"#utility.yul\":8118:8179   */\n      tag_343\n      jumpi\n        /* \"#utility.yul\":8172:8176   */\n      0x7f\n        /* \"#utility.yul\":8164:8170   */\n      dup3\n        /* \"#utility.yul\":8160:8177   */\n      and\n        /* \"#utility.yul\":8150:8177   */\n      swap2\n      pop\n        /* \"#utility.yul\":8118:8179   */\n    tag_343:\n        /* \"#utility.yul\":8225:8227   */\n      0x20\n        /* \"#utility.yul\":8217:8223   */\n      dup3\n        /* \"#utility.yul\":8214:8228   */\n      lt\n        /* \"#utility.yul\":8194:8212   */\n      dup2\n        /* \"#utility.yul\":8191:8229   */\n      sub\n        /* \"#utility.yul\":8188:8349   */\n      tag_344\n      jumpi\n        /* \"#utility.yul\":8271:8281   */\n      0x4e487b71\n        /* \"#utility.yul\":8266:8269   */\n      0xe0\n        /* \"#utility.yul\":8262:8282   */\n      shl\n        /* \"#utility.yul\":8259:8260   */\n      0x00\n        /* \"#utility.yul\":8252:8283   */\n      mstore\n        /* \"#utility.yul\":8306:8310   */\n      0x22\n        /* \"#utility.yul\":8303:8304   */\n      0x04\n        /* \"#utility.yul\":8296:8311   */\n      mstore\n        /* \"#utility.yul\":8334:8338   */\n      0x24\n        /* \"#utility.yul\":8331:8332   */\n      0x00\n        /* \"#utility.yul\":8324:8339   */\n      revert\n        /* \"#utility.yul\":8188:8349   */\n    tag_344:\n      pop\n        /* \"#utility.yul\":7975:8355   */\n      swap2\n      swap1\n      pop\n      jump\t// out\n        /* \"#utility.yul\":8360:8710   */\n    tag_170:\n        /* \"#utility.yul\":8562:8564   */\n      0x20\n        /* \"#utility.yul\":8544:8565   */\n      dup1\n      dup3\n      mstore\n        /* \"#utility.yul\":8601:8603   */\n      0x1a\n        /* \"#utility.yul\":8581:8599   */\n      swap1\n      dup3\n      add\n        /* \"#utility.yul\":8574:8604   */\n      mstore\n      shl(0x32, 0x125b9d985b1a59081d1c985b9cd858dd1a5bdb88185b5bdd5b9d)\n        /* \"#utility.yul\":8635:8637   */\n      0x40\n        /* \"#utility.yul\":8620:8638   */\n      dup3\n      add\n        /* \"#utility.yul\":8613:8669   */\n      mstore\n        /* \"#utility.yul\":8701:8703   */\n      0x60\n        /* \"#utility.yul\":8686:8704   */\n      add\n      swap1\n        /* \"#utility.yul\":8360:8710   */\n      jump\t// out\n        /* \"#utility.yul\":8715:8842   */\n    tag_276:\n        /* \"#utility.yul\":8776:8786   */\n      0x4e487b71\n        /* \"#utility.yul\":8771:8774   */\n      0xe0\n        /* \"#utility.yul\":8767:8787   */\n      shl\n        /* \"#utility.yul\":8764:8765   */\n      0x00\n        /* \"#utility.yul\":8757:8788   */\n      mstore\n        /* \"#utility.yul\":8807:8811   */\n      0x11\n        /* \"#utility.yul\":8804:8805   */\n      0x04\n        /* \"#utility.yul\":8797:8812   */\n      mstore\n        /* \"#utility.yul\":8831:8835   */\n      0x24\n        /* \"#utility.yul\":8828:8829   */\n      0x00\n        /* \"#utility.yul\":8821:8836   */\n      revert\n        /* \"#utility.yul\":8847:8972   */\n    tag_177:\n        /* \"#utility.yul\":8912:8921   */\n      dup1\n      dup3\n      add\n        /* \"#utility.yul\":8933:8943   */\n      dup1\n      dup3\n      gt\n        /* \"#utility.yul\":8930:8966   */\n      iszero\n      tag_110\n      jumpi\n        /* \"#utility.yul\":8946:8964   */\n      tag_110\n      tag_276\n      jump\t// in\n        /* \"#utility.yul\":9103:9621   */\n    tag_278:\n        /* \"#utility.yul\":9205:9207   */\n      0x1f\n        /* \"#utility.yul\":9200:9203   */\n      dup3\n        /* \"#utility.yul\":9197:9208   */\n      gt\n        /* \"#utility.yul\":9194:9615   */\n      iszero\n      tag_150\n      jumpi\n        /* \"#utility.yul\":9241:9246   */\n      dup1\n        /* \"#utility.yul\":9238:9239   */\n      0x00\n        /* \"#utility.yul\":9231:9247   */\n      mstore\n        /* \"#utility.yul\":9285:9289   */\n      0x20\n        /* \"#utility.yul\":9282:9283   */\n      0x00\n        /* \"#utility.yul\":9272:9290   */\n      keccak256\n        /* \"#utility.yul\":9355:9357   */\n      0x1f\n        /* \"#utility.yul\":9343:9353   */\n      dup5\n        /* \"#utility.yul\":9339:9358   */\n      add\n        /* \"#utility.yul\":9336:9337   */\n      0x05\n        /* \"#utility.yul\":9332:9359   */\n      shr\n        /* \"#utility.yul\":9326:9330   */\n      dup2\n        /* \"#utility.yul\":9322:9360   */\n      add\n        /* \"#utility.yul\":9391:9395   */\n      0x20\n        /* \"#utility.yul\":9379:9389   */\n      dup6\n        /* \"#utility.yul\":9376:9396   */\n      lt\n        /* \"#utility.yul\":9373:9420   */\n      iszero\n      tag_353\n      jumpi\n      pop\n        /* \"#utility.yul\":9414:9418   */\n      dup1\n        /* \"#utility.yul\":9373:9420   */\n    tag_353:\n        /* \"#utility.yul\":9469:9471   */\n      0x1f\n        /* \"#utility.yul\":9464:9467   */\n      dup5\n        /* \"#utility.yul\":9460:9472   */\n      add\n        /* \"#utility.yul\":9457:9458   */\n      0x05\n        /* \"#utility.yul\":9453:9473   */\n      shr\n        /* \"#utility.yul\":9447:9451   */\n      dup3\n        /* \"#utility.yul\":9443:9474   */\n      add\n        /* \"#utility.yul\":9433:9474   */\n      swap2\n      pop\n        /* \"#utility.yul\":9524:9605   */\n    tag_354:\n        /* \"#utility.yul\":9542:9544   */\n      dup2\n        /* \"#utility.yul\":9535:9540   */\n      dup2\n        /* \"#utility.yul\":9532:9545   */\n      lt\n        /* \"#utility.yul\":9524:9605   */\n      iszero\n      tag_356\n      jumpi\n        /* \"#utility.yul\":9601:9602   */\n      0x00\n        /* \"#utility.yul\":9587:9603   */\n      dup2\n      sstore\n        /* \"#utility.yul\":9568:9569   */\n      0x01\n        /* \"#utility.yul\":9557:9570   */\n      add\n        /* \"#utility.yul\":9524:9605   */\n      jump(tag_354)\n    tag_356:\n        /* \"#utility.yul\":9528:9531   */\n      pop\n      pop\n        /* \"#utility.yul\":9103:9621   */\n      pop\n      pop\n      pop\n      jump\t// out\n        /* \"#utility.yul\":9797:11142   */\n    tag_179:\n        /* \"#utility.yul\":9917:9927   */\n      dup2\n      mload\n      sub(shl(0x40, 0x01), 0x01)\n        /* \"#utility.yul\":9939:9969   */\n      dup2\n      gt\n        /* \"#utility.yul\":9936:9992   */\n      iszero\n      tag_360\n      jumpi\n        /* \"#utility.yul\":9972:9990   */\n      tag_360\n      tag_274\n      jump\t// in\n    tag_360:\n        /* \"#utility.yul\":10001:10098   */\n      tag_361\n        /* \"#utility.yul\":10091:10097   */\n      dup2\n        /* \"#utility.yul\":10051:10089   */\n      tag_362\n        /* \"#utility.yul\":10083:10087   */\n      dup5\n        /* \"#utility.yul\":10077:10088   */\n      sload\n        /* \"#utility.yul\":10051:10089   */\n      tag_131\n      jump\t// in\n    tag_362:\n        /* \"#utility.yul\":10045:10049   */\n      dup5\n        /* \"#utility.yul\":10001:10098   */\n      tag_278\n      jump\t// in\n    tag_361:\n        /* \"#utility.yul\":10153:10157   */\n      0x20\n      dup1\n        /* \"#utility.yul\":10210:10212   */\n      0x1f\n        /* \"#utility.yul\":10199:10213   */\n      dup4\n      gt\n        /* \"#utility.yul\":10227:10228   */\n      0x01\n        /* \"#utility.yul\":10222:10885   */\n      dup2\n      eq\n      tag_364\n      jumpi\n        /* \"#utility.yul\":10929:10930   */\n      0x00\n        /* \"#utility.yul\":10946:10952   */\n      dup5\n        /* \"#utility.yul\":10943:11032   */\n      iszero\n      tag_365\n      jumpi\n      pop\n        /* \"#utility.yul\":10998:11017   */\n      dup6\n      dup4\n      add\n        /* \"#utility.yul\":10992:11018   */\n      mload\n        /* \"#utility.yul\":10943:11032   */\n    tag_365:\n      not(0x00)\n        /* \"#utility.yul\":9754:9755   */\n      0x03\n        /* \"#utility.yul\":9750:9761   */\n      dup7\n      swap1\n      shl\n        /* \"#utility.yul\":9746:9770   */\n      shr\n        /* \"#utility.yul\":9742:9771   */\n      not\n        /* \"#utility.yul\":9732:9772   */\n      and\n        /* \"#utility.yul\":9778:9779   */\n      0x01\n        /* \"#utility.yul\":9774:9785   */\n      dup6\n      swap1\n      shl\n        /* \"#utility.yul\":9729:9786   */\n      or\n        /* \"#utility.yul\":11045:11126   */\n      dup6\n      sstore\n        /* \"#utility.yul\":10192:11136   */\n      jump(tag_363)\n        /* \"#utility.yul\":10222:10885   */\n    tag_364:\n        /* \"#utility.yul\":9050:9051   */\n      0x00\n        /* \"#utility.yul\":9043:9057   */\n      dup6\n      dup2\n      mstore\n        /* \"#utility.yul\":9087:9091   */\n      0x20\n        /* \"#utility.yul\":9074:9092   */\n      dup2\n      keccak256\n      not(0x1f)\n        /* \"#utility.yul\":10258:10278   */\n      dup7\n      and\n      swap2\n        /* \"#utility.yul\":10376:10612   */\n    tag_368:\n        /* \"#utility.yul\":10390:10397   */\n      dup3\n        /* \"#utility.yul\":10387:10388   */\n      dup2\n        /* \"#utility.yul\":10384:10398   */\n      lt\n        /* \"#utility.yul\":10376:10612   */\n      iszero\n      tag_370\n      jumpi\n        /* \"#utility.yul\":10479:10498   */\n      dup9\n      dup7\n      add\n        /* \"#utility.yul\":10473:10499   */\n      mload\n        /* \"#utility.yul\":10458:10500   */\n      dup3\n      sstore\n        /* \"#utility.yul\":10571:10598   */\n      swap5\n      dup5\n      add\n      swap5\n        /* \"#utility.yul\":10539:10540   */\n      0x01\n        /* \"#utility.yul\":10527:10541   */\n      swap1\n      swap2\n      add\n      swap1\n        /* \"#utility.yul\":10406:10425   */\n      dup5\n      add\n        /* \"#utility.yul\":10376:10612   */\n      jump(tag_368)\n    tag_370:\n        /* \"#utility.yul\":10380:10383   */\n      pop\n        /* \"#utility.yul\":10640:10646   */\n      dup6\n        /* \"#utility.yul\":10631:10638   */\n      dup3\n        /* \"#utility.yul\":10628:10647   */\n      lt\n        /* \"#utility.yul\":10625:10826   */\n      iszero\n      tag_371\n      jumpi\n        /* \"#utility.yul\":10701:10720   */\n      dup8\n      dup6\n      add\n        /* \"#utility.yul\":10695:10721   */\n      mload\n      not(0x00)\n        /* \"#utility.yul\":10784:10785   */\n      0x03\n        /* \"#utility.yul\":10780:10794   */\n      dup9\n      swap1\n      shl\n        /* \"#utility.yul\":10796:10799   */\n      0xf8\n        /* \"#utility.yul\":10776:10800   */\n      and\n        /* \"#utility.yul\":10772:10809   */\n      shr\n        /* \"#utility.yul\":10768:10810   */\n      not\n        /* \"#utility.yul\":10753:10811   */\n      and\n        /* \"#utility.yul\":10738:10812   */\n      dup2\n      sstore\n        /* \"#utility.yul\":10625:10826   */\n    tag_371:\n      pop\n      pop\n        /* \"#utility.yul\":10872:10873   */\n      0x01\n        /* \"#utility.yul\":10863:10869   */\n      dup5\n        /* \"#utility.yul\":10860:10861   */\n      0x01\n        /* \"#utility.yul\":10856:10870   */\n      shl\n        /* \"#utility.yul\":10852:10874   */\n      add\n        /* \"#utility.yul\":10846:10850   */\n      dup6\n        /* \"#utility.yul\":10839:10875   */\n      sstore\n        /* \"#utility.yul\":10192:11136   */\n    tag_363:\n      pop\n      pop\n      pop\n      pop\n        /* \"#utility.yul\":9797:11142   */\n      pop\n      pop\n      jump\t// out\n        /* \"#utility.yul\":11147:11548   */\n    tag_183:\n        /* \"#utility.yul\":11372:11397   */\n      swap4\n      dup5\n      mstore\n        /* \"#utility.yul\":11428:11430   */\n      0x20\n        /* \"#utility.yul\":11413:11431   */\n      dup5\n      add\n        /* \"#utility.yul\":11406:11440   */\n      swap3\n      swap1\n      swap3\n      mstore\n        /* \"#utility.yul\":11471:11473   */\n      0x40\n        /* \"#utility.yul\":11456:11474   */\n      dup4\n      add\n        /* \"#utility.yul\":11449:11483   */\n      mstore\n        /* \"#utility.yul\":11526:11540   */\n      iszero\n        /* \"#utility.yul\":11519:11541   */\n      iszero\n        /* \"#utility.yul\":11514:11516   */\n      0x60\n        /* \"#utility.yul\":11499:11517   */\n      dup3\n      add\n        /* \"#utility.yul\":11492:11542   */\n      mstore\n        /* \"#utility.yul\":11359:11362   */\n      0x80\n        /* \"#utility.yul\":11344:11363   */\n      add\n      swap1\n        /* \"#utility.yul\":11147:11548   */\n      jump\t// out\n        /* \"#utility.yul\":11553:11908   */\n    tag_188:\n        /* \"#utility.yul\":11755:11757   */\n      0x20\n        /* \"#utility.yul\":11737:11758   */\n      dup1\n      dup3\n      mstore\n        /* \"#utility.yul\":11794:11796   */\n      0x1f\n        /* \"#utility.yul\":11774:11792   */\n      swap1\n      dup3\n      add\n        /* \"#utility.yul\":11767:11797   */\n      mstore\n        /* \"#utility.yul\":11833:11866   */\n      0x5472616e73616374696f6e20766572696669636174696f6e206661696c656400\n        /* \"#utility.yul\":11828:11830   */\n      0x40\n        /* \"#utility.yul\":11813:11831   */\n      dup3\n      add\n        /* \"#utility.yul\":11806:11867   */\n      mstore\n        /* \"#utility.yul\":11899:11901   */\n      0x60\n        /* \"#utility.yul\":11884:11902   */\n      add\n      swap1\n        /* \"#utility.yul\":11553:11908   */\n      jump\t// out\n        /* \"#utility.yul\":12166:12301   */\n    tag_194:\n        /* \"#utility.yul\":12205:12208   */\n      0x00\n        /* \"#utility.yul\":12226:12243   */\n      0x01\n      dup3\n      add\n        /* \"#utility.yul\":12223:12266   */\n      tag_377\n      jumpi\n        /* \"#utility.yul\":12246:12264   */\n      tag_377\n      tag_276\n      jump\t// in\n    tag_377:\n      pop\n        /* \"#utility.yul\":12293:12294   */\n      0x01\n        /* \"#utility.yul\":12282:12295   */\n      add\n      swap1\n        /* \"#utility.yul\":12166:12301   */\n      jump\t// out\n    stop\n    data_9c197ab64675a520bf3233aead5e60d73572922e84bf54bfd7e89534eb4c0ba4 20b5f7ac978e5d6199de06401411960dfa81d2f762655f6206bdc61d46fc19e6\n    data_b1eeacb7015d5eea6ab68ae83406044e6eeb68c881f609b5930d7679bbeacf11 f336e0d295a4b3c927e3fe914bff3de35db11927b33eebff38a9ee3200b76331\n    data_c15a3b9117c1bb56d150de62cffd0fca376190faa4f51f73e3cfa82caeef2cb5 7841012161f9c936b49bb41132193f0249c83d281379bbecdfaa829be0d3df89\n    data_cb864c43dd5d441bb6271f424f11befa622c032dfd374d226e26fbbdb782b8f8 a49807205ce4d355092ef5a8a18f56e8913cf4a201fbe287825b095693c21775\n\n    auxdata: 0xa26469706673582212204ce084763c59c6536b758b57d7ed111b0eb0ee8b9a62a68d7abaae0937cc976464736f6c63430008160033\n}\n",
				"bytecode": {
					"linkReferences": {},
					"object": "6080604052600160055534801562000015575f80fd5b50620000225f3362000095565b506200004f7fa49807205ce4d355092ef5a8a18f56e8913cf4a201fbe287825b095693c217753362000095565b506200007c7f20b5f7ac978e5d6199de06401411960dfa81d2f762655f6206bdc61d46fc19e63362000095565b50600780546001600160a01b0319163317905562000141565b5f828152602081815260408083206001600160a01b038516845290915281205460ff1662000138575f838152602081815260408083206001600160a01b03861684529091529020805460ff19166001179055620000ef3390565b6001600160a01b0316826001600160a01b0316847f2f8788117e7eff1d82e926ec794901d17c78024a50270940304540a733656f0d60405160405180910390a45060016200013b565b505f5b92915050565b611674806200014f5f395ff3fe608060405234801561000f575f80fd5b5060043610610105575f3560e01c806301ffc9a714610109578063144bf589146101315780631785f53c14610153578063248a9ca3146101685780632f2ff15d1461017b57806333ea3dc81461018e57806336568abe146101ae578063379f5fed146101c15780636fe691dc146101d457806370480275146101e957806375b238fc146101fc5780638cb59708146102105780638da5cb5b1461022357806391d148541461024e57806393e080e0146102615780639ace38c214610274578063a217fddf1461029b578063ac63f3c7146102a2578063b77bf600146102b5578063b842ec44146102be578063d547741f146102d1575b5f80fd5b61011c610117366004610fc3565b6102e4565b60405190151581526020015b60405180910390f35b6101455f805160206115bf83398151915281565b604051908152602001610128565b61016661016136600461100c565b61031a565b005b610145610176366004611025565b610370565b61016661018936600461103c565b610384565b6101a161019c366004611025565b6103a6565b60405161012891906110a9565b6101666101bc36600461103c565b6105ff565b6101666101cf36600461100c565b610637565b6101dc610681565b6040516101289190611148565b6101666101f736600461100c565b6106df565b6101455f8051602061161f83398151915281565b61016661021e366004611227565b61072d565b600754610236906001600160a01b031681565b6040516001600160a01b039091168152602001610128565b61011c61025c36600461103c565b610947565b61016661026f3660046112b2565b61096f565b610287610282366004611025565b610bdc565b6040516101289897969594939291906112f5565b6101455f81565b6101666102b036600461100c565b610db6565b61014560085481565b6101456102cc36600461135f565b610e00565b6101666102df36600461103c565b610e2b565b5f6001600160e01b03198216637965db0b60e01b148061031457506301ffc9a760e01b6001600160e01b03198316145b92915050565b6103315f8051602061161f83398151915233610947565b6103565760405162461bcd60e51b815260040161034d90611387565b60405180910390fd5b61036d5f8051602061161f83398151915282610e2b565b50565b5f9081526020819052604090206001015490565b61038d82610370565b61039681610e47565b6103a08383610e51565b50505050565b6103f16040518061010001604052805f80191681526020015f80191681526020015f81526020015f81526020015f151581526020016060815260200160608152602001606081525090565b5f828152600960209081526040918290208251610100810184528154815260018201549281019290925260028101549282019290925260038201546060820152600482015460ff161515608082015260058201805491929160a084019190610458906113b5565b80601f0160208091040260200160405190810160405280929190818152602001828054610484906113b5565b80156104cf5780601f106104a6576101008083540402835291602001916104cf565b820191905f5260205f20905b8154815290600101906020018083116104b257829003601f168201915b505050505081526020016006820180546104e8906113b5565b80601f0160208091040260200160405190810160405280929190818152602001828054610514906113b5565b801561055f5780601f106105365761010080835404028352916020019161055f565b820191905f5260205f20905b81548152906001019060200180831161054257829003601f168201915b50505050508152602001600782018054610578906113b5565b80601f01602080910402602001604051908101604052809291908181526020018280546105a4906113b5565b80156105ef5780601f106105c6576101008083540402835291602001916105ef565b820191905f5260205f20905b8154815290600101906020018083116105d257829003601f168201915b5050505050815250509050919050565b6001600160a01b03811633146106285760405163334bd91960e11b815260040160405180910390fd5b6106328282610ee0565b505050565b61064e5f8051602061161f83398151915233610947565b61066a5760405162461bcd60e51b815260040161034d90611387565b61036d5f805160206115bf83398151915282610e2b565b335f908152600a60209081526040918290208054835181840281018401909452808452606093928301828280156106d557602002820191905f5260205f20905b8154815260200190600101908083116106c1575b5050505050905090565b6106f65f8051602061161f83398151915233610947565b6107125760405162461bcd60e51b815260040161034d90611387565b6107295f8051602061161f83398151915282610e51565b5050565b5f841161074c5760405162461bcd60e51b815260040161034d906113ed565b683635c9adc5dea000008411156107755760405162461bcd60e51b815260040161034d906113ed565b5f6107803342610f49565b90505f61079733610792426001611435565b610f49565b604080516101008101825284815260208082018481528284018b815242606085019081525f6080860181815260a087018e815260c088018e905260e088018d905260085483526009909652969020855181559251600184015590516002830155516003820155925160048401805460ff1916911515919091179055519293509160058201906108269082611493565b5060c0820151600682019061083b9082611493565b5060e082015160078201906108509082611493565b50506008545f818152600960205260408082206001810154815460028301546003909301549351919650945f805160206115df8339815191529461089694919392611552565b60405180910390a36108b086681b1ae4d6e2ef5000001090565b6108cc5760405162461bcd60e51b815260040161034d9061156f565b60085460408051428152602081018990525f805160206115ff833981519152910160405180910390a2335f908152600a602090815260408220600880548254600180820185558487529486209081019190915581548354948501909355929092015580549161093a836115a6565b9190505550505050505050565b5f918252602082815260408084206001600160a01b0393909316845291905290205460ff1690565b6109865f805160206115bf83398151915233610947565b6109cd5760405162461bcd60e51b81526020600482015260186024820152774d757374206861766520726567756c61746f7220726f6c6560401b604482015260640161034d565b683635c9adc5dea000008211156109f65760405162461bcd60e51b815260040161034d906113ed565b610a0882681b1ae4d6e2ef5000001090565b610a245760405162461bcd60e51b815260040161034d9061156f565b5f610a2f3342610f49565b90505f610a4133610792426001611435565b604080516101008101825284815260208082018481528284018981524260608501908152600160808601818152875180870189525f80825260a0890191825289518089018b5281815260c08a015260e089018e905260085481526009909752979095208651815593519084015590516002830155516003820155905160048201805460ff19169115159190911790559151929350916005820190610ae59082611493565b5060c08201516006820190610afa9082611493565b5060e08201516007820190610b0f9082611493565b50506008545f8181526009602052604090819020600180820154825460028401546003909401549451919650945f805160206115df83398151915294610b5b9491939192909190611552565b60405180910390a360085460408051428152602081018790525f805160206115ff833981519152910160405180910390a2335f908152600a6020908152604082206008805482546001808201855584875294862090810191909155815483549485019093559290920155805491610bd1836115a6565b919050555050505050565b60096020525f9081526040902080546001820154600283015460038401546004850154600586018054959694959394929360ff9092169291610c1d906113b5565b80601f0160208091040260200160405190810160405280929190818152602001828054610c49906113b5565b8015610c945780601f10610c6b57610100808354040283529160200191610c94565b820191905f5260205f20905b815481529060010190602001808311610c7757829003601f168201915b505050505090806006018054610ca9906113b5565b80601f0160208091040260200160405190810160405280929190818152602001828054610cd5906113b5565b8015610d205780601f10610cf757610100808354040283529160200191610d20565b820191905f5260205f20905b815481529060010190602001808311610d0357829003601f168201915b505050505090806007018054610d35906113b5565b80601f0160208091040260200160405190810160405280929190818152602001828054610d61906113b5565b8015610dac5780601f10610d8357610100808354040283529160200191610dac565b820191905f5260205f20905b815481529060010190602001808311610d8f57829003601f168201915b5050505050905088565b610dcd5f8051602061161f83398151915233610947565b610de95760405162461bcd60e51b815260040161034d90611387565b6107295f805160206115bf83398151915282610e51565b600a602052815f5260405f208181548110610e19575f80fd5b905f5260205f20015f91509150505481565b610e3482610370565b610e3d81610e47565b6103a08383610ee0565b61036d8133610f8a565b5f610e5c8383610947565b610ed9575f838152602081815260408083206001600160a01b03861684529091529020805460ff19166001179055610e913390565b6001600160a01b0316826001600160a01b0316847f2f8788117e7eff1d82e926ec794901d17c78024a50270940304540a733656f0d60405160405180910390a4506001610314565b505f610314565b5f610eeb8383610947565b15610ed9575f838152602081815260408083206001600160a01b0386168085529252808320805460ff1916905551339286917ff6391f5c32d9c69d2a47ea670b442974b53935d1edc7fd64eb21e047a839171b9190a4506001610314565b6040516001600160601b0319606084901b166020820152603481018290525f9060540160405160208183030381529060405280519060200120905092915050565b610f948282610947565b6107295760405163e2517d3f60e01b81526001600160a01b03821660048201526024810183905260440161034d565b5f60208284031215610fd3575f80fd5b81356001600160e01b031981168114610fea575f80fd5b9392505050565b80356001600160a01b0381168114611007575f80fd5b919050565b5f6020828403121561101c575f80fd5b610fea82610ff1565b5f60208284031215611035575f80fd5b5035919050565b5f806040838503121561104d575f80fd5b8235915061105d60208401610ff1565b90509250929050565b5f81518084525f5b8181101561108a5760208185018101518683018201520161106e565b505f602082860101526020601f19601f83011685010191505092915050565b60208152815160208201526020820151604082015260408201516060820152606082015160808201525f60808301516110e660a084018215159052565b5060a08301516101008060c0850152611103610120850183611066565b915060c0850151601f19808685030160e08701526111218483611066565b935060e087015191508086850301838701525061113e8382611066565b9695505050505050565b602080825282518282018190525f9190848201906040850190845b8181101561117f57835183529284019291840191600101611163565b50909695505050505050565b634e487b7160e01b5f52604160045260245ffd5b5f82601f8301126111ae575f80fd5b81356001600160401b03808211156111c8576111c861118b565b604051601f8301601f19908116603f011681019082821181831017156111f0576111f061118b565b81604052838152866020858801011115611208575f80fd5b836020870160208301375f602085830101528094505050505092915050565b5f805f806080858703121561123a575f80fd5b8435935060208501356001600160401b0380821115611257575f80fd5b6112638883890161119f565b94506040870135915080821115611278575f80fd5b6112848883890161119f565b93506060870135915080821115611299575f80fd5b506112a68782880161119f565b91505092959194509250565b5f80604083850312156112c3575f80fd5b8235915060208301356001600160401b038111156112df575f80fd5b6112eb8582860161119f565b9150509250929050565b5f6101008a835289602084015288604084015287606084015286151560808401528060a084015261132881840187611066565b905082810360c084015261133c8186611066565b905082810360e08401526113508185611066565b9b9a5050505050505050505050565b5f8060408385031215611370575f80fd5b61137983610ff1565b946020939093013593505050565b6020808252601490820152734d75737420686176652061646d696e20726f6c6560601b604082015260600190565b600181811c908216806113c957607f821691505b6020821081036113e757634e487b7160e01b5f52602260045260245ffd5b50919050565b6020808252601a9082015279125b9d985b1a59081d1c985b9cd858dd1a5bdb88185b5bdd5b9d60321b604082015260600190565b634e487b7160e01b5f52601160045260245ffd5b8082018082111561031457610314611421565b601f82111561063257805f5260205f20601f840160051c8101602085101561146d5750805b601f840160051c820191505b8181101561148c575f8155600101611479565b5050505050565b81516001600160401b038111156114ac576114ac61118b565b6114c0816114ba84546113b5565b84611448565b602080601f8311600181146114f3575f84156114dc5750858301515b5f19600386901b1c1916600185901b17855561154a565b5f85815260208120601f198616915b8281101561152157888601518255948401946001909101908401611502565b508582101561153e57878501515f19600388901b60f8161c191681555b505060018460011b0185555b505050505050565b938452602084019290925260408301521515606082015260800190565b6020808252601f908201527f5472616e73616374696f6e20766572696669636174696f6e206661696c656400604082015260600190565b5f600182016115b7576115b7611421565b506001019056fe20b5f7ac978e5d6199de06401411960dfa81d2f762655f6206bdc61d46fc19e6f336e0d295a4b3c927e3fe914bff3de35db11927b33eebff38a9ee3200b763317841012161f9c936b49bb41132193f0249c83d281379bbecdfaa829be0d3df89a49807205ce4d355092ef5a8a18f56e8913cf4a201fbe287825b095693c21775a26469706673582212204ce084763c59c6536b758b57d7ed111b0eb0ee8b9a62a68d7abaae0937cc976464736f6c63430008160033",
					"opcodes": "PUSH1 0x80 PUSH1 0x40 MSTORE PUSH1 0x1 PUSH1 0x5 SSTORE CALLVALUE DUP1 ISZERO PUSH3 0x15 JUMPI PUSH0 DUP1 REVERT JUMPDEST POP PUSH3 0x22 PUSH0 CALLER PUSH3 0x95 JUMP JUMPDEST POP PUSH3 0x4F PUSH32 0xA49807205CE4D355092EF5A8A18F56E8913CF4A201FBE287825B095693C21775 CALLER PUSH3 0x95 JUMP JUMPDEST POP PUSH3 0x7C PUSH32 0x20B5F7AC978E5D6199DE06401411960DFA81D2F762655F6206BDC61D46FC19E6 CALLER PUSH3 0x95 JUMP JUMPDEST POP PUSH1 0x7 DUP1 SLOAD PUSH1 0x1 PUSH1 0x1 PUSH1 0xA0 SHL SUB NOT AND CALLER OR SWAP1 SSTORE PUSH3 0x141 JUMP JUMPDEST PUSH0 DUP3 DUP2 MSTORE PUSH1 0x20 DUP2 DUP2 MSTORE PUSH1 0x40 DUP1 DUP4 KECCAK256 PUSH1 0x1 PUSH1 0x1 PUSH1 0xA0 SHL SUB DUP6 AND DUP5 MSTORE SWAP1 SWAP2 MSTORE DUP2 KECCAK256 SLOAD PUSH1 0xFF AND PUSH3 0x138 JUMPI PUSH0 DUP4 DUP2 MSTORE PUSH1 0x20 DUP2 DUP2 MSTORE PUSH1 0x40 DUP1 DUP4 KECCAK256 PUSH1 0x1 PUSH1 0x1 PUSH1 0xA0 SHL SUB DUP7 AND DUP5 MSTORE SWAP1 SWAP2 MSTORE SWAP1 KECCAK256 DUP1 SLOAD PUSH1 0xFF NOT AND PUSH1 0x1 OR SWAP1 SSTORE PUSH3 0xEF CALLER SWAP1 JUMP JUMPDEST PUSH1 0x1 PUSH1 0x1 PUSH1 0xA0 SHL SUB AND DUP3 PUSH1 0x1 PUSH1 0x1 PUSH1 0xA0 SHL SUB AND DUP5 PUSH32 0x2F8788117E7EFF1D82E926EC794901D17C78024A50270940304540A733656F0D PUSH1 0x40 MLOAD PUSH1 0x40 MLOAD DUP1 SWAP2 SUB SWAP1 LOG4 POP PUSH1 0x1 PUSH3 0x13B JUMP JUMPDEST POP PUSH0 JUMPDEST SWAP3 SWAP2 POP POP JUMP JUMPDEST PUSH2 0x1674 DUP1 PUSH3 0x14F PUSH0 CODECOPY PUSH0 RETURN INVALID PUSH1 0x80 PUSH1 0x40 MSTORE CALLVALUE DUP1 ISZERO PUSH2 0xF JUMPI PUSH0 DUP1 REVERT JUMPDEST POP PUSH1 0x4 CALLDATASIZE LT PUSH2 0x105 JUMPI PUSH0 CALLDATALOAD PUSH1 0xE0 SHR DUP1 PUSH4 0x1FFC9A7 EQ PUSH2 0x109 JUMPI DUP1 PUSH4 0x144BF589 EQ PUSH2 0x131 JUMPI DUP1 PUSH4 0x1785F53C EQ PUSH2 0x153 JUMPI DUP1 PUSH4 0x248A9CA3 EQ PUSH2 0x168 JUMPI DUP1 PUSH4 0x2F2FF15D EQ PUSH2 0x17B JUMPI DUP1 PUSH4 0x33EA3DC8 EQ PUSH2 0x18E JUMPI DUP1 PUSH4 0x36568ABE EQ PUSH2 0x1AE JUMPI DUP1 PUSH4 0x379F5FED EQ PUSH2 0x1C1 JUMPI DUP1 PUSH4 0x6FE691DC EQ PUSH2 0x1D4 JUMPI DUP1 PUSH4 0x70480275 EQ PUSH2 0x1E9 JUMPI DUP1 PUSH4 0x75B238FC EQ PUSH2 0x1FC JUMPI DUP1 PUSH4 0x8CB59708 EQ PUSH2 0x210 JUMPI DUP1 PUSH4 0x8DA5CB5B EQ PUSH2 0x223 JUMPI DUP1 PUSH4 0x91D14854 EQ PUSH2 0x24E JUMPI DUP1 PUSH4 0x93E080E0 EQ PUSH2 0x261 JUMPI DUP1 PUSH4 0x9ACE38C2 EQ PUSH2 0x274 JUMPI DUP1 PUSH4 0xA217FDDF EQ PUSH2 0x29B JUMPI DUP1 PUSH4 0xAC63F3C7 EQ PUSH2 0x2A2 JUMPI DUP1 PUSH4 0xB77BF600 EQ PUSH2 0x2B5 JUMPI DUP1 PUSH4 0xB842EC44 EQ PUSH2 0x2BE JUMPI DUP1 PUSH4 0xD547741F EQ PUSH2 0x2D1 JUMPI JUMPDEST PUSH0 DUP1 REVERT JUMPDEST PUSH2 0x11C PUSH2 0x117 CALLDATASIZE PUSH1 0x4 PUSH2 0xFC3 JUMP JUMPDEST PUSH2 0x2E4 JUMP JUMPDEST PUSH1 0x40 MLOAD SWAP1 ISZERO ISZERO DUP2 MSTORE PUSH1 0x20 ADD JUMPDEST PUSH1 0x40 MLOAD DUP1 SWAP2 SUB SWAP1 RETURN JUMPDEST PUSH2 0x145 PUSH0 DUP1 MLOAD PUSH1 0x20 PUSH2 0x15BF DUP4 CODECOPY DUP2 MLOAD SWAP2 MSTORE DUP2 JUMP JUMPDEST PUSH1 0x40 MLOAD SWAP1 DUP2 MSTORE PUSH1 0x20 ADD PUSH2 0x128 JUMP JUMPDEST PUSH2 0x166 PUSH2 0x161 CALLDATASIZE PUSH1 0x4 PUSH2 0x100C JUMP JUMPDEST PUSH2 0x31A JUMP JUMPDEST STOP JUMPDEST PUSH2 0x145 PUSH2 0x176 CALLDATASIZE PUSH1 0x4 PUSH2 0x1025 JUMP JUMPDEST PUSH2 0x370 JUMP JUMPDEST PUSH2 0x166 PUSH2 0x189 CALLDATASIZE PUSH1 0x4 PUSH2 0x103C JUMP JUMPDEST PUSH2 0x384 JUMP JUMPDEST PUSH2 0x1A1 PUSH2 0x19C CALLDATASIZE PUSH1 0x4 PUSH2 0x1025 JUMP JUMPDEST PUSH2 0x3A6 JUMP JUMPDEST PUSH1 0x40 MLOAD PUSH2 0x128 SWAP2 SWAP1 PUSH2 0x10A9 JUMP JUMPDEST PUSH2 0x166 PUSH2 0x1BC CALLDATASIZE PUSH1 0x4 PUSH2 0x103C JUMP JUMPDEST PUSH2 0x5FF JUMP JUMPDEST PUSH2 0x166 PUSH2 0x1CF CALLDATASIZE PUSH1 0x4 PUSH2 0x100C JUMP JUMPDEST PUSH2 0x637 JUMP JUMPDEST PUSH2 0x1DC PUSH2 0x681 JUMP JUMPDEST PUSH1 0x40 MLOAD PUSH2 0x128 SWAP2 SWAP1 PUSH2 0x1148 JUMP JUMPDEST PUSH2 0x166 PUSH2 0x1F7 CALLDATASIZE PUSH1 0x4 PUSH2 0x100C JUMP JUMPDEST PUSH2 0x6DF JUMP JUMPDEST PUSH2 0x145 PUSH0 DUP1 MLOAD PUSH1 0x20 PUSH2 0x161F DUP4 CODECOPY DUP2 MLOAD SWAP2 MSTORE DUP2 JUMP JUMPDEST PUSH2 0x166 PUSH2 0x21E CALLDATASIZE PUSH1 0x4 PUSH2 0x1227 JUMP JUMPDEST PUSH2 0x72D JUMP JUMPDEST PUSH1 0x7 SLOAD PUSH2 0x236 SWAP1 PUSH1 0x1 PUSH1 0x1 PUSH1 0xA0 SHL SUB AND DUP2 JUMP JUMPDEST PUSH1 0x40 MLOAD PUSH1 0x1 PUSH1 0x1 PUSH1 0xA0 SHL SUB SWAP1 SWAP2 AND DUP2 MSTORE PUSH1 0x20 ADD PUSH2 0x128 JUMP JUMPDEST PUSH2 0x11C PUSH2 0x25C CALLDATASIZE PUSH1 0x4 PUSH2 0x103C JUMP JUMPDEST PUSH2 0x947 JUMP JUMPDEST PUSH2 0x166 PUSH2 0x26F CALLDATASIZE PUSH1 0x4 PUSH2 0x12B2 JUMP JUMPDEST PUSH2 0x96F JUMP JUMPDEST PUSH2 0x287 PUSH2 0x282 CALLDATASIZE PUSH1 0x4 PUSH2 0x1025 JUMP JUMPDEST PUSH2 0xBDC JUMP JUMPDEST PUSH1 0x40 MLOAD PUSH2 0x128 SWAP9 SWAP8 SWAP7 SWAP6 SWAP5 SWAP4 SWAP3 SWAP2 SWAP1 PUSH2 0x12F5 JUMP JUMPDEST PUSH2 0x145 PUSH0 DUP2 JUMP JUMPDEST PUSH2 0x166 PUSH2 0x2B0 CALLDATASIZE PUSH1 0x4 PUSH2 0x100C JUMP JUMPDEST PUSH2 0xDB6 JUMP JUMPDEST PUSH2 0x145 PUSH1 0x8 SLOAD DUP2 JUMP JUMPDEST PUSH2 0x145 PUSH2 0x2CC CALLDATASIZE PUSH1 0x4 PUSH2 0x135F JUMP JUMPDEST PUSH2 0xE00 JUMP JUMPDEST PUSH2 0x166 PUSH2 0x2DF CALLDATASIZE PUSH1 0x4 PUSH2 0x103C JUMP JUMPDEST PUSH2 0xE2B JUMP JUMPDEST PUSH0 PUSH1 0x1 PUSH1 0x1 PUSH1 0xE0 SHL SUB NOT DUP3 AND PUSH4 0x7965DB0B PUSH1 0xE0 SHL EQ DUP1 PUSH2 0x314 JUMPI POP PUSH4 0x1FFC9A7 PUSH1 0xE0 SHL PUSH1 0x1 PUSH1 0x1 PUSH1 0xE0 SHL SUB NOT DUP4 AND EQ JUMPDEST SWAP3 SWAP2 POP POP JUMP JUMPDEST PUSH2 0x331 PUSH0 DUP1 MLOAD PUSH1 0x20 PUSH2 0x161F DUP4 CODECOPY DUP2 MLOAD SWAP2 MSTORE CALLER PUSH2 0x947 JUMP JUMPDEST PUSH2 0x356 JUMPI PUSH1 0x40 MLOAD PUSH3 0x461BCD PUSH1 0xE5 SHL DUP2 MSTORE PUSH1 0x4 ADD PUSH2 0x34D SWAP1 PUSH2 0x1387 JUMP JUMPDEST PUSH1 0x40 MLOAD DUP1 SWAP2 SUB SWAP1 REVERT JUMPDEST PUSH2 0x36D PUSH0 DUP1 MLOAD PUSH1 0x20 PUSH2 0x161F DUP4 CODECOPY DUP2 MLOAD SWAP2 MSTORE DUP3 PUSH2 0xE2B JUMP JUMPDEST POP JUMP JUMPDEST PUSH0 SWAP1 DUP2 MSTORE PUSH1 0x20 DUP2 SWAP1 MSTORE PUSH1 0x40 SWAP1 KECCAK256 PUSH1 0x1 ADD SLOAD SWAP1 JUMP JUMPDEST PUSH2 0x38D DUP3 PUSH2 0x370 JUMP JUMPDEST PUSH2 0x396 DUP2 PUSH2 0xE47 JUMP JUMPDEST PUSH2 0x3A0 DUP4 DUP4 PUSH2 0xE51 JUMP JUMPDEST POP POP POP POP JUMP JUMPDEST PUSH2 0x3F1 PUSH1 0x40 MLOAD DUP1 PUSH2 0x100 ADD PUSH1 0x40 MSTORE DUP1 PUSH0 DUP1 NOT AND DUP2 MSTORE PUSH1 0x20 ADD PUSH0 DUP1 NOT AND DUP2 MSTORE PUSH1 0x20 ADD PUSH0 DUP2 MSTORE PUSH1 0x20 ADD PUSH0 DUP2 MSTORE PUSH1 0x20 ADD PUSH0 ISZERO ISZERO DUP2 MSTORE PUSH1 0x20 ADD PUSH1 0x60 DUP2 MSTORE PUSH1 0x20 ADD PUSH1 0x60 DUP2 MSTORE PUSH1 0x20 ADD PUSH1 0x60 DUP2 MSTORE POP SWAP1 JUMP JUMPDEST PUSH0 DUP3 DUP2 MSTORE PUSH1 0x9 PUSH1 0x20 SWAP1 DUP2 MSTORE PUSH1 0x40 SWAP2 DUP3 SWAP1 KECCAK256 DUP3 MLOAD PUSH2 0x100 DUP2 ADD DUP5 MSTORE DUP2 SLOAD DUP2 MSTORE PUSH1 0x1 DUP3 ADD SLOAD SWAP3 DUP2 ADD SWAP3 SWAP1 SWAP3 MSTORE PUSH1 0x2 DUP2 ADD SLOAD SWAP3 DUP3 ADD SWAP3 SWAP1 SWAP3 MSTORE PUSH1 0x3 DUP3 ADD SLOAD PUSH1 0x60 DUP3 ADD MSTORE PUSH1 0x4 DUP3 ADD SLOAD PUSH1 0xFF AND ISZERO ISZERO PUSH1 0x80 DUP3 ADD MSTORE PUSH1 0x5 DUP3 ADD DUP1 SLOAD SWAP2 SWAP3 SWAP2 PUSH1 0xA0 DUP5 ADD SWAP2 SWAP1 PUSH2 0x458 SWAP1 PUSH2 0x13B5 JUMP JUMPDEST DUP1 PUSH1 0x1F ADD PUSH1 0x20 DUP1 SWAP2 DIV MUL PUSH1 0x20 ADD PUSH1 0x40 MLOAD SWAP1 DUP2 ADD PUSH1 0x40 MSTORE DUP1 SWAP3 SWAP2 SWAP1 DUP2 DUP2 MSTORE PUSH1 0x20 ADD DUP3 DUP1 SLOAD PUSH2 0x484 SWAP1 PUSH2 0x13B5 JUMP JUMPDEST DUP1 ISZERO PUSH2 0x4CF JUMPI DUP1 PUSH1 0x1F LT PUSH2 0x4A6 JUMPI PUSH2 0x100 DUP1 DUP4 SLOAD DIV MUL DUP4 MSTORE SWAP2 PUSH1 0x20 ADD SWAP2 PUSH2 0x4CF JUMP JUMPDEST DUP3 ADD SWAP2 SWAP1 PUSH0 MSTORE PUSH1 0x20 PUSH0 KECCAK256 SWAP1 JUMPDEST DUP2 SLOAD DUP2 MSTORE SWAP1 PUSH1 0x1 ADD SWAP1 PUSH1 0x20 ADD DUP1 DUP4 GT PUSH2 0x4B2 JUMPI DUP3 SWAP1 SUB PUSH1 0x1F AND DUP3 ADD SWAP2 JUMPDEST POP POP POP POP POP DUP2 MSTORE PUSH1 0x20 ADD PUSH1 0x6 DUP3 ADD DUP1 SLOAD PUSH2 0x4E8 SWAP1 PUSH2 0x13B5 JUMP JUMPDEST DUP1 PUSH1 0x1F ADD PUSH1 0x20 DUP1 SWAP2 DIV MUL PUSH1 0x20 ADD PUSH1 0x40 MLOAD SWAP1 DUP2 ADD PUSH1 0x40 MSTORE DUP1 SWAP3 SWAP2 SWAP1 DUP2 DUP2 MSTORE PUSH1 0x20 ADD DUP3 DUP1 SLOAD PUSH2 0x514 SWAP1 PUSH2 0x13B5 JUMP JUMPDEST DUP1 ISZERO PUSH2 0x55F JUMPI DUP1 PUSH1 0x1F LT PUSH2 0x536 JUMPI PUSH2 0x100 DUP1 DUP4 SLOAD DIV MUL DUP4 MSTORE SWAP2 PUSH1 0x20 ADD SWAP2 PUSH2 0x55F JUMP JUMPDEST DUP3 ADD SWAP2 SWAP1 PUSH0 MSTORE PUSH1 0x20 PUSH0 KECCAK256 SWAP1 JUMPDEST DUP2 SLOAD DUP2 MSTORE SWAP1 PUSH1 0x1 ADD SWAP1 PUSH1 0x20 ADD DUP1 DUP4 GT PUSH2 0x542 JUMPI DUP3 SWAP1 SUB PUSH1 0x1F AND DUP3 ADD SWAP2 JUMPDEST POP POP POP POP POP DUP2 MSTORE PUSH1 0x20 ADD PUSH1 0x7 DUP3 ADD DUP1 SLOAD PUSH2 0x578 SWAP1 PUSH2 0x13B5 JUMP JUMPDEST DUP1 PUSH1 0x1F ADD PUSH1 0x20 DUP1 SWAP2 DIV MUL PUSH1 0x20 ADD PUSH1 0x40 MLOAD SWAP1 DUP2 ADD PUSH1 0x40 MSTORE DUP1 SWAP3 SWAP2 SWAP1 DUP2 DUP2 MSTORE PUSH1 0x20 ADD DUP3 DUP1 SLOAD PUSH2 0x5A4 SWAP1 PUSH2 0x13B5 JUMP JUMPDEST DUP1 ISZERO PUSH2 0x5EF JUMPI DUP1 PUSH1 0x1F LT PUSH2 0x5C6 JUMPI PUSH2 0x100 DUP1 DUP4 SLOAD DIV MUL DUP4 MSTORE SWAP2 PUSH1 0x20 ADD SWAP2 PUSH2 0x5EF JUMP JUMPDEST DUP3 ADD SWAP2 SWAP1 PUSH0 MSTORE PUSH1 0x20 PUSH0 KECCAK256 SWAP1 JUMPDEST DUP2 SLOAD DUP2 MSTORE SWAP1 PUSH1 0x1 ADD SWAP1 PUSH1 0x20 ADD DUP1 DUP4 GT PUSH2 0x5D2 JUMPI DUP3 SWAP1 SUB PUSH1 0x1F AND DUP3 ADD SWAP2 JUMPDEST POP POP POP POP POP DUP2 MSTORE POP POP SWAP1 POP SWAP2 SWAP1 POP JUMP JUMPDEST PUSH1 0x1 PUSH1 0x1 PUSH1 0xA0 SHL SUB DUP2 AND CALLER EQ PUSH2 0x628 JUMPI PUSH1 0x40 MLOAD PUSH4 0x334BD919 PUSH1 0xE1 SHL DUP2 MSTORE PUSH1 0x4 ADD PUSH1 0x40 MLOAD DUP1 SWAP2 SUB SWAP1 REVERT JUMPDEST PUSH2 0x632 DUP3 DUP3 PUSH2 0xEE0 JUMP JUMPDEST POP POP POP JUMP JUMPDEST PUSH2 0x64E PUSH0 DUP1 MLOAD PUSH1 0x20 PUSH2 0x161F DUP4 CODECOPY DUP2 MLOAD SWAP2 MSTORE CALLER PUSH2 0x947 JUMP JUMPDEST PUSH2 0x66A JUMPI PUSH1 0x40 MLOAD PUSH3 0x461BCD PUSH1 0xE5 SHL DUP2 MSTORE PUSH1 0x4 ADD PUSH2 0x34D SWAP1 PUSH2 0x1387 JUMP JUMPDEST PUSH2 0x36D PUSH0 DUP1 MLOAD PUSH1 0x20 PUSH2 0x15BF DUP4 CODECOPY DUP2 MLOAD SWAP2 MSTORE DUP3 PUSH2 0xE2B JUMP JUMPDEST CALLER PUSH0 SWAP1 DUP2 MSTORE PUSH1 0xA PUSH1 0x20 SWAP1 DUP2 MSTORE PUSH1 0x40 SWAP2 DUP3 SWAP1 KECCAK256 DUP1 SLOAD DUP4 MLOAD DUP2 DUP5 MUL DUP2 ADD DUP5 ADD SWAP1 SWAP5 MSTORE DUP1 DUP5 MSTORE PUSH1 0x60 SWAP4 SWAP3 DUP4 ADD DUP3 DUP3 DUP1 ISZERO PUSH2 0x6D5 JUMPI PUSH1 0x20 MUL DUP3 ADD SWAP2 SWAP1 PUSH0 MSTORE PUSH1 0x20 PUSH0 KECCAK256 SWAP1 JUMPDEST DUP2 SLOAD DUP2 MSTORE PUSH1 0x20 ADD SWAP1 PUSH1 0x1 ADD SWAP1 DUP1 DUP4 GT PUSH2 0x6C1 JUMPI JUMPDEST POP POP POP POP POP SWAP1 POP SWAP1 JUMP JUMPDEST PUSH2 0x6F6 PUSH0 DUP1 MLOAD PUSH1 0x20 PUSH2 0x161F DUP4 CODECOPY DUP2 MLOAD SWAP2 MSTORE CALLER PUSH2 0x947 JUMP JUMPDEST PUSH2 0x712 JUMPI PUSH1 0x40 MLOAD PUSH3 0x461BCD PUSH1 0xE5 SHL DUP2 MSTORE PUSH1 0x4 ADD PUSH2 0x34D SWAP1 PUSH2 0x1387 JUMP JUMPDEST PUSH2 0x729 PUSH0 DUP1 MLOAD PUSH1 0x20 PUSH2 0x161F DUP4 CODECOPY DUP2 MLOAD SWAP2 MSTORE DUP3 PUSH2 0xE51 JUMP JUMPDEST POP POP JUMP JUMPDEST PUSH0 DUP5 GT PUSH2 0x74C JUMPI PUSH1 0x40 MLOAD PUSH3 0x461BCD PUSH1 0xE5 SHL DUP2 MSTORE PUSH1 0x4 ADD PUSH2 0x34D SWAP1 PUSH2 0x13ED JUMP JUMPDEST PUSH9 0x3635C9ADC5DEA00000 DUP5 GT ISZERO PUSH2 0x775 JUMPI PUSH1 0x40 MLOAD PUSH3 0x461BCD PUSH1 0xE5 SHL DUP2 MSTORE PUSH1 0x4 ADD PUSH2 0x34D SWAP1 PUSH2 0x13ED JUMP JUMPDEST PUSH0 PUSH2 0x780 CALLER TIMESTAMP PUSH2 0xF49 JUMP JUMPDEST SWAP1 POP PUSH0 PUSH2 0x797 CALLER PUSH2 0x792 TIMESTAMP PUSH1 0x1 PUSH2 0x1435 JUMP JUMPDEST PUSH2 0xF49 JUMP JUMPDEST PUSH1 0x40 DUP1 MLOAD PUSH2 0x100 DUP2 ADD DUP3 MSTORE DUP5 DUP2 MSTORE PUSH1 0x20 DUP1 DUP3 ADD DUP5 DUP2 MSTORE DUP3 DUP5 ADD DUP12 DUP2 MSTORE TIMESTAMP PUSH1 0x60 DUP6 ADD SWAP1 DUP2 MSTORE PUSH0 PUSH1 0x80 DUP7 ADD DUP2 DUP2 MSTORE PUSH1 0xA0 DUP8 ADD DUP15 DUP2 MSTORE PUSH1 0xC0 DUP9 ADD DUP15 SWAP1 MSTORE PUSH1 0xE0 DUP9 ADD DUP14 SWAP1 MSTORE PUSH1 0x8 SLOAD DUP4 MSTORE PUSH1 0x9 SWAP1 SWAP7 MSTORE SWAP7 SWAP1 KECCAK256 DUP6 MLOAD DUP2 SSTORE SWAP3 MLOAD PUSH1 0x1 DUP5 ADD SSTORE SWAP1 MLOAD PUSH1 0x2 DUP4 ADD SSTORE MLOAD PUSH1 0x3 DUP3 ADD SSTORE SWAP3 MLOAD PUSH1 0x4 DUP5 ADD DUP1 SLOAD PUSH1 0xFF NOT AND SWAP2 ISZERO ISZERO SWAP2 SWAP1 SWAP2 OR SWAP1 SSTORE MLOAD SWAP3 SWAP4 POP SWAP2 PUSH1 0x5 DUP3 ADD SWAP1 PUSH2 0x826 SWAP1 DUP3 PUSH2 0x1493 JUMP JUMPDEST POP PUSH1 0xC0 DUP3 ADD MLOAD PUSH1 0x6 DUP3 ADD SWAP1 PUSH2 0x83B SWAP1 DUP3 PUSH2 0x1493 JUMP JUMPDEST POP PUSH1 0xE0 DUP3 ADD MLOAD PUSH1 0x7 DUP3 ADD SWAP1 PUSH2 0x850 SWAP1 DUP3 PUSH2 0x1493 JUMP JUMPDEST POP POP PUSH1 0x8 SLOAD PUSH0 DUP2 DUP2 MSTORE PUSH1 0x9 PUSH1 0x20 MSTORE PUSH1 0x40 DUP1 DUP3 KECCAK256 PUSH1 0x1 DUP2 ADD SLOAD DUP2 SLOAD PUSH1 0x2 DUP4 ADD SLOAD PUSH1 0x3 SWAP1 SWAP4 ADD SLOAD SWAP4 MLOAD SWAP2 SWAP7 POP SWAP5 PUSH0 DUP1 MLOAD PUSH1 0x20 PUSH2 0x15DF DUP4 CODECOPY DUP2 MLOAD SWAP2 MSTORE SWAP5 PUSH2 0x896 SWAP5 SWAP2 SWAP4 SWAP3 PUSH2 0x1552 JUMP JUMPDEST PUSH1 0x40 MLOAD DUP1 SWAP2 SUB SWAP1 LOG3 PUSH2 0x8B0 DUP7 PUSH9 0x1B1AE4D6E2EF500000 LT SWAP1 JUMP JUMPDEST PUSH2 0x8CC JUMPI PUSH1 0x40 MLOAD PUSH3 0x461BCD PUSH1 0xE5 SHL DUP2 MSTORE PUSH1 0x4 ADD PUSH2 0x34D SWAP1 PUSH2 0x156F JUMP JUMPDEST PUSH1 0x8 SLOAD PUSH1 0x40 DUP1 MLOAD TIMESTAMP DUP2 MSTORE PUSH1 0x20 DUP2 ADD DUP10 SWAP1 MSTORE PUSH0 DUP1 MLOAD PUSH1 0x20 PUSH2 0x15FF DUP4 CODECOPY DUP2 MLOAD SWAP2 MSTORE SWAP2 ADD PUSH1 0x40 MLOAD DUP1 SWAP2 SUB SWAP1 LOG2 CALLER PUSH0 SWAP1 DUP2 MSTORE PUSH1 0xA PUSH1 0x20 SWAP1 DUP2 MSTORE PUSH1 0x40 DUP3 KECCAK256 PUSH1 0x8 DUP1 SLOAD DUP3 SLOAD PUSH1 0x1 DUP1 DUP3 ADD DUP6 SSTORE DUP5 DUP8 MSTORE SWAP5 DUP7 KECCAK256 SWAP1 DUP2 ADD SWAP2 SWAP1 SWAP2 SSTORE DUP2 SLOAD DUP4 SLOAD SWAP5 DUP6 ADD SWAP1 SWAP4 SSTORE SWAP3 SWAP1 SWAP3 ADD SSTORE DUP1 SLOAD SWAP2 PUSH2 0x93A DUP4 PUSH2 0x15A6 JUMP JUMPDEST SWAP2 SWAP1 POP SSTORE POP POP POP POP POP POP POP JUMP JUMPDEST PUSH0 SWAP2 DUP3 MSTORE PUSH1 0x20 DUP3 DUP2 MSTORE PUSH1 0x40 DUP1 DUP5 KECCAK256 PUSH1 0x1 PUSH1 0x1 PUSH1 0xA0 SHL SUB SWAP4 SWAP1 SWAP4 AND DUP5 MSTORE SWAP2 SWAP1 MSTORE SWAP1 KECCAK256 SLOAD PUSH1 0xFF AND SWAP1 JUMP JUMPDEST PUSH2 0x986 PUSH0 DUP1 MLOAD PUSH1 0x20 PUSH2 0x15BF DUP4 CODECOPY DUP2 MLOAD SWAP2 MSTORE CALLER PUSH2 0x947 JUMP JUMPDEST PUSH2 0x9CD JUMPI PUSH1 0x40 MLOAD PUSH3 0x461BCD PUSH1 0xE5 SHL DUP2 MSTORE PUSH1 0x20 PUSH1 0x4 DUP3 ADD MSTORE PUSH1 0x18 PUSH1 0x24 DUP3 ADD MSTORE PUSH24 0x4D757374206861766520726567756C61746F7220726F6C65 PUSH1 0x40 SHL PUSH1 0x44 DUP3 ADD MSTORE PUSH1 0x64 ADD PUSH2 0x34D JUMP JUMPDEST PUSH9 0x3635C9ADC5DEA00000 DUP3 GT ISZERO PUSH2 0x9F6 JUMPI PUSH1 0x40 MLOAD PUSH3 0x461BCD PUSH1 0xE5 SHL DUP2 MSTORE PUSH1 0x4 ADD PUSH2 0x34D SWAP1 PUSH2 0x13ED JUMP JUMPDEST PUSH2 0xA08 DUP3 PUSH9 0x1B1AE4D6E2EF500000 LT SWAP1 JUMP JUMPDEST PUSH2 0xA24 JUMPI PUSH1 0x40 MLOAD PUSH3 0x461BCD PUSH1 0xE5 SHL DUP2 MSTORE PUSH1 0x4 ADD PUSH2 0x34D SWAP1 PUSH2 0x156F JUMP JUMPDEST PUSH0 PUSH2 0xA2F CALLER TIMESTAMP PUSH2 0xF49 JUMP JUMPDEST SWAP1 POP PUSH0 PUSH2 0xA41 CALLER PUSH2 0x792 TIMESTAMP PUSH1 0x1 PUSH2 0x1435 JUMP JUMPDEST PUSH1 0x40 DUP1 MLOAD PUSH2 0x100 DUP2 ADD DUP3 MSTORE DUP5 DUP2 MSTORE PUSH1 0x20 DUP1 DUP3 ADD DUP5 DUP2 MSTORE DUP3 DUP5 ADD DUP10 DUP2 MSTORE TIMESTAMP PUSH1 0x60 DUP6 ADD SWAP1 DUP2 MSTORE PUSH1 0x1 PUSH1 0x80 DUP7 ADD DUP2 DUP2 MSTORE DUP8 MLOAD DUP1 DUP8 ADD DUP10 MSTORE PUSH0 DUP1 DUP3 MSTORE PUSH1 0xA0 DUP10 ADD SWAP2 DUP3 MSTORE DUP10 MLOAD DUP1 DUP10 ADD DUP12 MSTORE DUP2 DUP2 MSTORE PUSH1 0xC0 DUP11 ADD MSTORE PUSH1 0xE0 DUP10 ADD DUP15 SWAP1 MSTORE PUSH1 0x8 SLOAD DUP2 MSTORE PUSH1 0x9 SWAP1 SWAP8 MSTORE SWAP8 SWAP1 SWAP6 KECCAK256 DUP7 MLOAD DUP2 SSTORE SWAP4 MLOAD SWAP1 DUP5 ADD SSTORE SWAP1 MLOAD PUSH1 0x2 DUP4 ADD SSTORE MLOAD PUSH1 0x3 DUP3 ADD SSTORE SWAP1 MLOAD PUSH1 0x4 DUP3 ADD DUP1 SLOAD PUSH1 0xFF NOT AND SWAP2 ISZERO ISZERO SWAP2 SWAP1 SWAP2 OR SWAP1 SSTORE SWAP2 MLOAD SWAP3 SWAP4 POP SWAP2 PUSH1 0x5 DUP3 ADD SWAP1 PUSH2 0xAE5 SWAP1 DUP3 PUSH2 0x1493 JUMP JUMPDEST POP PUSH1 0xC0 DUP3 ADD MLOAD PUSH1 0x6 DUP3 ADD SWAP1 PUSH2 0xAFA SWAP1 DUP3 PUSH2 0x1493 JUMP JUMPDEST POP PUSH1 0xE0 DUP3 ADD MLOAD PUSH1 0x7 DUP3 ADD SWAP1 PUSH2 0xB0F SWAP1 DUP3 PUSH2 0x1493 JUMP JUMPDEST POP POP PUSH1 0x8 SLOAD PUSH0 DUP2 DUP2 MSTORE PUSH1 0x9 PUSH1 0x20 MSTORE PUSH1 0x40 SWAP1 DUP2 SWAP1 KECCAK256 PUSH1 0x1 DUP1 DUP3 ADD SLOAD DUP3 SLOAD PUSH1 0x2 DUP5 ADD SLOAD PUSH1 0x3 SWAP1 SWAP5 ADD SLOAD SWAP5 MLOAD SWAP2 SWAP7 POP SWAP5 PUSH0 DUP1 MLOAD PUSH1 0x20 PUSH2 0x15DF DUP4 CODECOPY DUP2 MLOAD SWAP2 MSTORE SWAP5 PUSH2 0xB5B SWAP5 SWAP2 SWAP4 SWAP2 SWAP3 SWAP1 SWAP2 SWAP1 PUSH2 0x1552 JUMP JUMPDEST PUSH1 0x40 MLOAD DUP1 SWAP2 SUB SWAP1 LOG3 PUSH1 0x8 SLOAD PUSH1 0x40 DUP1 MLOAD TIMESTAMP DUP2 MSTORE PUSH1 0x20 DUP2 ADD DUP8 SWAP1 MSTORE PUSH0 DUP1 MLOAD PUSH1 0x20 PUSH2 0x15FF DUP4 CODECOPY DUP2 MLOAD SWAP2 MSTORE SWAP2 ADD PUSH1 0x40 MLOAD DUP1 SWAP2 SUB SWAP1 LOG2 CALLER PUSH0 SWAP1 DUP2 MSTORE PUSH1 0xA PUSH1 0x20 SWAP1 DUP2 MSTORE PUSH1 0x40 DUP3 KECCAK256 PUSH1 0x8 DUP1 SLOAD DUP3 SLOAD PUSH1 0x1 DUP1 DUP3 ADD DUP6 SSTORE DUP5 DUP8 MSTORE SWAP5 DUP7 KECCAK256 SWAP1 DUP2 ADD SWAP2 SWAP1 SWAP2 SSTORE DUP2 SLOAD DUP4 SLOAD SWAP5 DUP6 ADD SWAP1 SWAP4 SSTORE SWAP3 SWAP1 SWAP3 ADD SSTORE DUP1 SLOAD SWAP2 PUSH2 0xBD1 DUP4 PUSH2 0x15A6 JUMP JUMPDEST SWAP2 SWAP1 POP SSTORE POP POP POP POP POP JUMP JUMPDEST PUSH1 0x9 PUSH1 0x20 MSTORE PUSH0 SWAP1 DUP2 MSTORE PUSH1 0x40 SWAP1 KECCAK256 DUP1 SLOAD PUSH1 0x1 DUP3 ADD SLOAD PUSH1 0x2 DUP4 ADD SLOAD PUSH1 0x3 DUP5 ADD SLOAD PUSH1 0x4 DUP6 ADD SLOAD PUSH1 0x5 DUP7 ADD DUP1 SLOAD SWAP6 SWAP7 SWAP5 SWAP6 SWAP4 SWAP5 SWAP3 SWAP4 PUSH1 0xFF SWAP1 SWAP3 AND SWAP3 SWAP2 PUSH2 0xC1D SWAP1 PUSH2 0x13B5 JUMP JUMPDEST DUP1 PUSH1 0x1F ADD PUSH1 0x20 DUP1 SWAP2 DIV MUL PUSH1 0x20 ADD PUSH1 0x40 MLOAD SWAP1 DUP2 ADD PUSH1 0x40 MSTORE DUP1 SWAP3 SWAP2 SWAP1 DUP2 DUP2 MSTORE PUSH1 0x20 ADD DUP3 DUP1 SLOAD PUSH2 0xC49 SWAP1 PUSH2 0x13B5 JUMP JUMPDEST DUP1 ISZERO PUSH2 0xC94 JUMPI DUP1 PUSH1 0x1F LT PUSH2 0xC6B JUMPI PUSH2 0x100 DUP1 DUP4 SLOAD DIV MUL DUP4 MSTORE SWAP2 PUSH1 0x20 ADD SWAP2 PUSH2 0xC94 JUMP JUMPDEST DUP3 ADD SWAP2 SWAP1 PUSH0 MSTORE PUSH1 0x20 PUSH0 KECCAK256 SWAP1 JUMPDEST DUP2 SLOAD DUP2 MSTORE SWAP1 PUSH1 0x1 ADD SWAP1 PUSH1 0x20 ADD DUP1 DUP4 GT PUSH2 0xC77 JUMPI DUP3 SWAP1 SUB PUSH1 0x1F AND DUP3 ADD SWAP2 JUMPDEST POP POP POP POP POP SWAP1 DUP1 PUSH1 0x6 ADD DUP1 SLOAD PUSH2 0xCA9 SWAP1 PUSH2 0x13B5 JUMP JUMPDEST DUP1 PUSH1 0x1F ADD PUSH1 0x20 DUP1 SWAP2 DIV MUL PUSH1 0x20 ADD PUSH1 0x40 MLOAD SWAP1 DUP2 ADD PUSH1 0x40 MSTORE DUP1 SWAP3 SWAP2 SWAP1 DUP2 DUP2 MSTORE PUSH1 0x20 ADD DUP3 DUP1 SLOAD PUSH2 0xCD5 SWAP1 PUSH2 0x13B5 JUMP JUMPDEST DUP1 ISZERO PUSH2 0xD20 JUMPI DUP1 PUSH1 0x1F LT PUSH2 0xCF7 JUMPI PUSH2 0x100 DUP1 DUP4 SLOAD DIV MUL DUP4 MSTORE SWAP2 PUSH1 0x20 ADD SWAP2 PUSH2 0xD20 JUMP JUMPDEST DUP3 ADD SWAP2 SWAP1 PUSH0 MSTORE PUSH1 0x20 PUSH0 KECCAK256 SWAP1 JUMPDEST DUP2 SLOAD DUP2 MSTORE SWAP1 PUSH1 0x1 ADD SWAP1 PUSH1 0x20 ADD DUP1 DUP4 GT PUSH2 0xD03 JUMPI DUP3 SWAP1 SUB PUSH1 0x1F AND DUP3 ADD SWAP2 JUMPDEST POP POP POP POP POP SWAP1 DUP1 PUSH1 0x7 ADD DUP1 SLOAD PUSH2 0xD35 SWAP1 PUSH2 0x13B5 JUMP JUMPDEST DUP1 PUSH1 0x1F ADD PUSH1 0x20 DUP1 SWAP2 DIV MUL PUSH1 0x20 ADD PUSH1 0x40 MLOAD SWAP1 DUP2 ADD PUSH1 0x40 MSTORE DUP1 SWAP3 SWAP2 SWAP1 DUP2 DUP2 MSTORE PUSH1 0x20 ADD DUP3 DUP1 SLOAD PUSH2 0xD61 SWAP1 PUSH2 0x13B5 JUMP JUMPDEST DUP1 ISZERO PUSH2 0xDAC JUMPI DUP1 PUSH1 0x1F LT PUSH2 0xD83 JUMPI PUSH2 0x100 DUP1 DUP4 SLOAD DIV MUL DUP4 MSTORE SWAP2 PUSH1 0x20 ADD SWAP2 PUSH2 0xDAC JUMP JUMPDEST DUP3 ADD SWAP2 SWAP1 PUSH0 MSTORE PUSH1 0x20 PUSH0 KECCAK256 SWAP1 JUMPDEST DUP2 SLOAD DUP2 MSTORE SWAP1 PUSH1 0x1 ADD SWAP1 PUSH1 0x20 ADD DUP1 DUP4 GT PUSH2 0xD8F JUMPI DUP3 SWAP1 SUB PUSH1 0x1F AND DUP3 ADD SWAP2 JUMPDEST POP POP POP POP POP SWAP1 POP DUP9 JUMP JUMPDEST PUSH2 0xDCD PUSH0 DUP1 MLOAD PUSH1 0x20 PUSH2 0x161F DUP4 CODECOPY DUP2 MLOAD SWAP2 MSTORE CALLER PUSH2 0x947 JUMP JUMPDEST PUSH2 0xDE9 JUMPI PUSH1 0x40 MLOAD PUSH3 0x461BCD PUSH1 0xE5 SHL DUP2 MSTORE PUSH1 0x4 ADD PUSH2 0x34D SWAP1 PUSH2 0x1387 JUMP JUMPDEST PUSH2 0x729 PUSH0 DUP1 MLOAD PUSH1 0x20 PUSH2 0x15BF DUP4 CODECOPY DUP2 MLOAD SWAP2 MSTORE DUP3 PUSH2 0xE51 JUMP JUMPDEST PUSH1 0xA PUSH1 0x20 MSTORE DUP2 PUSH0 MSTORE PUSH1 0x40 PUSH0 KECCAK256 DUP2 DUP2 SLOAD DUP2 LT PUSH2 0xE19 JUMPI PUSH0 DUP1 REVERT JUMPDEST SWAP1 PUSH0 MSTORE PUSH1 0x20 PUSH0 KECCAK256 ADD PUSH0 SWAP2 POP SWAP2 POP POP SLOAD DUP2 JUMP JUMPDEST PUSH2 0xE34 DUP3 PUSH2 0x370 JUMP JUMPDEST PUSH2 0xE3D DUP2 PUSH2 0xE47 JUMP JUMPDEST PUSH2 0x3A0 DUP4 DUP4 PUSH2 0xEE0 JUMP JUMPDEST PUSH2 0x36D DUP2 CALLER PUSH2 0xF8A JUMP JUMPDEST PUSH0 PUSH2 0xE5C DUP4 DUP4 PUSH2 0x947 JUMP JUMPDEST PUSH2 0xED9 JUMPI PUSH0 DUP4 DUP2 MSTORE PUSH1 0x20 DUP2 DUP2 MSTORE PUSH1 0x40 DUP1 DUP4 KECCAK256 PUSH1 0x1 PUSH1 0x1 PUSH1 0xA0 SHL SUB DUP7 AND DUP5 MSTORE SWAP1 SWAP2 MSTORE SWAP1 KECCAK256 DUP1 SLOAD PUSH1 0xFF NOT AND PUSH1 0x1 OR SWAP1 SSTORE PUSH2 0xE91 CALLER SWAP1 JUMP JUMPDEST PUSH1 0x1 PUSH1 0x1 PUSH1 0xA0 SHL SUB AND DUP3 PUSH1 0x1 PUSH1 0x1 PUSH1 0xA0 SHL SUB AND DUP5 PUSH32 0x2F8788117E7EFF1D82E926EC794901D17C78024A50270940304540A733656F0D PUSH1 0x40 MLOAD PUSH1 0x40 MLOAD DUP1 SWAP2 SUB SWAP1 LOG4 POP PUSH1 0x1 PUSH2 0x314 JUMP JUMPDEST POP PUSH0 PUSH2 0x314 JUMP JUMPDEST PUSH0 PUSH2 0xEEB DUP4 DUP4 PUSH2 0x947 JUMP JUMPDEST ISZERO PUSH2 0xED9 JUMPI PUSH0 DUP4 DUP2 MSTORE PUSH1 0x20 DUP2 DUP2 MSTORE PUSH1 0x40 DUP1 DUP4 KECCAK256 PUSH1 0x1 PUSH1 0x1 PUSH1 0xA0 SHL SUB DUP7 AND DUP1 DUP6 MSTORE SWAP3 MSTORE DUP1 DUP4 KECCAK256 DUP1 SLOAD PUSH1 0xFF NOT AND SWAP1 SSTORE MLOAD CALLER SWAP3 DUP7 SWAP2 PUSH32 0xF6391F5C32D9C69D2A47EA670B442974B53935D1EDC7FD64EB21E047A839171B SWAP2 SWAP1 LOG4 POP PUSH1 0x1 PUSH2 0x314 JUMP JUMPDEST PUSH1 0x40 MLOAD PUSH1 0x1 PUSH1 0x1 PUSH1 0x60 SHL SUB NOT PUSH1 0x60 DUP5 SWAP1 SHL AND PUSH1 0x20 DUP3 ADD MSTORE PUSH1 0x34 DUP2 ADD DUP3 SWAP1 MSTORE PUSH0 SWAP1 PUSH1 0x54 ADD PUSH1 0x40 MLOAD PUSH1 0x20 DUP2 DUP4 SUB SUB DUP2 MSTORE SWAP1 PUSH1 0x40 MSTORE DUP1 MLOAD SWAP1 PUSH1 0x20 ADD KECCAK256 SWAP1 POP SWAP3 SWAP2 POP POP JUMP JUMPDEST PUSH2 0xF94 DUP3 DUP3 PUSH2 0x947 JUMP JUMPDEST PUSH2 0x729 JUMPI PUSH1 0x40 MLOAD PUSH4 0xE2517D3F PUSH1 0xE0 SHL DUP2 MSTORE PUSH1 0x1 PUSH1 0x1 PUSH1 0xA0 SHL SUB DUP3 AND PUSH1 0x4 DUP3 ADD MSTORE PUSH1 0x24 DUP2 ADD DUP4 SWAP1 MSTORE PUSH1 0x44 ADD PUSH2 0x34D JUMP JUMPDEST PUSH0 PUSH1 0x20 DUP3 DUP5 SUB SLT ISZERO PUSH2 0xFD3 JUMPI PUSH0 DUP1 REVERT JUMPDEST DUP2 CALLDATALOAD PUSH1 0x1 PUSH1 0x1 PUSH1 0xE0 SHL SUB NOT DUP2 AND DUP2 EQ PUSH2 0xFEA JUMPI PUSH0 DUP1 REVERT JUMPDEST SWAP4 SWAP3 POP POP POP JUMP JUMPDEST DUP1 CALLDATALOAD PUSH1 0x1 PUSH1 0x1 PUSH1 0xA0 SHL SUB DUP2 AND DUP2 EQ PUSH2 0x1007 JUMPI PUSH0 DUP1 REVERT JUMPDEST SWAP2 SWAP1 POP JUMP JUMPDEST PUSH0 PUSH1 0x20 DUP3 DUP5 SUB SLT ISZERO PUSH2 0x101C JUMPI PUSH0 DUP1 REVERT JUMPDEST PUSH2 0xFEA DUP3 PUSH2 0xFF1 JUMP JUMPDEST PUSH0 PUSH1 0x20 DUP3 DUP5 SUB SLT ISZERO PUSH2 0x1035 JUMPI PUSH0 DUP1 REVERT JUMPDEST POP CALLDATALOAD SWAP2 SWAP1 POP JUMP JUMPDEST PUSH0 DUP1 PUSH1 0x40 DUP4 DUP6 SUB SLT ISZERO PUSH2 0x104D JUMPI PUSH0 DUP1 REVERT JUMPDEST DUP3 CALLDATALOAD SWAP2 POP PUSH2 0x105D PUSH1 0x20 DUP5 ADD PUSH2 0xFF1 JUMP JUMPDEST SWAP1 POP SWAP3 POP SWAP3 SWAP1 POP JUMP JUMPDEST PUSH0 DUP2 MLOAD DUP1 DUP5 MSTORE PUSH0 JUMPDEST DUP2 DUP2 LT ISZERO PUSH2 0x108A JUMPI PUSH1 0x20 DUP2 DUP6 ADD DUP2 ADD MLOAD DUP7 DUP4 ADD DUP3 ADD MSTORE ADD PUSH2 0x106E JUMP JUMPDEST POP PUSH0 PUSH1 0x20 DUP3 DUP7 ADD ADD MSTORE PUSH1 0x20 PUSH1 0x1F NOT PUSH1 0x1F DUP4 ADD AND DUP6 ADD ADD SWAP2 POP POP SWAP3 SWAP2 POP POP JUMP JUMPDEST PUSH1 0x20 DUP2 MSTORE DUP2 MLOAD PUSH1 0x20 DUP3 ADD MSTORE PUSH1 0x20 DUP3 ADD MLOAD PUSH1 0x40 DUP3 ADD MSTORE PUSH1 0x40 DUP3 ADD MLOAD PUSH1 0x60 DUP3 ADD MSTORE PUSH1 0x60 DUP3 ADD MLOAD PUSH1 0x80 DUP3 ADD MSTORE PUSH0 PUSH1 0x80 DUP4 ADD MLOAD PUSH2 0x10E6 PUSH1 0xA0 DUP5 ADD DUP3 ISZERO ISZERO SWAP1 MSTORE JUMP JUMPDEST POP PUSH1 0xA0 DUP4 ADD MLOAD PUSH2 0x100 DUP1 PUSH1 0xC0 DUP6 ADD MSTORE PUSH2 0x1103 PUSH2 0x120 DUP6 ADD DUP4 PUSH2 0x1066 JUMP JUMPDEST SWAP2 POP PUSH1 0xC0 DUP6 ADD MLOAD PUSH1 0x1F NOT DUP1 DUP7 DUP6 SUB ADD PUSH1 0xE0 DUP8 ADD MSTORE PUSH2 0x1121 DUP5 DUP4 PUSH2 0x1066 JUMP JUMPDEST SWAP4 POP PUSH1 0xE0 DUP8 ADD MLOAD SWAP2 POP DUP1 DUP7 DUP6 SUB ADD DUP4 DUP8 ADD MSTORE POP PUSH2 0x113E DUP4 DUP3 PUSH2 0x1066 JUMP JUMPDEST SWAP7 SWAP6 POP POP POP POP POP POP JUMP JUMPDEST PUSH1 0x20 DUP1 DUP3 MSTORE DUP3 MLOAD DUP3 DUP3 ADD DUP2 SWAP1 MSTORE PUSH0 SWAP2 SWAP1 DUP5 DUP3 ADD SWAP1 PUSH1 0x40 DUP6 ADD SWAP1 DUP5 JUMPDEST DUP2 DUP2 LT ISZERO PUSH2 0x117F JUMPI DUP4 MLOAD DUP4 MSTORE SWAP3 DUP5 ADD SWAP3 SWAP2 DUP5 ADD SWAP2 PUSH1 0x1 ADD PUSH2 0x1163 JUMP JUMPDEST POP SWAP1 SWAP7 SWAP6 POP POP POP POP POP POP JUMP JUMPDEST PUSH4 0x4E487B71 PUSH1 0xE0 SHL PUSH0 MSTORE PUSH1 0x41 PUSH1 0x4 MSTORE PUSH1 0x24 PUSH0 REVERT JUMPDEST PUSH0 DUP3 PUSH1 0x1F DUP4 ADD SLT PUSH2 0x11AE JUMPI PUSH0 DUP1 REVERT JUMPDEST DUP2 CALLDATALOAD PUSH1 0x1 PUSH1 0x1 PUSH1 0x40 SHL SUB DUP1 DUP3 GT ISZERO PUSH2 0x11C8 JUMPI PUSH2 0x11C8 PUSH2 0x118B JUMP JUMPDEST PUSH1 0x40 MLOAD PUSH1 0x1F DUP4 ADD PUSH1 0x1F NOT SWAP1 DUP2 AND PUSH1 0x3F ADD AND DUP2 ADD SWAP1 DUP3 DUP3 GT DUP2 DUP4 LT OR ISZERO PUSH2 0x11F0 JUMPI PUSH2 0x11F0 PUSH2 0x118B JUMP JUMPDEST DUP2 PUSH1 0x40 MSTORE DUP4 DUP2 MSTORE DUP7 PUSH1 0x20 DUP6 DUP9 ADD ADD GT ISZERO PUSH2 0x1208 JUMPI PUSH0 DUP1 REVERT JUMPDEST DUP4 PUSH1 0x20 DUP8 ADD PUSH1 0x20 DUP4 ADD CALLDATACOPY PUSH0 PUSH1 0x20 DUP6 DUP4 ADD ADD MSTORE DUP1 SWAP5 POP POP POP POP POP SWAP3 SWAP2 POP POP JUMP JUMPDEST PUSH0 DUP1 PUSH0 DUP1 PUSH1 0x80 DUP6 DUP8 SUB SLT ISZERO PUSH2 0x123A JUMPI PUSH0 DUP1 REVERT JUMPDEST DUP5 CALLDATALOAD SWAP4 POP PUSH1 0x20 DUP6 ADD CALLDATALOAD PUSH1 0x1 PUSH1 0x1 PUSH1 0x40 SHL SUB DUP1 DUP3 GT ISZERO PUSH2 0x1257 JUMPI PUSH0 DUP1 REVERT JUMPDEST PUSH2 0x1263 DUP9 DUP4 DUP10 ADD PUSH2 0x119F JUMP JUMPDEST SWAP5 POP PUSH1 0x40 DUP8 ADD CALLDATALOAD SWAP2 POP DUP1 DUP3 GT ISZERO PUSH2 0x1278 JUMPI PUSH0 DUP1 REVERT JUMPDEST PUSH2 0x1284 DUP9 DUP4 DUP10 ADD PUSH2 0x119F JUMP JUMPDEST SWAP4 POP PUSH1 0x60 DUP8 ADD CALLDATALOAD SWAP2 POP DUP1 DUP3 GT ISZERO PUSH2 0x1299 JUMPI PUSH0 DUP1 REVERT JUMPDEST POP PUSH2 0x12A6 DUP8 DUP3 DUP9 ADD PUSH2 0x119F JUMP JUMPDEST SWAP2 POP POP SWAP3 SWAP6 SWAP2 SWAP5 POP SWAP3 POP JUMP JUMPDEST PUSH0 DUP1 PUSH1 0x40 DUP4 DUP6 SUB SLT ISZERO PUSH2 0x12C3 JUMPI PUSH0 DUP1 REVERT JUMPDEST DUP3 CALLDATALOAD SWAP2 POP PUSH1 0x20 DUP4 ADD CALLDATALOAD PUSH1 0x1 PUSH1 0x1 PUSH1 0x40 SHL SUB DUP2 GT ISZERO PUSH2 0x12DF JUMPI PUSH0 DUP1 REVERT JUMPDEST PUSH2 0x12EB DUP6 DUP3 DUP7 ADD PUSH2 0x119F JUMP JUMPDEST SWAP2 POP POP SWAP3 POP SWAP3 SWAP1 POP JUMP JUMPDEST PUSH0 PUSH2 0x100 DUP11 DUP4 MSTORE DUP10 PUSH1 0x20 DUP5 ADD MSTORE DUP9 PUSH1 0x40 DUP5 ADD MSTORE DUP8 PUSH1 0x60 DUP5 ADD MSTORE DUP7 ISZERO ISZERO PUSH1 0x80 DUP5 ADD MSTORE DUP1 PUSH1 0xA0 DUP5 ADD MSTORE PUSH2 0x1328 DUP2 DUP5 ADD DUP8 PUSH2 0x1066 JUMP JUMPDEST SWAP1 POP DUP3 DUP2 SUB PUSH1 0xC0 DUP5 ADD MSTORE PUSH2 0x133C DUP2 DUP7 PUSH2 0x1066 JUMP JUMPDEST SWAP1 POP DUP3 DUP2 SUB PUSH1 0xE0 DUP5 ADD MSTORE PUSH2 0x1350 DUP2 DUP6 PUSH2 0x1066 JUMP JUMPDEST SWAP12 SWAP11 POP POP POP POP POP POP POP POP POP POP POP JUMP JUMPDEST PUSH0 DUP1 PUSH1 0x40 DUP4 DUP6 SUB SLT ISZERO PUSH2 0x1370 JUMPI PUSH0 DUP1 REVERT JUMPDEST PUSH2 0x1379 DUP4 PUSH2 0xFF1 JUMP JUMPDEST SWAP5 PUSH1 0x20 SWAP4 SWAP1 SWAP4 ADD CALLDATALOAD SWAP4 POP POP POP JUMP JUMPDEST PUSH1 0x20 DUP1 DUP3 MSTORE PUSH1 0x14 SWAP1 DUP3 ADD MSTORE PUSH20 0x4D75737420686176652061646D696E20726F6C65 PUSH1 0x60 SHL PUSH1 0x40 DUP3 ADD MSTORE PUSH1 0x60 ADD SWAP1 JUMP JUMPDEST PUSH1 0x1 DUP2 DUP2 SHR SWAP1 DUP3 AND DUP1 PUSH2 0x13C9 JUMPI PUSH1 0x7F DUP3 AND SWAP2 POP JUMPDEST PUSH1 0x20 DUP3 LT DUP2 SUB PUSH2 0x13E7 JUMPI PUSH4 0x4E487B71 PUSH1 0xE0 SHL PUSH0 MSTORE PUSH1 0x22 PUSH1 0x4 MSTORE PUSH1 0x24 PUSH0 REVERT JUMPDEST POP SWAP2 SWAP1 POP JUMP JUMPDEST PUSH1 0x20 DUP1 DUP3 MSTORE PUSH1 0x1A SWAP1 DUP3 ADD MSTORE PUSH26 0x125B9D985B1A59081D1C985B9CD858DD1A5BDB88185B5BDD5B9D PUSH1 0x32 SHL PUSH1 0x40 DUP3 ADD MSTORE PUSH1 0x60 ADD SWAP1 JUMP JUMPDEST PUSH4 0x4E487B71 PUSH1 0xE0 SHL PUSH0 MSTORE PUSH1 0x11 PUSH1 0x4 MSTORE PUSH1 0x24 PUSH0 REVERT JUMPDEST DUP1 DUP3 ADD DUP1 DUP3 GT ISZERO PUSH2 0x314 JUMPI PUSH2 0x314 PUSH2 0x1421 JUMP JUMPDEST PUSH1 0x1F DUP3 GT ISZERO PUSH2 0x632 JUMPI DUP1 PUSH0 MSTORE PUSH1 0x20 PUSH0 KECCAK256 PUSH1 0x1F DUP5 ADD PUSH1 0x5 SHR DUP2 ADD PUSH1 0x20 DUP6 LT ISZERO PUSH2 0x146D JUMPI POP DUP1 JUMPDEST PUSH1 0x1F DUP5 ADD PUSH1 0x5 SHR DUP3 ADD SWAP2 POP JUMPDEST DUP2 DUP2 LT ISZERO PUSH2 0x148C JUMPI PUSH0 DUP2 SSTORE PUSH1 0x1 ADD PUSH2 0x1479 JUMP JUMPDEST POP POP POP POP POP JUMP JUMPDEST DUP2 MLOAD PUSH1 0x1 PUSH1 0x1 PUSH1 0x40 SHL SUB DUP2 GT ISZERO PUSH2 0x14AC JUMPI PUSH2 0x14AC PUSH2 0x118B JUMP JUMPDEST PUSH2 0x14C0 DUP2 PUSH2 0x14BA DUP5 SLOAD PUSH2 0x13B5 JUMP JUMPDEST DUP5 PUSH2 0x1448 JUMP JUMPDEST PUSH1 0x20 DUP1 PUSH1 0x1F DUP4 GT PUSH1 0x1 DUP2 EQ PUSH2 0x14F3 JUMPI PUSH0 DUP5 ISZERO PUSH2 0x14DC JUMPI POP DUP6 DUP4 ADD MLOAD JUMPDEST PUSH0 NOT PUSH1 0x3 DUP7 SWAP1 SHL SHR NOT AND PUSH1 0x1 DUP6 SWAP1 SHL OR DUP6 SSTORE PUSH2 0x154A JUMP JUMPDEST PUSH0 DUP6 DUP2 MSTORE PUSH1 0x20 DUP2 KECCAK256 PUSH1 0x1F NOT DUP7 AND SWAP2 JUMPDEST DUP3 DUP2 LT ISZERO PUSH2 0x1521 JUMPI DUP9 DUP7 ADD MLOAD DUP3 SSTORE SWAP5 DUP5 ADD SWAP5 PUSH1 0x1 SWAP1 SWAP2 ADD SWAP1 DUP5 ADD PUSH2 0x1502 JUMP JUMPDEST POP DUP6 DUP3 LT ISZERO PUSH2 0x153E JUMPI DUP8 DUP6 ADD MLOAD PUSH0 NOT PUSH1 0x3 DUP9 SWAP1 SHL PUSH1 0xF8 AND SHR NOT AND DUP2 SSTORE JUMPDEST POP POP PUSH1 0x1 DUP5 PUSH1 0x1 SHL ADD DUP6 SSTORE JUMPDEST POP POP POP POP POP POP JUMP JUMPDEST SWAP4 DUP5 MSTORE PUSH1 0x20 DUP5 ADD SWAP3 SWAP1 SWAP3 MSTORE PUSH1 0x40 DUP4 ADD MSTORE ISZERO ISZERO PUSH1 0x60 DUP3 ADD MSTORE PUSH1 0x80 ADD SWAP1 JUMP JUMPDEST PUSH1 0x20 DUP1 DUP3 MSTORE PUSH1 0x1F SWAP1 DUP3 ADD MSTORE PUSH32 0x5472616E73616374696F6E20766572696669636174696F6E206661696C656400 PUSH1 0x40 DUP3 ADD MSTORE PUSH1 0x60 ADD SWAP1 JUMP JUMPDEST PUSH0 PUSH1 0x1 DUP3 ADD PUSH2 0x15B7 JUMPI PUSH2 0x15B7 PUSH2 0x1421 JUMP JUMPDEST POP PUSH1 0x1 ADD SWAP1 JUMP INVALID KECCAK256 0xB5 0xF7 0xAC SWAP8 DUP15 0x5D PUSH2 0x99DE MOD BLOCKHASH EQ GT SWAP7 0xD STATICCALL DUP2 0xD2 0xF7 PUSH3 0x655F62 MOD 0xBD 0xC6 SAR CHAINID 0xFC NOT 0xE6 RETURN CALLDATASIZE 0xE0 0xD2 SWAP6 LOG4 0xB3 0xC9 0x27 0xE3 INVALID SWAP2 0x4B SELFDESTRUCT RETURNDATASIZE 0xE3 0x5D 0xB1 NOT 0x27 0xB3 RETURNDATACOPY 0xEB SELFDESTRUCT CODESIZE 0xA9 0xEE ORIGIN STOP 0xB7 PUSH4 0x31784101 0x21 PUSH2 0xF9C9 CALLDATASIZE 0xB4 SWAP12 0xB4 GT ORIGIN NOT EXTCODEHASH MUL 0x49 0xC8 RETURNDATASIZE 0x28 SGT PUSH26 0xBBECDFAA829BE0D3DF89A49807205CE4D355092EF5A8A18F56E8 SWAP2 EXTCODECOPY DELEGATECALL LOG2 ADD 0xFB 0xE2 DUP8 DUP3 JUMPDEST MULMOD JUMP SWAP4 0xC2 OR PUSH22 0xA26469706673582212204CE084763C59C6536B758B57 0xD7 0xED GT SHL 0xE 0xB0 0xEE DUP12 SWAP11 PUSH3 0xA68D7A 0xBA 0xAE MULMOD CALLDATACOPY 0xCC SWAP8 PUSH5 0x64736F6C63 NUMBER STOP ADDMOD AND STOP CALLER "
				},
				"gasEstimates": {
					"creation": {
						"codeDepositCost": "1149600",
						"executionCost": "infinite",
						"totalCost": "infinite"
					},
					"external": {
						"ADMIN_ROLE()": "infinite",
						"DEFAULT_ADMIN_ROLE()": "523",
						"REGULATOR_ROLE()": "infinite",
						"addAdmin(address)": "infinite",
						"addRegulator(address)": "infinite",
						"createTransaction(uint256,string,string,string)": "infinite",
						"getRoleAdmin(bytes32)": "2500",
						"getTransaction(uint256)": "infinite",
						"getUserTransactions()": "infinite",
						"grantRole(bytes32,address)": "infinite",
						"hasRole(bytes32,address)": "2912",
						"owner()": "2578",
						"removeAdmin(address)": "infinite",
						"removeRegulator(address)": "infinite",
						"renounceRole(bytes32,address)": "29128",
						"requestTransactionVerification(uint256,string)": "infinite",
						"revokeRole(bytes32,address)": "infinite",
						"supportsInterface(bytes4)": "401",
						"transactionCount()": "2668",
						"transactions(uint256)": "infinite",
						"userTransactions(address,uint256)": "5133"
					}
				},
				"methodIdentifiers": {
					"ADMIN_ROLE()": "75b238fc",
					"DEFAULT_ADMIN_ROLE()": "a217fddf",
					"REGULATOR_ROLE()": "144bf589",
					"addAdmin(address)": "70480275",
					"addRegulator(address)": "ac63f3c7",
					"createTransaction(uint256,string,string,string)": "8cb59708",
					"getRoleAdmin(bytes32)": "248a9ca3",
					"getTransaction(uint256)": "33ea3dc8",
					"getUserTransactions()": "6fe691dc",
					"grantRole(bytes32,address)": "2f2ff15d",
					"hasRole(bytes32,address)": "91d14854",
					"owner()": "8da5cb5b",
					"removeAdmin(address)": "1785f53c",
					"removeRegulator(address)": "379f5fed",
					"renounceRole(bytes32,address)": "36568abe",
					"requestTransactionVerification(uint256,string)": "93e080e0",
					"revokeRole(bytes32,address)": "d547741f",
					"supportsInterface(bytes4)": "01ffc9a7",
					"transactionCount()": "b77bf600",
					"transactions(uint256)": "9ace38c2",
					"userTransactions(address,uint256)": "b842ec44"
				}
			},
			"storageLayout": {
				"storage": [
					{
						"astId": 2203,
						"contract": "contracts/TesouroDiretoMarket.sol:TesouroDiretoMarket",
						"label": "_roles",
						"offset": 0,
						"slot": "0",
						"type": "t_mapping(t_bytes32,t_struct(RoleData)2198_storage)"
					},
					{
						"astId": 319,
						"contract": "contracts/TesouroDiretoMarket.sol:TesouroDiretoMarket",
						"label": "s_ens",
						"offset": 0,
						"slot": "1",
						"type": "t_contract(ENSInterface)974"
					},
					{
						"astId": 321,
						"contract": "contracts/TesouroDiretoMarket.sol:TesouroDiretoMarket",
						"label": "s_ensNode",
						"offset": 0,
						"slot": "2",
						"type": "t_bytes32"
					},
					{
						"astId": 324,
						"contract": "contracts/TesouroDiretoMarket.sol:TesouroDiretoMarket",
						"label": "s_link",
						"offset": 0,
						"slot": "3",
						"type": "t_contract(LinkTokenInterface)1196"
					},
					{
						"astId": 327,
						"contract": "contracts/TesouroDiretoMarket.sol:TesouroDiretoMarket",
						"label": "s_oracle",
						"offset": 0,
						"slot": "4",
						"type": "t_contract(OperatorInterface)1054"
					},
					{
						"astId": 330,
						"contract": "contracts/TesouroDiretoMarket.sol:TesouroDiretoMarket",
						"label": "s_requestCount",
						"offset": 0,
						"slot": "5",
						"type": "t_uint256"
					},
					{
						"astId": 334,
						"contract": "contracts/TesouroDiretoMarket.sol:TesouroDiretoMarket",
						"label": "s_pendingRequests",
						"offset": 0,
						"slot": "6",
						"type": "t_mapping(t_bytes32,t_address)"
					},
					{
						"astId": 2781,
						"contract": "contracts/TesouroDiretoMarket.sol:TesouroDiretoMarket",
						"label": "owner",
						"offset": 0,
						"slot": "7",
						"type": "t_address"
					},
					{
						"astId": 2783,
						"contract": "contracts/TesouroDiretoMarket.sol:TesouroDiretoMarket",
						"label": "transactionCount",
						"offset": 0,
						"slot": "8",
						"type": "t_uint256"
					},
					{
						"astId": 2788,
						"contract": "contracts/TesouroDiretoMarket.sol:TesouroDiretoMarket",
						"label": "transactions",
						"offset": 0,
						"slot": "9",
						"type": "t_mapping(t_uint256,t_struct(Transaction)2810_storage)"
					},
					{
						"astId": 2793,
						"contract": "contracts/TesouroDiretoMarket.sol:TesouroDiretoMarket",
						"label": "userTransactions",
						"offset": 0,
						"slot": "10",
						"type": "t_mapping(t_address,t_array(t_uint256)dyn_storage)"
					}
				],
				"types": {
					"t_address": {
						"encoding": "inplace",
						"label": "address",
						"numberOfBytes": "20"
					},
					"t_array(t_uint256)dyn_storage": {
						"base": "t_uint256",
						"encoding": "dynamic_array",
						"label": "uint256[]",
						"numberOfBytes": "32"
					},
					"t_bool": {
						"encoding": "inplace",
						"label": "bool",
						"numberOfBytes": "1"
					},
					"t_bytes32": {
						"encoding": "inplace",
						"label": "bytes32",
						"numberOfBytes": "32"
					},
					"t_contract(ENSInterface)974": {
						"encoding": "inplace",
						"label": "contract ENSInterface",
						"numberOfBytes": "20"
					},
					"t_contract(LinkTokenInterface)1196": {
						"encoding": "inplace",
						"label": "contract LinkTokenInterface",
						"numberOfBytes": "20"
					},
					"t_contract(OperatorInterface)1054": {
						"encoding": "inplace",
						"label": "contract OperatorInterface",
						"numberOfBytes": "20"
					},
					"t_mapping(t_address,t_array(t_uint256)dyn_storage)": {
						"encoding": "mapping",
						"key": "t_address",
						"label": "mapping(address => uint256[])",
						"numberOfBytes": "32",
						"value": "t_array(t_uint256)dyn_storage"
					},
					"t_mapping(t_address,t_bool)": {
						"encoding": "mapping",
						"key": "t_address",
						"label": "mapping(address => bool)",
						"numberOfBytes": "32",
						"value": "t_bool"
					},
					"t_mapping(t_bytes32,t_address)": {
						"encoding": "mapping",
						"key": "t_bytes32",
						"label": "mapping(bytes32 => address)",
						"numberOfBytes": "32",
						"value": "t_address"
					},
					"t_mapping(t_bytes32,t_struct(RoleData)2198_storage)": {
						"encoding": "mapping",
						"key": "t_bytes32",
						"label": "mapping(bytes32 => struct AccessControl.RoleData)",
						"numberOfBytes": "32",
						"value": "t_struct(RoleData)2198_storage"
					},
					"t_mapping(t_uint256,t_struct(Transaction)2810_storage)": {
						"encoding": "mapping",
						"key": "t_uint256",
						"label": "mapping(uint256 => struct TesouroDiretoMarket.Transaction)",
						"numberOfBytes": "32",
						"value": "t_struct(Transaction)2810_storage"
					},
					"t_string_storage": {
						"encoding": "bytes",
						"label": "string",
						"numberOfBytes": "32"
					},
					"t_struct(RoleData)2198_storage": {
						"encoding": "inplace",
						"label": "struct AccessControl.RoleData",
						"members": [
							{
								"astId": 2195,
								"contract": "contracts/TesouroDiretoMarket.sol:TesouroDiretoMarket",
								"label": "hasRole",
								"offset": 0,
								"slot": "0",
								"type": "t_mapping(t_address,t_bool)"
							},
							{
								"astId": 2197,
								"contract": "contracts/TesouroDiretoMarket.sol:TesouroDiretoMarket",
								"label": "adminRole",
								"offset": 0,
								"slot": "1",
								"type": "t_bytes32"
							}
						],
						"numberOfBytes": "64"
					},
					"t_struct(Transaction)2810_storage": {
						"encoding": "inplace",
						"label": "struct TesouroDiretoMarket.Transaction",
						"members": [
							{
								"astId": 2795,
								"contract": "contracts/TesouroDiretoMarket.sol:TesouroDiretoMarket",
								"label": "buyer",
								"offset": 0,
								"slot": "0",
								"type": "t_bytes32"
							},
							{
								"astId": 2797,
								"contract": "contracts/TesouroDiretoMarket.sol:TesouroDiretoMarket",
								"label": "seller",
								"offset": 0,
								"slot": "1",
								"type": "t_bytes32"
							},
							{
								"astId": 2799,
								"contract": "contracts/TesouroDiretoMarket.sol:TesouroDiretoMarket",
								"label": "amount",
								"offset": 0,
								"slot": "2",
								"type": "t_uint256"
							},
							{
								"astId": 2801,
								"contract": "contracts/TesouroDiretoMarket.sol:TesouroDiretoMarket",
								"label": "timestamp",
								"offset": 0,
								"slot": "3",
								"type": "t_uint256"
							},
							{
								"astId": 2803,
								"contract": "contracts/TesouroDiretoMarket.sol:TesouroDiretoMarket",
								"label": "verified",
								"offset": 0,
								"slot": "4",
								"type": "t_bool"
							},
							{
								"astId": 2805,
								"contract": "contracts/TesouroDiretoMarket.sol:TesouroDiretoMarket",
								"label": "buyerInformation",
								"offset": 0,
								"slot": "5",
								"type": "t_string_storage"
							},
							{
								"astId": 2807,
								"contract": "contracts/TesouroDiretoMarket.sol:TesouroDiretoMarket",
								"label": "sellerInformation",
								"offset": 0,
								"slot": "6",
								"type": "t_string_storage"
							},
							{
								"astId": 2809,
								"contract": "contracts/TesouroDiretoMarket.sol:TesouroDiretoMarket",
								"label": "description",
								"offset": 0,
								"slot": "7",
								"type": "t_string_storage"
							}
						],
						"numberOfBytes": "256"
					},
					"t_uint256": {
						"encoding": "inplace",
						"label": "uint256",
						"numberOfBytes": "32"
					}
				}
			},
			"userdoc": {
				"kind": "user",
				"methods": {},
				"version": 1
			}
		}
	}
}