{
	"data": {
		"bytecode": {
			"linkReferences": {},
			"object": "6080604052600160055534801562000015575f80fd5b50620000225f3362000095565b506200004f7fa49807205ce4d355092ef5a8a18f56e8913cf4a201fbe287825b095693c217753362000095565b506200007c7f20b5f7ac978e5d6199de06401411960dfa81d2f762655f6206bdc61d46fc19e63362000095565b50600780546001600160a01b0319163317905562000141565b5f828152602081815260408083206001600160a01b038516845290915281205460ff1662000138575f838152602081815260408083206001600160a01b03861684529091529020805460ff19166001179055620000ef3390565b6001600160a01b0316826001600160a01b0316847f2f8788117e7eff1d82e926ec794901d17c78024a50270940304540a733656f0d60405160405180910390a45060016200013b565b505f5b92915050565b611674806200014f5f395ff3fe608060405234801561000f575f80fd5b5060043610610105575f3560e01c806301ffc9a714610109578063144bf589146101315780631785f53c14610153578063248a9ca3146101685780632f2ff15d1461017b57806333ea3dc81461018e57806336568abe146101ae578063379f5fed146101c15780636fe691dc146101d457806370480275146101e957806375b238fc146101fc5780638cb59708146102105780638da5cb5b1461022357806391d148541461024e57806393e080e0146102615780639ace38c214610274578063a217fddf1461029b578063ac63f3c7146102a2578063b77bf600146102b5578063b842ec44146102be578063d547741f146102d1575b5f80fd5b61011c610117366004610fc3565b6102e4565b60405190151581526020015b60405180910390f35b6101455f805160206115bf83398151915281565b604051908152602001610128565b61016661016136600461100c565b61031a565b005b610145610176366004611025565b610370565b61016661018936600461103c565b610384565b6101a161019c366004611025565b6103a6565b60405161012891906110a9565b6101666101bc36600461103c565b6105ff565b6101666101cf36600461100c565b610637565b6101dc610681565b6040516101289190611148565b6101666101f736600461100c565b6106df565b6101455f8051602061161f83398151915281565b61016661021e366004611227565b61072d565b600754610236906001600160a01b031681565b6040516001600160a01b039091168152602001610128565b61011c61025c36600461103c565b610947565b61016661026f3660046112b2565b61096f565b610287610282366004611025565b610bdc565b6040516101289897969594939291906112f5565b6101455f81565b6101666102b036600461100c565b610db6565b61014560085481565b6101456102cc36600461135f565b610e00565b6101666102df36600461103c565b610e2b565b5f6001600160e01b03198216637965db0b60e01b148061031457506301ffc9a760e01b6001600160e01b03198316145b92915050565b6103315f8051602061161f83398151915233610947565b6103565760405162461bcd60e51b815260040161034d90611387565b60405180910390fd5b61036d5f8051602061161f83398151915282610e2b565b50565b5f9081526020819052604090206001015490565b61038d82610370565b61039681610e47565b6103a08383610e51565b50505050565b6103f16040518061010001604052805f80191681526020015f80191681526020015f81526020015f81526020015f151581526020016060815260200160608152602001606081525090565b5f828152600960209081526040918290208251610100810184528154815260018201549281019290925260028101549282019290925260038201546060820152600482015460ff161515608082015260058201805491929160a084019190610458906113b5565b80601f0160208091040260200160405190810160405280929190818152602001828054610484906113b5565b80156104cf5780601f106104a6576101008083540402835291602001916104cf565b820191905f5260205f20905b8154815290600101906020018083116104b257829003601f168201915b505050505081526020016006820180546104e8906113b5565b80601f0160208091040260200160405190810160405280929190818152602001828054610514906113b5565b801561055f5780601f106105365761010080835404028352916020019161055f565b820191905f5260205f20905b81548152906001019060200180831161054257829003601f168201915b50505050508152602001600782018054610578906113b5565b80601f01602080910402602001604051908101604052809291908181526020018280546105a4906113b5565b80156105ef5780601f106105c6576101008083540402835291602001916105ef565b820191905f5260205f20905b8154815290600101906020018083116105d257829003601f168201915b5050505050815250509050919050565b6001600160a01b03811633146106285760405163334bd91960e11b815260040160405180910390fd5b6106328282610ee0565b505050565b61064e5f8051602061161f83398151915233610947565b61066a5760405162461bcd60e51b815260040161034d90611387565b61036d5f805160206115bf83398151915282610e2b565b335f908152600a60209081526040918290208054835181840281018401909452808452606093928301828280156106d557602002820191905f5260205f20905b8154815260200190600101908083116106c1575b5050505050905090565b6106f65f8051602061161f83398151915233610947565b6107125760405162461bcd60e51b815260040161034d90611387565b6107295f8051602061161f83398151915282610e51565b5050565b5f841161074c5760405162461bcd60e51b815260040161034d906113ed565b683635c9adc5dea000008411156107755760405162461bcd60e51b815260040161034d906113ed565b5f6107803342610f49565b90505f61079733610792426001611435565b610f49565b604080516101008101825284815260208082018481528284018b815242606085019081525f6080860181815260a087018e815260c088018e905260e088018d905260085483526009909652969020855181559251600184015590516002830155516003820155925160048401805460ff1916911515919091179055519293509160058201906108269082611493565b5060c0820151600682019061083b9082611493565b5060e082015160078201906108509082611493565b50506008545f818152600960205260408082206001810154815460028301546003909301549351919650945f805160206115df8339815191529461089694919392611552565b60405180910390a36108b086681b1ae4d6e2ef5000001090565b6108cc5760405162461bcd60e51b815260040161034d9061156f565b60085460408051428152602081018990525f805160206115ff833981519152910160405180910390a2335f908152600a602090815260408220600880548254600180820185558487529486209081019190915581548354948501909355929092015580549161093a836115a6565b9190505550505050505050565b5f918252602082815260408084206001600160a01b0393909316845291905290205460ff1690565b6109865f805160206115bf83398151915233610947565b6109cd5760405162461bcd60e51b81526020600482015260186024820152774d757374206861766520726567756c61746f7220726f6c6560401b604482015260640161034d565b683635c9adc5dea000008211156109f65760405162461bcd60e51b815260040161034d906113ed565b610a0882681b1ae4d6e2ef5000001090565b610a245760405162461bcd60e51b815260040161034d9061156f565b5f610a2f3342610f49565b90505f610a4133610792426001611435565b604080516101008101825284815260208082018481528284018981524260608501908152600160808601818152875180870189525f80825260a0890191825289518089018b5281815260c08a015260e089018e905260085481526009909752979095208651815593519084015590516002830155516003820155905160048201805460ff19169115159190911790559151929350916005820190610ae59082611493565b5060c08201516006820190610afa9082611493565b5060e08201516007820190610b0f9082611493565b50506008545f8181526009602052604090819020600180820154825460028401546003909401549451919650945f805160206115df83398151915294610b5b9491939192909190611552565b60405180910390a360085460408051428152602081018790525f805160206115ff833981519152910160405180910390a2335f908152600a6020908152604082206008805482546001808201855584875294862090810191909155815483549485019093559290920155805491610bd1836115a6565b919050555050505050565b60096020525f9081526040902080546001820154600283015460038401546004850154600586018054959694959394929360ff9092169291610c1d906113b5565b80601f0160208091040260200160405190810160405280929190818152602001828054610c49906113b5565b8015610c945780601f10610c6b57610100808354040283529160200191610c94565b820191905f5260205f20905b815481529060010190602001808311610c7757829003601f168201915b505050505090806006018054610ca9906113b5565b80601f0160208091040260200160405190810160405280929190818152602001828054610cd5906113b5565b8015610d205780601f10610cf757610100808354040283529160200191610d20565b820191905f5260205f20905b815481529060010190602001808311610d0357829003601f168201915b505050505090806007018054610d35906113b5565b80601f0160208091040260200160405190810160405280929190818152602001828054610d61906113b5565b8015610dac5780601f10610d8357610100808354040283529160200191610dac565b820191905f5260205f20905b815481529060010190602001808311610d8f57829003601f168201915b5050505050905088565b610dcd5f8051602061161f83398151915233610947565b610de95760405162461bcd60e51b815260040161034d90611387565b6107295f805160206115bf83398151915282610e51565b600a602052815f5260405f208181548110610e19575f80fd5b905f5260205f20015f91509150505481565b610e3482610370565b610e3d81610e47565b6103a08383610ee0565b61036d8133610f8a565b5f610e5c8383610947565b610ed9575f838152602081815260408083206001600160a01b03861684529091529020805460ff19166001179055610e913390565b6001600160a01b0316826001600160a01b0316847f2f8788117e7eff1d82e926ec794901d17c78024a50270940304540a733656f0d60405160405180910390a4506001610314565b505f610314565b5f610eeb8383610947565b15610ed9575f838152602081815260408083206001600160a01b0386168085529252808320805460ff1916905551339286917ff6391f5c32d9c69d2a47ea670b442974b53935d1edc7fd64eb21e047a839171b9190a4506001610314565b6040516001600160601b0319606084901b166020820152603481018290525f9060540160405160208183030381529060405280519060200120905092915050565b610f948282610947565b6107295760405163e2517d3f60e01b81526001600160a01b03821660048201526024810183905260440161034d565b5f60208284031215610fd3575f80fd5b81356001600160e01b031981168114610fea575f80fd5b9392505050565b80356001600160a01b0381168114611007575f80fd5b919050565b5f6020828403121561101c575f80fd5b610fea82610ff1565b5f60208284031215611035575f80fd5b5035919050565b5f806040838503121561104d575f80fd5b8235915061105d60208401610ff1565b90509250929050565b5f81518084525f5b8181101561108a5760208185018101518683018201520161106e565b505f602082860101526020601f19601f83011685010191505092915050565b60208152815160208201526020820151604082015260408201516060820152606082015160808201525f60808301516110e660a084018215159052565b5060a08301516101008060c0850152611103610120850183611066565b915060c0850151601f19808685030160e08701526111218483611066565b935060e087015191508086850301838701525061113e8382611066565b9695505050505050565b602080825282518282018190525f9190848201906040850190845b8181101561117f57835183529284019291840191600101611163565b50909695505050505050565b634e487b7160e01b5f52604160045260245ffd5b5f82601f8301126111ae575f80fd5b81356001600160401b03808211156111c8576111c861118b565b604051601f8301601f19908116603f011681019082821181831017156111f0576111f061118b565b81604052838152866020858801011115611208575f80fd5b836020870160208301375f602085830101528094505050505092915050565b5f805f806080858703121561123a575f80fd5b8435935060208501356001600160401b0380821115611257575f80fd5b6112638883890161119f565b94506040870135915080821115611278575f80fd5b6112848883890161119f565b93506060870135915080821115611299575f80fd5b506112a68782880161119f565b91505092959194509250565b5f80604083850312156112c3575f80fd5b8235915060208301356001600160401b038111156112df575f80fd5b6112eb8582860161119f565b9150509250929050565b5f6101008a835289602084015288604084015287606084015286151560808401528060a084015261132881840187611066565b905082810360c084015261133c8186611066565b905082810360e08401526113508185611066565b9b9a5050505050505050505050565b5f8060408385031215611370575f80fd5b61137983610ff1565b946020939093013593505050565b6020808252601490820152734d75737420686176652061646d696e20726f6c6560601b604082015260600190565b600181811c908216806113c957607f821691505b6020821081036113e757634e487b7160e01b5f52602260045260245ffd5b50919050565b6020808252601a9082015279125b9d985b1a59081d1c985b9cd858dd1a5bdb88185b5bdd5b9d60321b604082015260600190565b634e487b7160e01b5f52601160045260245ffd5b8082018082111561031457610314611421565b601f82111561063257805f5260205f20601f840160051c8101602085101561146d5750805b601f840160051c820191505b8181101561148c575f8155600101611479565b5050505050565b81516001600160401b038111156114ac576114ac61118b565b6114c0816114ba84546113b5565b84611448565b602080601f8311600181146114f3575f84156114dc5750858301515b5f19600386901b1c1916600185901b17855561154a565b5f85815260208120601f198616915b8281101561152157888601518255948401946001909101908401611502565b508582101561153e57878501515f19600388901b60f8161c191681555b505060018460011b0185555b505050505050565b938452602084019290925260408301521515606082015260800190565b6020808252601f908201527f5472616e73616374696f6e20766572696669636174696f6e206661696c656400604082015260600190565b5f600182016115b7576115b7611421565b506001019056fe20b5f7ac978e5d6199de06401411960dfa81d2f762655f6206bdc61d46fc19e6f336e0d295a4b3c927e3fe914bff3de35db11927b33eebff38a9ee3200b763317841012161f9c936b49bb41132193f0249c83d281379bbecdfaa829be0d3df89a49807205ce4d355092ef5a8a18f56e8913cf4a201fbe287825b095693c21775a26469706673582212204ce084763c59c6536b758b57d7ed111b0eb0ee8b9a62a68d7abaae0937cc976464736f6c63430008160033",
			"opcodes": "PUSH1 0x80 PUSH1 0x40 MSTORE PUSH1 0x1 PUSH1 0x5 SSTORE CALLVALUE DUP1 ISZERO PUSH3 0x15 JUMPI PUSH0 DUP1 REVERT JUMPDEST POP PUSH3 0x22 PUSH0 CALLER PUSH3 0x95 JUMP JUMPDEST POP PUSH3 0x4F PUSH32 0xA49807205CE4D355092EF5A8A18F56E8913CF4A201FBE287825B095693C21775 CALLER PUSH3 0x95 JUMP JUMPDEST POP PUSH3 0x7C PUSH32 0x20B5F7AC978E5D6199DE06401411960DFA81D2F762655F6206BDC61D46FC19E6 CALLER PUSH3 0x95 JUMP JUMPDEST POP PUSH1 0x7 DUP1 SLOAD PUSH1 0x1 PUSH1 0x1 PUSH1 0xA0 SHL SUB NOT AND CALLER OR SWAP1 SSTORE PUSH3 0x141 JUMP JUMPDEST PUSH0 DUP3 DUP2 MSTORE PUSH1 0x20 DUP2 DUP2 MSTORE PUSH1 0x40 DUP1 DUP4 KECCAK256 PUSH1 0x1 PUSH1 0x1 PUSH1 0xA0 SHL SUB DUP6 AND DUP5 MSTORE SWAP1 SWAP2 MSTORE DUP2 KECCAK256 SLOAD PUSH1 0xFF AND PUSH3 0x138 JUMPI PUSH0 DUP4 DUP2 MSTORE PUSH1 0x20 DUP2 DUP2 MSTORE PUSH1 0x40 DUP1 DUP4 KECCAK256 PUSH1 0x1 PUSH1 0x1 PUSH1 0xA0 SHL SUB DUP7 AND DUP5 MSTORE SWAP1 SWAP2 MSTORE SWAP1 KECCAK256 DUP1 SLOAD PUSH1 0xFF NOT AND PUSH1 0x1 OR SWAP1 SSTORE PUSH3 0xEF CALLER SWAP1 JUMP JUMPDEST PUSH1 0x1 PUSH1 0x1 PUSH1 0xA0 SHL SUB AND DUP3 PUSH1 0x1 PUSH1 0x1 PUSH1 0xA0 SHL SUB AND DUP5 PUSH32 0x2F8788117E7EFF1D82E926EC794901D17C78024A50270940304540A733656F0D PUSH1 0x40 MLOAD PUSH1 0x40 MLOAD DUP1 SWAP2 SUB SWAP1 LOG4 POP PUSH1 0x1 PUSH3 0x13B JUMP JUMPDEST POP PUSH0 JUMPDEST SWAP3 SWAP2 POP POP JUMP JUMPDEST PUSH2 0x1674 DUP1 PUSH3 0x14F PUSH0 CODECOPY PUSH0 RETURN INVALID PUSH1 0x80 PUSH1 0x40 MSTORE CALLVALUE DUP1 ISZERO PUSH2 0xF JUMPI PUSH0 DUP1 REVERT JUMPDEST POP PUSH1 0x4 CALLDATASIZE LT PUSH2 0x105 JUMPI PUSH0 CALLDATALOAD PUSH1 0xE0 SHR DUP1 PUSH4 0x1FFC9A7 EQ PUSH2 0x109 JUMPI DUP1 PUSH4 0x144BF589 EQ PUSH2 0x131 JUMPI DUP1 PUSH4 0x1785F53C EQ PUSH2 0x153 JUMPI DUP1 PUSH4 0x248A9CA3 EQ PUSH2 0x168 JUMPI DUP1 PUSH4 0x2F2FF15D EQ PUSH2 0x17B JUMPI DUP1 PUSH4 0x33EA3DC8 EQ PUSH2 0x18E JUMPI DUP1 PUSH4 0x36568ABE EQ PUSH2 0x1AE JUMPI DUP1 PUSH4 0x379F5FED EQ PUSH2 0x1C1 JUMPI DUP1 PUSH4 0x6FE691DC EQ PUSH2 0x1D4 JUMPI DUP1 PUSH4 0x70480275 EQ PUSH2 0x1E9 JUMPI DUP1 PUSH4 0x75B238FC EQ PUSH2 0x1FC JUMPI DUP1 PUSH4 0x8CB59708 EQ PUSH2 0x210 JUMPI DUP1 PUSH4 0x8DA5CB5B EQ PUSH2 0x223 JUMPI DUP1 PUSH4 0x91D14854 EQ PUSH2 0x24E JUMPI DUP1 PUSH4 0x93E080E0 EQ PUSH2 0x261 JUMPI DUP1 PUSH4 0x9ACE38C2 EQ PUSH2 0x274 JUMPI DUP1 PUSH4 0xA217FDDF EQ PUSH2 0x29B JUMPI DUP1 PUSH4 0xAC63F3C7 EQ PUSH2 0x2A2 JUMPI DUP1 PUSH4 0xB77BF600 EQ PUSH2 0x2B5 JUMPI DUP1 PUSH4 0xB842EC44 EQ PUSH2 0x2BE JUMPI DUP1 PUSH4 0xD547741F EQ PUSH2 0x2D1 JUMPI JUMPDEST PUSH0 DUP1 REVERT JUMPDEST PUSH2 0x11C PUSH2 0x117 CALLDATASIZE PUSH1 0x4 PUSH2 0xFC3 JUMP JUMPDEST PUSH2 0x2E4 JUMP JUMPDEST PUSH1 0x40 MLOAD SWAP1 ISZERO ISZERO DUP2 MSTORE PUSH1 0x20 ADD JUMPDEST PUSH1 0x40 MLOAD DUP1 SWAP2 SUB SWAP1 RETURN JUMPDEST PUSH2 0x145 PUSH0 DUP1 MLOAD PUSH1 0x20 PUSH2 0x15BF DUP4 CODECOPY DUP2 MLOAD SWAP2 MSTORE DUP2 JUMP JUMPDEST PUSH1 0x40 MLOAD SWAP1 DUP2 MSTORE PUSH1 0x20 ADD PUSH2 0x128 JUMP JUMPDEST PUSH2 0x166 PUSH2 0x161 CALLDATASIZE PUSH1 0x4 PUSH2 0x100C JUMP JUMPDEST PUSH2 0x31A JUMP JUMPDEST STOP JUMPDEST PUSH2 0x145 PUSH2 0x176 CALLDATASIZE PUSH1 0x4 PUSH2 0x1025 JUMP JUMPDEST PUSH2 0x370 JUMP JUMPDEST PUSH2 0x166 PUSH2 0x189 CALLDATASIZE PUSH1 0x4 PUSH2 0x103C JUMP JUMPDEST PUSH2 0x384 JUMP JUMPDEST PUSH2 0x1A1 PUSH2 0x19C CALLDATASIZE PUSH1 0x4 PUSH2 0x1025 JUMP JUMPDEST PUSH2 0x3A6 JUMP JUMPDEST PUSH1 0x40 MLOAD PUSH2 0x128 SWAP2 SWAP1 PUSH2 0x10A9 JUMP JUMPDEST PUSH2 0x166 PUSH2 0x1BC CALLDATASIZE PUSH1 0x4 PUSH2 0x103C JUMP JUMPDEST PUSH2 0x5FF JUMP JUMPDEST PUSH2 0x166 PUSH2 0x1CF CALLDATASIZE PUSH1 0x4 PUSH2 0x100C JUMP JUMPDEST PUSH2 0x637 JUMP JUMPDEST PUSH2 0x1DC PUSH2 0x681 JUMP JUMPDEST PUSH1 0x40 MLOAD PUSH2 0x128 SWAP2 SWAP1 PUSH2 0x1148 JUMP JUMPDEST PUSH2 0x166 PUSH2 0x1F7 CALLDATASIZE PUSH1 0x4 PUSH2 0x100C JUMP JUMPDEST PUSH2 0x6DF JUMP JUMPDEST PUSH2 0x145 PUSH0 DUP1 MLOAD PUSH1 0x20 PUSH2 0x161F DUP4 CODECOPY DUP2 MLOAD SWAP2 MSTORE DUP2 JUMP JUMPDEST PUSH2 0x166 PUSH2 0x21E CALLDATASIZE PUSH1 0x4 PUSH2 0x1227 JUMP JUMPDEST PUSH2 0x72D JUMP JUMPDEST PUSH1 0x7 SLOAD PUSH2 0x236 SWAP1 PUSH1 0x1 PUSH1 0x1 PUSH1 0xA0 SHL SUB AND DUP2 JUMP JUMPDEST PUSH1 0x40 MLOAD PUSH1 0x1 PUSH1 0x1 PUSH1 0xA0 SHL SUB SWAP1 SWAP2 AND DUP2 MSTORE PUSH1 0x20 ADD PUSH2 0x128 JUMP JUMPDEST PUSH2 0x11C PUSH2 0x25C CALLDATASIZE PUSH1 0x4 PUSH2 0x103C JUMP JUMPDEST PUSH2 0x947 JUMP JUMPDEST PUSH2 0x166 PUSH2 0x26F CALLDATASIZE PUSH1 0x4 PUSH2 0x12B2 JUMP JUMPDEST PUSH2 0x96F JUMP JUMPDEST PUSH2 0x287 PUSH2 0x282 CALLDATASIZE PUSH1 0x4 PUSH2 0x1025 JUMP JUMPDEST PUSH2 0xBDC JUMP JUMPDEST PUSH1 0x40 MLOAD PUSH2 0x128 SWAP9 SWAP8 SWAP7 SWAP6 SWAP5 SWAP4 SWAP3 SWAP2 SWAP1 PUSH2 0x12F5 JUMP JUMPDEST PUSH2 0x145 PUSH0 DUP2 JUMP JUMPDEST PUSH2 0x166 PUSH2 0x2B0 CALLDATASIZE PUSH1 0x4 PUSH2 0x100C JUMP JUMPDEST PUSH2 0xDB6 JUMP JUMPDEST PUSH2 0x145 PUSH1 0x8 SLOAD DUP2 JUMP JUMPDEST PUSH2 0x145 PUSH2 0x2CC CALLDATASIZE PUSH1 0x4 PUSH2 0x135F JUMP JUMPDEST PUSH2 0xE00 JUMP JUMPDEST PUSH2 0x166 PUSH2 0x2DF CALLDATASIZE PUSH1 0x4 PUSH2 0x103C JUMP JUMPDEST PUSH2 0xE2B JUMP JUMPDEST PUSH0 PUSH1 0x1 PUSH1 0x1 PUSH1 0xE0 SHL SUB NOT DUP3 AND PUSH4 0x7965DB0B PUSH1 0xE0 SHL EQ DUP1 PUSH2 0x314 JUMPI POP PUSH4 0x1FFC9A7 PUSH1 0xE0 SHL PUSH1 0x1 PUSH1 0x1 PUSH1 0xE0 SHL SUB NOT DUP4 AND EQ JUMPDEST SWAP3 SWAP2 POP POP JUMP JUMPDEST PUSH2 0x331 PUSH0 DUP1 MLOAD PUSH1 0x20 PUSH2 0x161F DUP4 CODECOPY DUP2 MLOAD SWAP2 MSTORE CALLER PUSH2 0x947 JUMP JUMPDEST PUSH2 0x356 JUMPI PUSH1 0x40 MLOAD PUSH3 0x461BCD PUSH1 0xE5 SHL DUP2 MSTORE PUSH1 0x4 ADD PUSH2 0x34D SWAP1 PUSH2 0x1387 JUMP JUMPDEST PUSH1 0x40 MLOAD DUP1 SWAP2 SUB SWAP1 REVERT JUMPDEST PUSH2 0x36D PUSH0 DUP1 MLOAD PUSH1 0x20 PUSH2 0x161F DUP4 CODECOPY DUP2 MLOAD SWAP2 MSTORE DUP3 PUSH2 0xE2B JUMP JUMPDEST POP JUMP JUMPDEST PUSH0 SWAP1 DUP2 MSTORE PUSH1 0x20 DUP2 SWAP1 MSTORE PUSH1 0x40 SWAP1 KECCAK256 PUSH1 0x1 ADD SLOAD SWAP1 JUMP JUMPDEST PUSH2 0x38D DUP3 PUSH2 0x370 JUMP JUMPDEST PUSH2 0x396 DUP2 PUSH2 0xE47 JUMP JUMPDEST PUSH2 0x3A0 DUP4 DUP4 PUSH2 0xE51 JUMP JUMPDEST POP POP POP POP JUMP JUMPDEST PUSH2 0x3F1 PUSH1 0x40 MLOAD DUP1 PUSH2 0x100 ADD PUSH1 0x40 MSTORE DUP1 PUSH0 DUP1 NOT AND DUP2 MSTORE PUSH1 0x20 ADD PUSH0 DUP1 NOT AND DUP2 MSTORE PUSH1 0x20 ADD PUSH0 DUP2 MSTORE PUSH1 0x20 ADD PUSH0 DUP2 MSTORE PUSH1 0x20 ADD PUSH0 ISZERO ISZERO DUP2 MSTORE PUSH1 0x20 ADD PUSH1 0x60 DUP2 MSTORE PUSH1 0x20 ADD PUSH1 0x60 DUP2 MSTORE PUSH1 0x20 ADD PUSH1 0x60 DUP2 MSTORE POP SWAP1 JUMP JUMPDEST PUSH0 DUP3 DUP2 MSTORE PUSH1 0x9 PUSH1 0x20 SWAP1 DUP2 MSTORE PUSH1 0x40 SWAP2 DUP3 SWAP1 KECCAK256 DUP3 MLOAD PUSH2 0x100 DUP2 ADD DUP5 MSTORE DUP2 SLOAD DUP2 MSTORE PUSH1 0x1 DUP3 ADD SLOAD SWAP3 DUP2 ADD SWAP3 SWAP1 SWAP3 MSTORE PUSH1 0x2 DUP2 ADD SLOAD SWAP3 DUP3 ADD SWAP3 SWAP1 SWAP3 MSTORE PUSH1 0x3 DUP3 ADD SLOAD PUSH1 0x60 DUP3 ADD MSTORE PUSH1 0x4 DUP3 ADD SLOAD PUSH1 0xFF AND ISZERO ISZERO PUSH1 0x80 DUP3 ADD MSTORE PUSH1 0x5 DUP3 ADD DUP1 SLOAD SWAP2 SWAP3 SWAP2 PUSH1 0xA0 DUP5 ADD SWAP2 SWAP1 PUSH2 0x458 SWAP1 PUSH2 0x13B5 JUMP JUMPDEST DUP1 PUSH1 0x1F ADD PUSH1 0x20 DUP1 SWAP2 DIV MUL PUSH1 0x20 ADD PUSH1 0x40 MLOAD SWAP1 DUP2 ADD PUSH1 0x40 MSTORE DUP1 SWAP3 SWAP2 SWAP1 DUP2 DUP2 MSTORE PUSH1 0x20 ADD DUP3 DUP1 SLOAD PUSH2 0x484 SWAP1 PUSH2 0x13B5 JUMP JUMPDEST DUP1 ISZERO PUSH2 0x4CF JUMPI DUP1 PUSH1 0x1F LT PUSH2 0x4A6 JUMPI PUSH2 0x100 DUP1 DUP4 SLOAD DIV MUL DUP4 MSTORE SWAP2 PUSH1 0x20 ADD SWAP2 PUSH2 0x4CF JUMP JUMPDEST DUP3 ADD SWAP2 SWAP1 PUSH0 MSTORE PUSH1 0x20 PUSH0 KECCAK256 SWAP1 JUMPDEST DUP2 SLOAD DUP2 MSTORE SWAP1 PUSH1 0x1 ADD SWAP1 PUSH1 0x20 ADD DUP1 DUP4 GT PUSH2 0x4B2 JUMPI DUP3 SWAP1 SUB PUSH1 0x1F AND DUP3 ADD SWAP2 JUMPDEST POP POP POP POP POP DUP2 MSTORE PUSH1 0x20 ADD PUSH1 0x6 DUP3 ADD DUP1 SLOAD PUSH2 0x4E8 SWAP1 PUSH2 0x13B5 JUMP JUMPDEST DUP1 PUSH1 0x1F ADD PUSH1 0x20 DUP1 SWAP2 DIV MUL PUSH1 0x20 ADD PUSH1 0x40 MLOAD SWAP1 DUP2 ADD PUSH1 0x40 MSTORE DUP1 SWAP3 SWAP2 SWAP1 DUP2 DUP2 MSTORE PUSH1 0x20 ADD DUP3 DUP1 SLOAD PUSH2 0x514 SWAP1 PUSH2 0x13B5 JUMP JUMPDEST DUP1 ISZERO PUSH2 0x55F JUMPI DUP1 PUSH1 0x1F LT PUSH2 0x536 JUMPI PUSH2 0x100 DUP1 DUP4 SLOAD DIV MUL DUP4 MSTORE SWAP2 PUSH1 0x20 ADD SWAP2 PUSH2 0x55F JUMP JUMPDEST DUP3 ADD SWAP2 SWAP1 PUSH0 MSTORE PUSH1 0x20 PUSH0 KECCAK256 SWAP1 JUMPDEST DUP2 SLOAD DUP2 MSTORE SWAP1 PUSH1 0x1 ADD SWAP1 PUSH1 0x20 ADD DUP1 DUP4 GT PUSH2 0x542 JUMPI DUP3 SWAP1 SUB PUSH1 0x1F AND DUP3 ADD SWAP2 JUMPDEST POP POP POP POP POP DUP2 MSTORE PUSH1 0x20 ADD PUSH1 0x7 DUP3 ADD DUP1 SLOAD PUSH2 0x578 SWAP1 PUSH2 0x13B5 JUMP JUMPDEST DUP1 PUSH1 0x1F ADD PUSH1 0x20 DUP1 SWAP2 DIV MUL PUSH1 0x20 ADD PUSH1 0x40 MLOAD SWAP1 DUP2 ADD PUSH1 0x40 MSTORE DUP1 SWAP3 SWAP2 SWAP1 DUP2 DUP2 MSTORE PUSH1 0x20 ADD DUP3 DUP1 SLOAD PUSH2 0x5A4 SWAP1 PUSH2 0x13B5 JUMP JUMPDEST DUP1 ISZERO PUSH2 0x5EF JUMPI DUP1 PUSH1 0x1F LT PUSH2 0x5C6 JUMPI PUSH2 0x100 DUP1 DUP4 SLOAD DIV MUL DUP4 MSTORE SWAP2 PUSH1 0x20 ADD SWAP2 PUSH2 0x5EF JUMP JUMPDEST DUP3 ADD SWAP2 SWAP1 PUSH0 MSTORE PUSH1 0x20 PUSH0 KECCAK256 SWAP1 JUMPDEST DUP2 SLOAD DUP2 MSTORE SWAP1 PUSH1 0x1 ADD SWAP1 PUSH1 0x20 ADD DUP1 DUP4 GT PUSH2 0x5D2 JUMPI DUP3 SWAP1 SUB PUSH1 0x1F AND DUP3 ADD SWAP2 JUMPDEST POP POP POP POP POP DUP2 MSTORE POP POP SWAP1 POP SWAP2 SWAP1 POP JUMP JUMPDEST PUSH1 0x1 PUSH1 0x1 PUSH1 0xA0 SHL SUB DUP2 AND CALLER EQ PUSH2 0x628 JUMPI PUSH1 0x40 MLOAD PUSH4 0x334BD919 PUSH1 0xE1 SHL DUP2 MSTORE PUSH1 0x4 ADD PUSH1 0x40 MLOAD DUP1 SWAP2 SUB SWAP1 REVERT JUMPDEST PUSH2 0x632 DUP3 DUP3 PUSH2 0xEE0 JUMP JUMPDEST POP POP POP JUMP JUMPDEST PUSH2 0x64E PUSH0 DUP1 MLOAD PUSH1 0x20 PUSH2 0x161F DUP4 CODECOPY DUP2 MLOAD SWAP2 MSTORE CALLER PUSH2 0x947 JUMP JUMPDEST PUSH2 0x66A JUMPI PUSH1 0x40 MLOAD PUSH3 0x461BCD PUSH1 0xE5 SHL DUP2 MSTORE PUSH1 0x4 ADD PUSH2 0x34D SWAP1 PUSH2 0x1387 JUMP JUMPDEST PUSH2 0x36D PUSH0 DUP1 MLOAD PUSH1 0x20 PUSH2 0x15BF DUP4 CODECOPY DUP2 MLOAD SWAP2 MSTORE DUP3 PUSH2 0xE2B JUMP JUMPDEST CALLER PUSH0 SWAP1 DUP2 MSTORE PUSH1 0xA PUSH1 0x20 SWAP1 DUP2 MSTORE PUSH1 0x40 SWAP2 DUP3 SWAP1 KECCAK256 DUP1 SLOAD DUP4 MLOAD DUP2 DUP5 MUL DUP2 ADD DUP5 ADD SWAP1 SWAP5 MSTORE DUP1 DUP5 MSTORE PUSH1 0x60 SWAP4 SWAP3 DUP4 ADD DUP3 DUP3 DUP1 ISZERO PUSH2 0x6D5 JUMPI PUSH1 0x20 MUL DUP3 ADD SWAP2 SWAP1 PUSH0 MSTORE PUSH1 0x20 PUSH0 KECCAK256 SWAP1 JUMPDEST DUP2 SLOAD DUP2 MSTORE PUSH1 0x20 ADD SWAP1 PUSH1 0x1 ADD SWAP1 DUP1 DUP4 GT PUSH2 0x6C1 JUMPI JUMPDEST POP POP POP POP POP SWAP1 POP SWAP1 JUMP JUMPDEST PUSH2 0x6F6 PUSH0 DUP1 MLOAD PUSH1 0x20 PUSH2 0x161F DUP4 CODECOPY DUP2 MLOAD SWAP2 MSTORE CALLER PUSH2 0x947 JUMP JUMPDEST PUSH2 0x712 JUMPI PUSH1 0x40 MLOAD PUSH3 0x461BCD PUSH1 0xE5 SHL DUP2 MSTORE PUSH1 0x4 ADD PUSH2 0x34D SWAP1 PUSH2 0x1387 JUMP JUMPDEST PUSH2 0x729 PUSH0 DUP1 MLOAD PUSH1 0x20 PUSH2 0x161F DUP4 CODECOPY DUP2 MLOAD SWAP2 MSTORE DUP3 PUSH2 0xE51 JUMP JUMPDEST POP POP JUMP JUMPDEST PUSH0 DUP5 GT PUSH2 0x74C JUMPI PUSH1 0x40 MLOAD PUSH3 0x461BCD PUSH1 0xE5 SHL DUP2 MSTORE PUSH1 0x4 ADD PUSH2 0x34D SWAP1 PUSH2 0x13ED JUMP JUMPDEST PUSH9 0x3635C9ADC5DEA00000 DUP5 GT ISZERO PUSH2 0x775 JUMPI PUSH1 0x40 MLOAD PUSH3 0x461BCD PUSH1 0xE5 SHL DUP2 MSTORE PUSH1 0x4 ADD PUSH2 0x34D SWAP1 PUSH2 0x13ED JUMP JUMPDEST PUSH0 PUSH2 0x780 CALLER TIMESTAMP PUSH2 0xF49 JUMP JUMPDEST SWAP1 POP PUSH0 PUSH2 0x797 CALLER PUSH2 0x792 TIMESTAMP PUSH1 0x1 PUSH2 0x1435 JUMP JUMPDEST PUSH2 0xF49 JUMP JUMPDEST PUSH1 0x40 DUP1 MLOAD PUSH2 0x100 DUP2 ADD DUP3 MSTORE DUP5 DUP2 MSTORE PUSH1 0x20 DUP1 DUP3 ADD DUP5 DUP2 MSTORE DUP3 DUP5 ADD DUP12 DUP2 MSTORE TIMESTAMP PUSH1 0x60 DUP6 ADD SWAP1 DUP2 MSTORE PUSH0 PUSH1 0x80 DUP7 ADD DUP2 DUP2 MSTORE PUSH1 0xA0 DUP8 ADD DUP15 DUP2 MSTORE PUSH1 0xC0 DUP9 ADD DUP15 SWAP1 MSTORE PUSH1 0xE0 DUP9 ADD DUP14 SWAP1 MSTORE PUSH1 0x8 SLOAD DUP4 MSTORE PUSH1 0x9 SWAP1 SWAP7 MSTORE SWAP7 SWAP1 KECCAK256 DUP6 MLOAD DUP2 SSTORE SWAP3 MLOAD PUSH1 0x1 DUP5 ADD SSTORE SWAP1 MLOAD PUSH1 0x2 DUP4 ADD SSTORE MLOAD PUSH1 0x3 DUP3 ADD SSTORE SWAP3 MLOAD PUSH1 0x4 DUP5 ADD DUP1 SLOAD PUSH1 0xFF NOT AND SWAP2 ISZERO ISZERO SWAP2 SWAP1 SWAP2 OR SWAP1 SSTORE MLOAD SWAP3 SWAP4 POP SWAP2 PUSH1 0x5 DUP3 ADD SWAP1 PUSH2 0x826 SWAP1 DUP3 PUSH2 0x1493 JUMP JUMPDEST POP PUSH1 0xC0 DUP3 ADD MLOAD PUSH1 0x6 DUP3 ADD SWAP1 PUSH2 0x83B SWAP1 DUP3 PUSH2 0x1493 JUMP JUMPDEST POP PUSH1 0xE0 DUP3 ADD MLOAD PUSH1 0x7 DUP3 ADD SWAP1 PUSH2 0x850 SWAP1 DUP3 PUSH2 0x1493 JUMP JUMPDEST POP POP PUSH1 0x8 SLOAD PUSH0 DUP2 DUP2 MSTORE PUSH1 0x9 PUSH1 0x20 MSTORE PUSH1 0x40 DUP1 DUP3 KECCAK256 PUSH1 0x1 DUP2 ADD SLOAD DUP2 SLOAD PUSH1 0x2 DUP4 ADD SLOAD PUSH1 0x3 SWAP1 SWAP4 ADD SLOAD SWAP4 MLOAD SWAP2 SWAP7 POP SWAP5 PUSH0 DUP1 MLOAD PUSH1 0x20 PUSH2 0x15DF DUP4 CODECOPY DUP2 MLOAD SWAP2 MSTORE SWAP5 PUSH2 0x896 SWAP5 SWAP2 SWAP4 SWAP3 PUSH2 0x1552 JUMP JUMPDEST PUSH1 0x40 MLOAD DUP1 SWAP2 SUB SWAP1 LOG3 PUSH2 0x8B0 DUP7 PUSH9 0x1B1AE4D6E2EF500000 LT SWAP1 JUMP JUMPDEST PUSH2 0x8CC JUMPI PUSH1 0x40 MLOAD PUSH3 0x461BCD PUSH1 0xE5 SHL DUP2 MSTORE PUSH1 0x4 ADD PUSH2 0x34D SWAP1 PUSH2 0x156F JUMP JUMPDEST PUSH1 0x8 SLOAD PUSH1 0x40 DUP1 MLOAD TIMESTAMP DUP2 MSTORE PUSH1 0x20 DUP2 ADD DUP10 SWAP1 MSTORE PUSH0 DUP1 MLOAD PUSH1 0x20 PUSH2 0x15FF DUP4 CODECOPY DUP2 MLOAD SWAP2 MSTORE SWAP2 ADD PUSH1 0x40 MLOAD DUP1 SWAP2 SUB SWAP1 LOG2 CALLER PUSH0 SWAP1 DUP2 MSTORE PUSH1 0xA PUSH1 0x20 SWAP1 DUP2 MSTORE PUSH1 0x40 DUP3 KECCAK256 PUSH1 0x8 DUP1 SLOAD DUP3 SLOAD PUSH1 0x1 DUP1 DUP3 ADD DUP6 SSTORE DUP5 DUP8 MSTORE SWAP5 DUP7 KECCAK256 SWAP1 DUP2 ADD SWAP2 SWAP1 SWAP2 SSTORE DUP2 SLOAD DUP4 SLOAD SWAP5 DUP6 ADD SWAP1 SWAP4 SSTORE SWAP3 SWAP1 SWAP3 ADD SSTORE DUP1 SLOAD SWAP2 PUSH2 0x93A DUP4 PUSH2 0x15A6 JUMP JUMPDEST SWAP2 SWAP1 POP SSTORE POP POP POP POP POP POP POP JUMP JUMPDEST PUSH0 SWAP2 DUP3 MSTORE PUSH1 0x20 DUP3 DUP2 MSTORE PUSH1 0x40 DUP1 DUP5 KECCAK256 PUSH1 0x1 PUSH1 0x1 PUSH1 0xA0 SHL SUB SWAP4 SWAP1 SWAP4 AND DUP5 MSTORE SWAP2 SWAP1 MSTORE SWAP1 KECCAK256 SLOAD PUSH1 0xFF AND SWAP1 JUMP JUMPDEST PUSH2 0x986 PUSH0 DUP1 MLOAD PUSH1 0x20 PUSH2 0x15BF DUP4 CODECOPY DUP2 MLOAD SWAP2 MSTORE CALLER PUSH2 0x947 JUMP JUMPDEST PUSH2 0x9CD JUMPI PUSH1 0x40 MLOAD PUSH3 0x461BCD PUSH1 0xE5 SHL DUP2 MSTORE PUSH1 0x20 PUSH1 0x4 DUP3 ADD MSTORE PUSH1 0x18 PUSH1 0x24 DUP3 ADD MSTORE PUSH24 0x4D757374206861766520726567756C61746F7220726F6C65 PUSH1 0x40 SHL PUSH1 0x44 DUP3 ADD MSTORE PUSH1 0x64 ADD PUSH2 0x34D JUMP JUMPDEST PUSH9 0x3635C9ADC5DEA00000 DUP3 GT ISZERO PUSH2 0x9F6 JUMPI PUSH1 0x40 MLOAD PUSH3 0x461BCD PUSH1 0xE5 SHL DUP2 MSTORE PUSH1 0x4 ADD PUSH2 0x34D SWAP1 PUSH2 0x13ED JUMP JUMPDEST PUSH2 0xA08 DUP3 PUSH9 0x1B1AE4D6E2EF500000 LT SWAP1 JUMP JUMPDEST PUSH2 0xA24 JUMPI PUSH1 0x40 MLOAD PUSH3 0x461BCD PUSH1 0xE5 SHL DUP2 MSTORE PUSH1 0x4 ADD PUSH2 0x34D SWAP1 PUSH2 0x156F JUMP JUMPDEST PUSH0 PUSH2 0xA2F CALLER TIMESTAMP PUSH2 0xF49 JUMP JUMPDEST SWAP1 POP PUSH0 PUSH2 0xA41 CALLER PUSH2 0x792 TIMESTAMP PUSH1 0x1 PUSH2 0x1435 JUMP JUMPDEST PUSH1 0x40 DUP1 MLOAD PUSH2 0x100 DUP2 ADD DUP3 MSTORE DUP5 DUP2 MSTORE PUSH1 0x20 DUP1 DUP3 ADD DUP5 DUP2 MSTORE DUP3 DUP5 ADD DUP10 DUP2 MSTORE TIMESTAMP PUSH1 0x60 DUP6 ADD SWAP1 DUP2 MSTORE PUSH1 0x1 PUSH1 0x80 DUP7 ADD DUP2 DUP2 MSTORE DUP8 MLOAD DUP1 DUP8 ADD DUP10 MSTORE PUSH0 DUP1 DUP3 MSTORE PUSH1 0xA0 DUP10 ADD SWAP2 DUP3 MSTORE DUP10 MLOAD DUP1 DUP10 ADD DUP12 MSTORE DUP2 DUP2 MSTORE PUSH1 0xC0 DUP11 ADD MSTORE PUSH1 0xE0 DUP10 ADD DUP15 SWAP1 MSTORE PUSH1 0x8 SLOAD DUP2 MSTORE PUSH1 0x9 SWAP1 SWAP8 MSTORE SWAP8 SWAP1 SWAP6 KECCAK256 DUP7 MLOAD DUP2 SSTORE SWAP4 MLOAD SWAP1 DUP5 ADD SSTORE SWAP1 MLOAD PUSH1 0x2 DUP4 ADD SSTORE MLOAD PUSH1 0x3 DUP3 ADD SSTORE SWAP1 MLOAD PUSH1 0x4 DUP3 ADD DUP1 SLOAD PUSH1 0xFF NOT AND SWAP2 ISZERO ISZERO SWAP2 SWAP1 SWAP2 OR SWAP1 SSTORE SWAP2 MLOAD SWAP3 SWAP4 POP SWAP2 PUSH1 0x5 DUP3 ADD SWAP1 PUSH2 0xAE5 SWAP1 DUP3 PUSH2 0x1493 JUMP JUMPDEST POP PUSH1 0xC0 DUP3 ADD MLOAD PUSH1 0x6 DUP3 ADD SWAP1 PUSH2 0xAFA SWAP1 DUP3 PUSH2 0x1493 JUMP JUMPDEST POP PUSH1 0xE0 DUP3 ADD MLOAD PUSH1 0x7 DUP3 ADD SWAP1 PUSH2 0xB0F SWAP1 DUP3 PUSH2 0x1493 JUMP JUMPDEST POP POP PUSH1 0x8 SLOAD PUSH0 DUP2 DUP2 MSTORE PUSH1 0x9 PUSH1 0x20 MSTORE PUSH1 0x40 SWAP1 DUP2 SWAP1 KECCAK256 PUSH1 0x1 DUP1 DUP3 ADD SLOAD DUP3 SLOAD PUSH1 0x2 DUP5 ADD SLOAD PUSH1 0x3 SWAP1 SWAP5 ADD SLOAD SWAP5 MLOAD SWAP2 SWAP7 POP SWAP5 PUSH0 DUP1 MLOAD PUSH1 0x20 PUSH2 0x15DF DUP4 CODECOPY DUP2 MLOAD SWAP2 MSTORE SWAP5 PUSH2 0xB5B SWAP5 SWAP2 SWAP4 SWAP2 SWAP3 SWAP1 SWAP2 SWAP1 PUSH2 0x1552 JUMP JUMPDEST PUSH1 0x40 MLOAD DUP1 SWAP2 SUB SWAP1 LOG3 PUSH1 0x8 SLOAD PUSH1 0x40 DUP1 MLOAD TIMESTAMP DUP2 MSTORE PUSH1 0x20 DUP2 ADD DUP8 SWAP1 MSTORE PUSH0 DUP1 MLOAD PUSH1 0x20 PUSH2 0x15FF DUP4 CODECOPY DUP2 MLOAD SWAP2 MSTORE SWAP2 ADD PUSH1 0x40 MLOAD DUP1 SWAP2 SUB SWAP1 LOG2 CALLER PUSH0 SWAP1 DUP2 MSTORE PUSH1 0xA PUSH1 0x20 SWAP1 DUP2 MSTORE PUSH1 0x40 DUP3 KECCAK256 PUSH1 0x8 DUP1 SLOAD DUP3 SLOAD PUSH1 0x1 DUP1 DUP3 ADD DUP6 SSTORE DUP5 DUP8 MSTORE SWAP5 DUP7 KECCAK256 SWAP1 DUP2 ADD SWAP2 SWAP1 SWAP2 SSTORE DUP2 SLOAD DUP4 SLOAD SWAP5 DUP6 ADD SWAP1 SWAP4 SSTORE SWAP3 SWAP1 SWAP3 ADD SSTORE DUP1 SLOAD SWAP2 PUSH2 0xBD1 DUP4 PUSH2 0x15A6 JUMP JUMPDEST SWAP2 SWAP1 POP SSTORE POP POP POP POP POP JUMP JUMPDEST PUSH1 0x9 PUSH1 0x20 MSTORE PUSH0 SWAP1 DUP2 MSTORE PUSH1 0x40 SWAP1 KECCAK256 DUP1 SLOAD PUSH1 0x1 DUP3 ADD SLOAD PUSH1 0x2 DUP4 ADD SLOAD PUSH1 0x3 DUP5 ADD SLOAD PUSH1 0x4 DUP6 ADD SLOAD PUSH1 0x5 DUP7 ADD DUP1 SLOAD SWAP6 SWAP7 SWAP5 SWAP6 SWAP4 SWAP5 SWAP3 SWAP4 PUSH1 0xFF SWAP1 SWAP3 AND SWAP3 SWAP2 PUSH2 0xC1D SWAP1 PUSH2 0x13B5 JUMP JUMPDEST DUP1 PUSH1 0x1F ADD PUSH1 0x20 DUP1 SWAP2 DIV MUL PUSH1 0x20 ADD PUSH1 0x40 MLOAD SWAP1 DUP2 ADD PUSH1 0x40 MSTORE DUP1 SWAP3 SWAP2 SWAP1 DUP2 DUP2 MSTORE PUSH1 0x20 ADD DUP3 DUP1 SLOAD PUSH2 0xC49 SWAP1 PUSH2 0x13B5 JUMP JUMPDEST DUP1 ISZERO PUSH2 0xC94 JUMPI DUP1 PUSH1 0x1F LT PUSH2 0xC6B JUMPI PUSH2 0x100 DUP1 DUP4 SLOAD DIV MUL DUP4 MSTORE SWAP2 PUSH1 0x20 ADD SWAP2 PUSH2 0xC94 JUMP JUMPDEST DUP3 ADD SWAP2 SWAP1 PUSH0 MSTORE PUSH1 0x20 PUSH0 KECCAK256 SWAP1 JUMPDEST DUP2 SLOAD DUP2 MSTORE SWAP1 PUSH1 0x1 ADD SWAP1 PUSH1 0x20 ADD DUP1 DUP4 GT PUSH2 0xC77 JUMPI DUP3 SWAP1 SUB PUSH1 0x1F AND DUP3 ADD SWAP2 JUMPDEST POP POP POP POP POP SWAP1 DUP1 PUSH1 0x6 ADD DUP1 SLOAD PUSH2 0xCA9 SWAP1 PUSH2 0x13B5 JUMP JUMPDEST DUP1 PUSH1 0x1F ADD PUSH1 0x20 DUP1 SWAP2 DIV MUL PUSH1 0x20 ADD PUSH1 0x40 MLOAD SWAP1 DUP2 ADD PUSH1 0x40 MSTORE DUP1 SWAP3 SWAP2 SWAP1 DUP2 DUP2 MSTORE PUSH1 0x20 ADD DUP3 DUP1 SLOAD PUSH2 0xCD5 SWAP1 PUSH2 0x13B5 JUMP JUMPDEST DUP1 ISZERO PUSH2 0xD20 JUMPI DUP1 PUSH1 0x1F LT PUSH2 0xCF7 JUMPI PUSH2 0x100 DUP1 DUP4 SLOAD DIV MUL DUP4 MSTORE SWAP2 PUSH1 0x20 ADD SWAP2 PUSH2 0xD20 JUMP JUMPDEST DUP3 ADD SWAP2 SWAP1 PUSH0 MSTORE PUSH1 0x20 PUSH0 KECCAK256 SWAP1 JUMPDEST DUP2 SLOAD DUP2 MSTORE SWAP1 PUSH1 0x1 ADD SWAP1 PUSH1 0x20 ADD DUP1 DUP4 GT PUSH2 0xD03 JUMPI DUP3 SWAP1 SUB PUSH1 0x1F AND DUP3 ADD SWAP2 JUMPDEST POP POP POP POP POP SWAP1 DUP1 PUSH1 0x7 ADD DUP1 SLOAD PUSH2 0xD35 SWAP1 PUSH2 0x13B5 JUMP JUMPDEST DUP1 PUSH1 0x1F ADD PUSH1 0x20 DUP1 SWAP2 DIV MUL PUSH1 0x20 ADD PUSH1 0x40 MLOAD SWAP1 DUP2 ADD PUSH1 0x40 MSTORE DUP1 SWAP3 SWAP2 SWAP1 DUP2 DUP2 MSTORE PUSH1 0x20 ADD DUP3 DUP1 SLOAD PUSH2 0xD61 SWAP1 PUSH2 0x13B5 JUMP JUMPDEST DUP1 ISZERO PUSH2 0xDAC JUMPI DUP1 PUSH1 0x1F LT PUSH2 0xD83 JUMPI PUSH2 0x100 DUP1 DUP4 SLOAD DIV MUL DUP4 MSTORE SWAP2 PUSH1 0x20 ADD SWAP2 PUSH2 0xDAC JUMP JUMPDEST DUP3 ADD SWAP2 SWAP1 PUSH0 MSTORE PUSH1 0x20 PUSH0 KECCAK256 SWAP1 JUMPDEST DUP2 SLOAD DUP2 MSTORE SWAP1 PUSH1 0x1 ADD SWAP1 PUSH1 0x20 ADD DUP1 DUP4 GT PUSH2 0xD8F JUMPI DUP3 SWAP1 SUB PUSH1 0x1F AND DUP3 ADD SWAP2 JUMPDEST POP POP POP POP POP SWAP1 POP DUP9 JUMP JUMPDEST PUSH2 0xDCD PUSH0 DUP1 MLOAD PUSH1 0x20 PUSH2 0x161F DUP4 CODECOPY DUP2 MLOAD SWAP2 MSTORE CALLER PUSH2 0x947 JUMP JUMPDEST PUSH2 0xDE9 JUMPI PUSH1 0x40 MLOAD PUSH3 0x461BCD PUSH1 0xE5 SHL DUP2 MSTORE PUSH1 0x4 ADD PUSH2 0x34D SWAP1 PUSH2 0x1387 JUMP JUMPDEST PUSH2 0x729 PUSH0 DUP1 MLOAD PUSH1 0x20 PUSH2 0x15BF DUP4 CODECOPY DUP2 MLOAD SWAP2 MSTORE DUP3 PUSH2 0xE51 JUMP JUMPDEST PUSH1 0xA PUSH1 0x20 MSTORE DUP2 PUSH0 MSTORE PUSH1 0x40 PUSH0 KECCAK256 DUP2 DUP2 SLOAD DUP2 LT PUSH2 0xE19 JUMPI PUSH0 DUP1 REVERT JUMPDEST SWAP1 PUSH0 MSTORE PUSH1 0x20 PUSH0 KECCAK256 ADD PUSH0 SWAP2 POP SWAP2 POP POP SLOAD DUP2 JUMP JUMPDEST PUSH2 0xE34 DUP3 PUSH2 0x370 JUMP JUMPDEST PUSH2 0xE3D DUP2 PUSH2 0xE47 JUMP JUMPDEST PUSH2 0x3A0 DUP4 DUP4 PUSH2 0xEE0 JUMP JUMPDEST PUSH2 0x36D DUP2 CALLER PUSH2 0xF8A JUMP JUMPDEST PUSH0 PUSH2 0xE5C DUP4 DUP4 PUSH2 0x947 JUMP JUMPDEST PUSH2 0xED9 JUMPI PUSH0 DUP4 DUP2 MSTORE PUSH1 0x20 DUP2 DUP2 MSTORE PUSH1 0x40 DUP1 DUP4 KECCAK256 PUSH1 0x1 PUSH1 0x1 PUSH1 0xA0 SHL SUB DUP7 AND DUP5 MSTORE SWAP1 SWAP2 MSTORE SWAP1 KECCAK256 DUP1 SLOAD PUSH1 0xFF NOT AND PUSH1 0x1 OR SWAP1 SSTORE PUSH2 0xE91 CALLER SWAP1 JUMP JUMPDEST PUSH1 0x1 PUSH1 0x1 PUSH1 0xA0 SHL SUB AND DUP3 PUSH1 0x1 PUSH1 0x1 PUSH1 0xA0 SHL SUB AND DUP5 PUSH32 0x2F8788117E7EFF1D82E926EC794901D17C78024A50270940304540A733656F0D PUSH1 0x40 MLOAD PUSH1 0x40 MLOAD DUP1 SWAP2 SUB SWAP1 LOG4 POP PUSH1 0x1 PUSH2 0x314 JUMP JUMPDEST POP PUSH0 PUSH2 0x314 JUMP JUMPDEST PUSH0 PUSH2 0xEEB DUP4 DUP4 PUSH2 0x947 JUMP JUMPDEST ISZERO PUSH2 0xED9 JUMPI PUSH0 DUP4 DUP2 MSTORE PUSH1 0x20 DUP2 DUP2 MSTORE PUSH1 0x40 DUP1 DUP4 KECCAK256 PUSH1 0x1 PUSH1 0x1 PUSH1 0xA0 SHL SUB DUP7 AND DUP1 DUP6 MSTORE SWAP3 MSTORE DUP1 DUP4 KECCAK256 DUP1 SLOAD PUSH1 0xFF NOT AND SWAP1 SSTORE MLOAD CALLER SWAP3 DUP7 SWAP2 PUSH32 0xF6391F5C32D9C69D2A47EA670B442974B53935D1EDC7FD64EB21E047A839171B SWAP2 SWAP1 LOG4 POP PUSH1 0x1 PUSH2 0x314 JUMP JUMPDEST PUSH1 0x40 MLOAD PUSH1 0x1 PUSH1 0x1 PUSH1 0x60 SHL SUB NOT PUSH1 0x60 DUP5 SWAP1 SHL AND PUSH1 0x20 DUP3 ADD MSTORE PUSH1 0x34 DUP2 ADD DUP3 SWAP1 MSTORE PUSH0 SWAP1 PUSH1 0x54 ADD PUSH1 0x40 MLOAD PUSH1 0x20 DUP2 DUP4 SUB SUB DUP2 MSTORE SWAP1 PUSH1 0x40 MSTORE DUP1 MLOAD SWAP1 PUSH1 0x20 ADD KECCAK256 SWAP1 POP SWAP3 SWAP2 POP POP JUMP JUMPDEST PUSH2 0xF94 DUP3 DUP3 PUSH2 0x947 JUMP JUMPDEST PUSH2 0x729 JUMPI PUSH1 0x40 MLOAD PUSH4 0xE2517D3F PUSH1 0xE0 SHL DUP2 MSTORE PUSH1 0x1 PUSH1 0x1 PUSH1 0xA0 SHL SUB DUP3 AND PUSH1 0x4 DUP3 ADD MSTORE PUSH1 0x24 DUP2 ADD DUP4 SWAP1 MSTORE PUSH1 0x44 ADD PUSH2 0x34D JUMP JUMPDEST PUSH0 PUSH1 0x20 DUP3 DUP5 SUB SLT ISZERO PUSH2 0xFD3 JUMPI PUSH0 DUP1 REVERT JUMPDEST DUP2 CALLDATALOAD PUSH1 0x1 PUSH1 0x1 PUSH1 0xE0 SHL SUB NOT DUP2 AND DUP2 EQ PUSH2 0xFEA JUMPI PUSH0 DUP1 REVERT JUMPDEST SWAP4 SWAP3 POP POP POP JUMP JUMPDEST DUP1 CALLDATALOAD PUSH1 0x1 PUSH1 0x1 PUSH1 0xA0 SHL SUB DUP2 AND DUP2 EQ PUSH2 0x1007 JUMPI PUSH0 DUP1 REVERT JUMPDEST SWAP2 SWAP1 POP JUMP JUMPDEST PUSH0 PUSH1 0x20 DUP3 DUP5 SUB SLT ISZERO PUSH2 0x101C JUMPI PUSH0 DUP1 REVERT JUMPDEST PUSH2 0xFEA DUP3 PUSH2 0xFF1 JUMP JUMPDEST PUSH0 PUSH1 0x20 DUP3 DUP5 SUB SLT ISZERO PUSH2 0x1035 JUMPI PUSH0 DUP1 REVERT JUMPDEST POP CALLDATALOAD SWAP2 SWAP1 POP JUMP JUMPDEST PUSH0 DUP1 PUSH1 0x40 DUP4 DUP6 SUB SLT ISZERO PUSH2 0x104D JUMPI PUSH0 DUP1 REVERT JUMPDEST DUP3 CALLDATALOAD SWAP2 POP PUSH2 0x105D PUSH1 0x20 DUP5 ADD PUSH2 0xFF1 JUMP JUMPDEST SWAP1 POP SWAP3 POP SWAP3 SWAP1 POP JUMP JUMPDEST PUSH0 DUP2 MLOAD DUP1 DUP5 MSTORE PUSH0 JUMPDEST DUP2 DUP2 LT ISZERO PUSH2 0x108A JUMPI PUSH1 0x20 DUP2 DUP6 ADD DUP2 ADD MLOAD DUP7 DUP4 ADD DUP3 ADD MSTORE ADD PUSH2 0x106E JUMP JUMPDEST POP PUSH0 PUSH1 0x20 DUP3 DUP7 ADD ADD MSTORE PUSH1 0x20 PUSH1 0x1F NOT PUSH1 0x1F DUP4 ADD AND DUP6 ADD ADD SWAP2 POP POP SWAP3 SWAP2 POP POP JUMP JUMPDEST PUSH1 0x20 DUP2 MSTORE DUP2 MLOAD PUSH1 0x20 DUP3 ADD MSTORE PUSH1 0x20 DUP3 ADD MLOAD PUSH1 0x40 DUP3 ADD MSTORE PUSH1 0x40 DUP3 ADD MLOAD PUSH1 0x60 DUP3 ADD MSTORE PUSH1 0x60 DUP3 ADD MLOAD PUSH1 0x80 DUP3 ADD MSTORE PUSH0 PUSH1 0x80 DUP4 ADD MLOAD PUSH2 0x10E6 PUSH1 0xA0 DUP5 ADD DUP3 ISZERO ISZERO SWAP1 MSTORE JUMP JUMPDEST POP PUSH1 0xA0 DUP4 ADD MLOAD PUSH2 0x100 DUP1 PUSH1 0xC0 DUP6 ADD MSTORE PUSH2 0x1103 PUSH2 0x120 DUP6 ADD DUP4 PUSH2 0x1066 JUMP JUMPDEST SWAP2 POP PUSH1 0xC0 DUP6 ADD MLOAD PUSH1 0x1F NOT DUP1 DUP7 DUP6 SUB ADD PUSH1 0xE0 DUP8 ADD MSTORE PUSH2 0x1121 DUP5 DUP4 PUSH2 0x1066 JUMP JUMPDEST SWAP4 POP PUSH1 0xE0 DUP8 ADD MLOAD SWAP2 POP DUP1 DUP7 DUP6 SUB ADD DUP4 DUP8 ADD MSTORE POP PUSH2 0x113E DUP4 DUP3 PUSH2 0x1066 JUMP JUMPDEST SWAP7 SWAP6 POP POP POP POP POP POP JUMP JUMPDEST PUSH1 0x20 DUP1 DUP3 MSTORE DUP3 MLOAD DUP3 DUP3 ADD DUP2 SWAP1 MSTORE PUSH0 SWAP2 SWAP1 DUP5 DUP3 ADD SWAP1 PUSH1 0x40 DUP6 ADD SWAP1 DUP5 JUMPDEST DUP2 DUP2 LT ISZERO PUSH2 0x117F JUMPI DUP4 MLOAD DUP4 MSTORE SWAP3 DUP5 ADD SWAP3 SWAP2 DUP5 ADD SWAP2 PUSH1 0x1 ADD PUSH2 0x1163 JUMP JUMPDEST POP SWAP1 SWAP7 SWAP6 POP POP POP POP POP POP JUMP JUMPDEST PUSH4 0x4E487B71 PUSH1 0xE0 SHL PUSH0 MSTORE PUSH1 0x41 PUSH1 0x4 MSTORE PUSH1 0x24 PUSH0 REVERT JUMPDEST PUSH0 DUP3 PUSH1 0x1F DUP4 ADD SLT PUSH2 0x11AE JUMPI PUSH0 DUP1 REVERT JUMPDEST DUP2 CALLDATALOAD PUSH1 0x1 PUSH1 0x1 PUSH1 0x40 SHL SUB DUP1 DUP3 GT ISZERO PUSH2 0x11C8 JUMPI PUSH2 0x11C8 PUSH2 0x118B JUMP JUMPDEST PUSH1 0x40 MLOAD PUSH1 0x1F DUP4 ADD PUSH1 0x1F NOT SWAP1 DUP2 AND PUSH1 0x3F ADD AND DUP2 ADD SWAP1 DUP3 DUP3 GT DUP2 DUP4 LT OR ISZERO PUSH2 0x11F0 JUMPI PUSH2 0x11F0 PUSH2 0x118B JUMP JUMPDEST DUP2 PUSH1 0x40 MSTORE DUP4 DUP2 MSTORE DUP7 PUSH1 0x20 DUP6 DUP9 ADD ADD GT ISZERO PUSH2 0x1208 JUMPI PUSH0 DUP1 REVERT JUMPDEST DUP4 PUSH1 0x20 DUP8 ADD PUSH1 0x20 DUP4 ADD CALLDATACOPY PUSH0 PUSH1 0x20 DUP6 DUP4 ADD ADD MSTORE DUP1 SWAP5 POP POP POP POP POP SWAP3 SWAP2 POP POP JUMP JUMPDEST PUSH0 DUP1 PUSH0 DUP1 PUSH1 0x80 DUP6 DUP8 SUB SLT ISZERO PUSH2 0x123A JUMPI PUSH0 DUP1 REVERT JUMPDEST DUP5 CALLDATALOAD SWAP4 POP PUSH1 0x20 DUP6 ADD CALLDATALOAD PUSH1 0x1 PUSH1 0x1 PUSH1 0x40 SHL SUB DUP1 DUP3 GT ISZERO PUSH2 0x1257 JUMPI PUSH0 DUP1 REVERT JUMPDEST PUSH2 0x1263 DUP9 DUP4 DUP10 ADD PUSH2 0x119F JUMP JUMPDEST SWAP5 POP PUSH1 0x40 DUP8 ADD CALLDATALOAD SWAP2 POP DUP1 DUP3 GT ISZERO PUSH2 0x1278 JUMPI PUSH0 DUP1 REVERT JUMPDEST PUSH2 0x1284 DUP9 DUP4 DUP10 ADD PUSH2 0x119F JUMP JUMPDEST SWAP4 POP PUSH1 0x60 DUP8 ADD CALLDATALOAD SWAP2 POP DUP1 DUP3 GT ISZERO PUSH2 0x1299 JUMPI PUSH0 DUP1 REVERT JUMPDEST POP PUSH2 0x12A6 DUP8 DUP3 DUP9 ADD PUSH2 0x119F JUMP JUMPDEST SWAP2 POP POP SWAP3 SWAP6 SWAP2 SWAP5 POP SWAP3 POP JUMP JUMPDEST PUSH0 DUP1 PUSH1 0x40 DUP4 DUP6 SUB SLT ISZERO PUSH2 0x12C3 JUMPI PUSH0 DUP1 REVERT JUMPDEST DUP3 CALLDATALOAD SWAP2 POP PUSH1 0x20 DUP4 ADD CALLDATALOAD PUSH1 0x1 PUSH1 0x1 PUSH1 0x40 SHL SUB DUP2 GT ISZERO PUSH2 0x12DF JUMPI PUSH0 DUP1 REVERT JUMPDEST PUSH2 0x12EB DUP6 DUP3 DUP7 ADD PUSH2 0x119F JUMP JUMPDEST SWAP2 POP POP SWAP3 POP SWAP3 SWAP1 POP JUMP JUMPDEST PUSH0 PUSH2 0x100 DUP11 DUP4 MSTORE DUP10 PUSH1 0x20 DUP5 ADD MSTORE DUP9 PUSH1 0x40 DUP5 ADD MSTORE DUP8 PUSH1 0x60 DUP5 ADD MSTORE DUP7 ISZERO ISZERO PUSH1 0x80 DUP5 ADD MSTORE DUP1 PUSH1 0xA0 DUP5 ADD MSTORE PUSH2 0x1328 DUP2 DUP5 ADD DUP8 PUSH2 0x1066 JUMP JUMPDEST SWAP1 POP DUP3 DUP2 SUB PUSH1 0xC0 DUP5 ADD MSTORE PUSH2 0x133C DUP2 DUP7 PUSH2 0x1066 JUMP JUMPDEST SWAP1 POP DUP3 DUP2 SUB PUSH1 0xE0 DUP5 ADD MSTORE PUSH2 0x1350 DUP2 DUP6 PUSH2 0x1066 JUMP JUMPDEST SWAP12 SWAP11 POP POP POP POP POP POP POP POP POP POP POP JUMP JUMPDEST PUSH0 DUP1 PUSH1 0x40 DUP4 DUP6 SUB SLT ISZERO PUSH2 0x1370 JUMPI PUSH0 DUP1 REVERT JUMPDEST PUSH2 0x1379 DUP4 PUSH2 0xFF1 JUMP JUMPDEST SWAP5 PUSH1 0x20 SWAP4 SWAP1 SWAP4 ADD CALLDATALOAD SWAP4 POP POP POP JUMP JUMPDEST PUSH1 0x20 DUP1 DUP3 MSTORE PUSH1 0x14 SWAP1 DUP3 ADD MSTORE PUSH20 0x4D75737420686176652061646D696E20726F6C65 PUSH1 0x60 SHL PUSH1 0x40 DUP3 ADD MSTORE PUSH1 0x60 ADD SWAP1 JUMP JUMPDEST PUSH1 0x1 DUP2 DUP2 SHR SWAP1 DUP3 AND DUP1 PUSH2 0x13C9 JUMPI PUSH1 0x7F DUP3 AND SWAP2 POP JUMPDEST PUSH1 0x20 DUP3 LT DUP2 SUB PUSH2 0x13E7 JUMPI PUSH4 0x4E487B71 PUSH1 0xE0 SHL PUSH0 MSTORE PUSH1 0x22 PUSH1 0x4 MSTORE PUSH1 0x24 PUSH0 REVERT JUMPDEST POP SWAP2 SWAP1 POP JUMP JUMPDEST PUSH1 0x20 DUP1 DUP3 MSTORE PUSH1 0x1A SWAP1 DUP3 ADD MSTORE PUSH26 0x125B9D985B1A59081D1C985B9CD858DD1A5BDB88185B5BDD5B9D PUSH1 0x32 SHL PUSH1 0x40 DUP3 ADD MSTORE PUSH1 0x60 ADD SWAP1 JUMP JUMPDEST PUSH4 0x4E487B71 PUSH1 0xE0 SHL PUSH0 MSTORE PUSH1 0x11 PUSH1 0x4 MSTORE PUSH1 0x24 PUSH0 REVERT JUMPDEST DUP1 DUP3 ADD DUP1 DUP3 GT ISZERO PUSH2 0x314 JUMPI PUSH2 0x314 PUSH2 0x1421 JUMP JUMPDEST PUSH1 0x1F DUP3 GT ISZERO PUSH2 0x632 JUMPI DUP1 PUSH0 MSTORE PUSH1 0x20 PUSH0 KECCAK256 PUSH1 0x1F DUP5 ADD PUSH1 0x5 SHR DUP2 ADD PUSH1 0x20 DUP6 LT ISZERO PUSH2 0x146D JUMPI POP DUP1 JUMPDEST PUSH1 0x1F DUP5 ADD PUSH1 0x5 SHR DUP3 ADD SWAP2 POP JUMPDEST DUP2 DUP2 LT ISZERO PUSH2 0x148C JUMPI PUSH0 DUP2 SSTORE PUSH1 0x1 ADD PUSH2 0x1479 JUMP JUMPDEST POP POP POP POP POP JUMP JUMPDEST DUP2 MLOAD PUSH1 0x1 PUSH1 0x1 PUSH1 0x40 SHL SUB DUP2 GT ISZERO PUSH2 0x14AC JUMPI PUSH2 0x14AC PUSH2 0x118B JUMP JUMPDEST PUSH2 0x14C0 DUP2 PUSH2 0x14BA DUP5 SLOAD PUSH2 0x13B5 JUMP JUMPDEST DUP5 PUSH2 0x1448 JUMP JUMPDEST PUSH1 0x20 DUP1 PUSH1 0x1F DUP4 GT PUSH1 0x1 DUP2 EQ PUSH2 0x14F3 JUMPI PUSH0 DUP5 ISZERO PUSH2 0x14DC JUMPI POP DUP6 DUP4 ADD MLOAD JUMPDEST PUSH0 NOT PUSH1 0x3 DUP7 SWAP1 SHL SHR NOT AND PUSH1 0x1 DUP6 SWAP1 SHL OR DUP6 SSTORE PUSH2 0x154A JUMP JUMPDEST PUSH0 DUP6 DUP2 MSTORE PUSH1 0x20 DUP2 KECCAK256 PUSH1 0x1F NOT DUP7 AND SWAP2 JUMPDEST DUP3 DUP2 LT ISZERO PUSH2 0x1521 JUMPI DUP9 DUP7 ADD MLOAD DUP3 SSTORE SWAP5 DUP5 ADD SWAP5 PUSH1 0x1 SWAP1 SWAP2 ADD SWAP1 DUP5 ADD PUSH2 0x1502 JUMP JUMPDEST POP DUP6 DUP3 LT ISZERO PUSH2 0x153E JUMPI DUP8 DUP6 ADD MLOAD PUSH0 NOT PUSH1 0x3 DUP9 SWAP1 SHL PUSH1 0xF8 AND SHR NOT AND DUP2 SSTORE JUMPDEST POP POP PUSH1 0x1 DUP5 PUSH1 0x1 SHL ADD DUP6 SSTORE JUMPDEST POP POP POP POP POP POP JUMP JUMPDEST SWAP4 DUP5 MSTORE PUSH1 0x20 DUP5 ADD SWAP3 SWAP1 SWAP3 MSTORE PUSH1 0x40 DUP4 ADD MSTORE ISZERO ISZERO PUSH1 0x60 DUP3 ADD MSTORE PUSH1 0x80 ADD SWAP1 JUMP JUMPDEST PUSH1 0x20 DUP1 DUP3 MSTORE PUSH1 0x1F SWAP1 DUP3 ADD MSTORE PUSH32 0x5472616E73616374696F6E20766572696669636174696F6E206661696C656400 PUSH1 0x40 DUP3 ADD MSTORE PUSH1 0x60 ADD SWAP1 JUMP JUMPDEST PUSH0 PUSH1 0x1 DUP3 ADD PUSH2 0x15B7 JUMPI PUSH2 0x15B7 PUSH2 0x1421 JUMP JUMPDEST POP PUSH1 0x1 ADD SWAP1 JUMP INVALID KECCAK256 0xB5 0xF7 0xAC SWAP8 DUP15 0x5D PUSH2 0x99DE MOD BLOCKHASH EQ GT SWAP7 0xD STATICCALL DUP2 0xD2 0xF7 PUSH3 0x655F62 MOD 0xBD 0xC6 SAR CHAINID 0xFC NOT 0xE6 RETURN CALLDATASIZE 0xE0 0xD2 SWAP6 LOG4 0xB3 0xC9 0x27 0xE3 INVALID SWAP2 0x4B SELFDESTRUCT RETURNDATASIZE 0xE3 0x5D 0xB1 NOT 0x27 0xB3 RETURNDATACOPY 0xEB SELFDESTRUCT CODESIZE 0xA9 0xEE ORIGIN STOP 0xB7 PUSH4 0x31784101 0x21 PUSH2 0xF9C9 CALLDATASIZE 0xB4 SWAP12 0xB4 GT ORIGIN NOT EXTCODEHASH MUL 0x49 0xC8 RETURNDATASIZE 0x28 SGT PUSH26 0xBBECDFAA829BE0D3DF89A49807205CE4D355092EF5A8A18F56E8 SWAP2 EXTCODECOPY DELEGATECALL LOG2 ADD 0xFB 0xE2 DUP8 DUP3 JUMPDEST MULMOD JUMP SWAP4 0xC2 OR PUSH22 0xA26469706673582212204CE084763C59C6536B758B57 0xD7 0xED GT SHL 0xE 0xB0 0xEE DUP12 SWAP11 PUSH3 0xA68D7A 0xBA 0xAE MULMOD CALLDATACOPY 0xCC SWAP8 PUSH5 0x64736F6C63 NUMBER STOP ADDMOD AND STOP CALLER "
		},
		"gasEstimates": {
			"creation": {
				"codeDepositCost": "1149600",
				"executionCost": "infinite",
				"totalCost": "infinite"
			},
			"external": {
				"ADMIN_ROLE()": "infinite",
				"DEFAULT_ADMIN_ROLE()": "523",
				"REGULATOR_ROLE()": "infinite",
				"addAdmin(address)": "infinite",
				"addRegulator(address)": "infinite",
				"createTransaction(uint256,string,string,string)": "infinite",
				"getRoleAdmin(bytes32)": "2500",
				"getTransaction(uint256)": "infinite",
				"getUserTransactions()": "infinite",
				"grantRole(bytes32,address)": "infinite",
				"hasRole(bytes32,address)": "2912",
				"owner()": "2578",
				"removeAdmin(address)": "infinite",
				"removeRegulator(address)": "infinite",
				"renounceRole(bytes32,address)": "29128",
				"requestTransactionVerification(uint256,string)": "infinite",
				"revokeRole(bytes32,address)": "infinite",
				"supportsInterface(bytes4)": "401",
				"transactionCount()": "2668",
				"transactions(uint256)": "infinite",
				"userTransactions(address,uint256)": "5133"
			}
		},
		"methodIdentifiers": {
			"ADMIN_ROLE()": "75b238fc",
			"DEFAULT_ADMIN_ROLE()": "a217fddf",
			"REGULATOR_ROLE()": "144bf589",
			"addAdmin(address)": "70480275",
			"addRegulator(address)": "ac63f3c7",
			"createTransaction(uint256,string,string,string)": "8cb59708",
			"getRoleAdmin(bytes32)": "248a9ca3",
			"getTransaction(uint256)": "33ea3dc8",
			"getUserTransactions()": "6fe691dc",
			"grantRole(bytes32,address)": "2f2ff15d",
			"hasRole(bytes32,address)": "91d14854",
			"owner()": "8da5cb5b",
			"removeAdmin(address)": "1785f53c",
			"removeRegulator(address)": "379f5fed",
			"renounceRole(bytes32,address)": "36568abe",
			"requestTransactionVerification(uint256,string)": "93e080e0",
			"revokeRole(bytes32,address)": "d547741f",
			"supportsInterface(bytes4)": "01ffc9a7",
			"transactionCount()": "b77bf600",
			"transactions(uint256)": "9ace38c2",
			"userTransactions(address,uint256)": "b842ec44"
		}
	},
	"abi": [
		{
			"inputs": [],
			"stateMutability": "nonpayable",
			"type": "constructor"
		},
		{
			"inputs": [],
			"name": "AccessControlBadConfirmation",
			"type": "error"
		},
		{
			"inputs": [
				{
					"internalType": "address",
					"name": "account",
					"type": "address"
				},
				{
					"internalType": "bytes32",
					"name": "neededRole",
					"type": "bytes32"
				}
			],
			"name": "AccessControlUnauthorizedAccount",
			"type": "error"
		},
		{
			"anonymous": false,
			"inputs": [
				{
					"indexed": true,
					"internalType": "bytes32",
					"name": "id",
					"type": "bytes32"
				}
			],
			"name": "ChainlinkCancelled",
			"type": "event"
		},
		{
			"anonymous": false,
			"inputs": [
				{
					"indexed": true,
					"internalType": "bytes32",
					"name": "id",
					"type": "bytes32"
				}
			],
			"name": "ChainlinkFulfilled",
			"type": "event"
		},
		{
			"anonymous": false,
			"inputs": [
				{
					"indexed": true,
					"internalType": "bytes32",
					"name": "id",
					"type": "bytes32"
				}
			],
			"name": "ChainlinkRequested",
			"type": "event"
		},
		{
			"anonymous": false,
			"inputs": [
				{
					"indexed": false,
					"internalType": "uint256",
					"name": "transactionId",
					"type": "uint256"
				},
				{
					"indexed": true,
					"internalType": "bytes32",
					"name": "buyer",
					"type": "bytes32"
				},
				{
					"indexed": true,
					"internalType": "bytes32",
					"name": "seller",
					"type": "bytes32"
				},
				{
					"indexed": false,
					"internalType": "uint256",
					"name": "amount",
					"type": "uint256"
				},
				{
					"indexed": false,
					"internalType": "uint256",
					"name": "timestamp",
					"type": "uint256"
				},
				{
					"indexed": false,
					"internalType": "bool",
					"name": "verified",
					"type": "bool"
				}
			],
			"name": "NewTransaction",
			"type": "event"
		},
		{
			"anonymous": false,
			"inputs": [
				{
					"indexed": true,
					"internalType": "bytes32",
					"name": "role",
					"type": "bytes32"
				},
				{
					"indexed": true,
					"internalType": "bytes32",
					"name": "previousAdminRole",
					"type": "bytes32"
				},
				{
					"indexed": true,
					"internalType": "bytes32",
					"name": "newAdminRole",
					"type": "bytes32"
				}
			],
			"name": "RoleAdminChanged",
			"type": "event"
		},
		{
			"anonymous": false,
			"inputs": [
				{
					"indexed": true,
					"internalType": "bytes32",
					"name": "role",
					"type": "bytes32"
				},
				{
					"indexed": true,
					"internalType": "address",
					"name": "account",
					"type": "address"
				},
				{
					"indexed": true,
					"internalType": "address",
					"name": "sender",
					"type": "address"
				}
			],
			"name": "RoleGranted",
			"type": "event"
		},
		{
			"anonymous": false,
			"inputs": [
				{
					"indexed": true,
					"internalType": "bytes32",
					"name": "role",
					"type": "bytes32"
				},
				{
					"indexed": true,
					"internalType": "address",
					"name": "account",
					"type": "address"
				},
				{
					"indexed": true,
					"internalType": "address",
					"name": "sender",
					"type": "address"
				}
			],
			"name": "RoleRevoked",
			"type": "event"
		},
		{
			"anonymous": false,
			"inputs": [
				{
					"indexed": true,
					"internalType": "uint256",
					"name": "transactionId",
					"type": "uint256"
				},
				{
					"indexed": false,
					"internalType": "uint256",
					"name": "timestamp",
					"type": "uint256"
				},
				{
					"indexed": false,
					"internalType": "uint256",
					"name": "amount",
					"type": "uint256"
				}
			],
			"name": "TransactionReportedToCentralBank",
			"type": "event"
		},
		{
			"inputs": [],
			"name": "ADMIN_ROLE",
			"outputs": [
				{
					"internalType": "bytes32",
					"name": "",
					"type": "bytes32"
				}
			],
			"stateMutability": "view",
			"type": "function"
		},
		{
			"inputs": [],
			"name": "DEFAULT_ADMIN_ROLE",
			"outputs": [
				{
					"internalType": "bytes32",
					"name": "",
					"type": "bytes32"
				}
			],
			"stateMutability": "view",
			"type": "function"
		},
		{
			"inputs": [],
			"name": "REGULATOR_ROLE",
			"outputs": [
				{
					"internalType": "bytes32",
					"name": "",
					"type": "bytes32"
				}
			],
			"stateMutability": "view",
			"type": "function"
		},
		{
			"inputs": [
				{
					"internalType": "address",
					"name": "_admin",
					"type": "address"
				}
			],
			"name": "addAdmin",
			"outputs": [],
			"stateMutability": "nonpayable",
			"type": "function"
		},
		{
			"inputs": [
				{
					"internalType": "address",
					"name": "_regulator",
					"type": "address"
				}
			],
			"name": "addRegulator",
			"outputs": [],
			"stateMutability": "nonpayable",
			"type": "function"
		},
		{
			"inputs": [
				{
					"internalType": "uint256",
					"name": "_amount",
					"type": "uint256"
				},
				{
					"internalType": "string",
					"name": "_buyerInformation",
					"type": "string"
				},
				{
					"internalType": "string",
					"name": "_sellerInformation",
					"type": "string"
				},
				{
					"internalType": "string",
					"name": "_description",
					"type": "string"
				}
			],
			"name": "createTransaction",
			"outputs": [],
			"stateMutability": "nonpayable",
			"type": "function"
		},
		{
			"inputs": [
				{
					"internalType": "bytes32",
					"name": "role",
					"type": "bytes32"
				}
			],
			"name": "getRoleAdmin",
			"outputs": [
				{
					"internalType": "bytes32",
					"name": "",
					"type": "bytes32"
				}
			],
			"stateMutability": "view",
			"type": "function"
		},
		{
			"inputs": [
				{
					"internalType": "uint256",
					"name": "_transactionId",
					"type": "uint256"
				}
			],
			"name": "getTransaction",
			"outputs": [
				{
					"components": [
						{
							"internalType": "bytes32",
							"name": "buyer",
							"type": "bytes32"
						},
						{
							"internalType": "bytes32",
							"name": "seller",
							"type": "bytes32"
						},
						{
							"internalType": "uint256",
							"name": "amount",
							"type": "uint256"
						},
						{
							"internalType": "uint256",
							"name": "timestamp",
							"type": "uint256"
						},
						{
							"internalType": "bool",
							"name": "verified",
							"type": "bool"
						},
						{
							"internalType": "string",
							"name": "buyerInformation",
							"type": "string"
						},
						{
							"internalType": "string",
							"name": "sellerInformation",
							"type": "string"
						},
						{
							"internalType": "string",
							"name": "description",
							"type": "string"
						}
					],
					"internalType": "struct TesouroDiretoMarket.Transaction",
					"name": "",
					"type": "tuple"
				}
			],
			"stateMutability": "view",
			"type": "function"
		},
		{
			"inputs": [],
			"name": "getUserTransactions",
			"outputs": [
				{
					"internalType": "uint256[]",
					"name": "",
					"type": "uint256[]"
				}
			],
			"stateMutability": "view",
			"type": "function"
		},
		{
			"inputs": [
				{
					"internalType": "bytes32",
					"name": "role",
					"type": "bytes32"
				},
				{
					"internalType": "address",
					"name": "account",
					"type": "address"
				}
			],
			"name": "grantRole",
			"outputs": [],
			"stateMutability": "nonpayable",
			"type": "function"
		},
		{
			"inputs": [
				{
					"internalType": "bytes32",
					"name": "role",
					"type": "bytes32"
				},
				{
					"internalType": "address",
					"name": "account",
					"type": "address"
				}
			],
			"name": "hasRole",
			"outputs": [
				{
					"internalType": "bool",
					"name": "",
					"type": "bool"
				}
			],
			"stateMutability": "view",
			"type": "function"
		},
		{
			"inputs": [],
			"name": "owner",
			"outputs": [
				{
					"internalType": "address",
					"name": "",
					"type": "address"
				}
			],
			"stateMutability": "view",
			"type": "function"
		},
		{
			"inputs": [
				{
					"internalType": "address",
					"name": "_admin",
					"type": "address"
				}
			],
			"name": "removeAdmin",
			"outputs": [],
			"stateMutability": "nonpayable",
			"type": "function"
		},
		{
			"inputs": [
				{
					"internalType": "address",
					"name": "_regulator",
					"type": "address"
				}
			],
			"name": "removeRegulator",
			"outputs": [],
			"stateMutability": "nonpayable",
			"type": "function"
		},
		{
			"inputs": [
				{
					"internalType": "bytes32",
					"name": "role",
					"type": "bytes32"
				},
				{
					"internalType": "address",
					"name": "callerConfirmation",
					"type": "address"
				}
			],
			"name": "renounceRole",
			"outputs": [],
			"stateMutability": "nonpayable",
			"type": "function"
		},
		{
			"inputs": [
				{
					"internalType": "uint256",
					"name": "_amount",
					"type": "uint256"
				},
				{
					"internalType": "string",
					"name": "_description",
					"type": "string"
				}
			],
			"name": "requestTransactionVerification",
			"outputs": [],
			"stateMutability": "nonpayable",
			"type": "function"
		},
		{
			"inputs": [
				{
					"internalType": "bytes32",
					"name": "role",
					"type": "bytes32"
				},
				{
					"internalType": "address",
					"name": "account",
					"type": "address"
				}
			],
			"name": "revokeRole",
			"outputs": [],
			"stateMutability": "nonpayable",
			"type": "function"
		},
		{
			"inputs": [
				{
					"internalType": "bytes4",
					"name": "interfaceId",
					"type": "bytes4"
				}
			],
			"name": "supportsInterface",
			"outputs": [
				{
					"internalType": "bool",
					"name": "",
					"type": "bool"
				}
			],
			"stateMutability": "view",
			"type": "function"
		},
		{
			"inputs": [],
			"name": "transactionCount",
			"outputs": [
				{
					"internalType": "uint256",
					"name": "",
					"type": "uint256"
				}
			],
			"stateMutability": "view",
			"type": "function"
		},
		{
			"inputs": [
				{
					"internalType": "uint256",
					"name": "",
					"type": "uint256"
				}
			],
			"name": "transactions",
			"outputs": [
				{
					"internalType": "bytes32",
					"name": "buyer",
					"type": "bytes32"
				},
				{
					"internalType": "bytes32",
					"name": "seller",
					"type": "bytes32"
				},
				{
					"internalType": "uint256",
					"name": "amount",
					"type": "uint256"
				},
				{
					"internalType": "uint256",
					"name": "timestamp",
					"type": "uint256"
				},
				{
					"internalType": "bool",
					"name": "verified",
					"type": "bool"
				},
				{
					"internalType": "string",
					"name": "buyerInformation",
					"type": "string"
				},
				{
					"internalType": "string",
					"name": "sellerInformation",
					"type": "string"
				},
				{
					"internalType": "string",
					"name": "description",
					"type": "string"
				}
			],
			"stateMutability": "view",
			"type": "function"
		},
		{
			"inputs": [
				{
					"internalType": "address",
					"name": "",
					"type": "address"
				},
				{
					"internalType": "uint256",
					"name": "",
					"type": "uint256"
				}
			],
			"name": "userTransactions",
			"outputs": [
				{
					"internalType": "uint256",
					"name": "",
					"type": "uint256"
				}
			],
			"stateMutability": "view",
			"type": "function"
		}
	]
}